{
  "_format": "hh-sol-artifact-1",
  "contractName": "Castle",
  "sourceName": "src/backend/contracts/Castle.sol",
  "abi": [
    {
      "inputs": [
        {
          "internalType": "address",
          "name": "_plantingAddress",
          "type": "address"
        },
        {
          "internalType": "address",
          "name": "_nftAddress",
          "type": "address"
        }
      ],
      "stateMutability": "nonpayable",
      "type": "constructor"
    },
    {
      "anonymous": false,
      "inputs": [
        {
          "indexed": false,
          "internalType": "address",
          "name": "user",
          "type": "address"
        },
        {
          "indexed": false,
          "internalType": "uint256",
          "name": "choice",
          "type": "uint256"
        }
      ],
      "name": "LootingSuccessful",
      "type": "event"
    },
    {
      "anonymous": false,
      "inputs": [
        {
          "indexed": true,
          "internalType": "address",
          "name": "previousOwner",
          "type": "address"
        },
        {
          "indexed": true,
          "internalType": "address",
          "name": "newOwner",
          "type": "address"
        }
      ],
      "name": "OwnershipTransferred",
      "type": "event"
    },
    {
      "inputs": [
        {
          "internalType": "uint256",
          "name": "_choice",
          "type": "uint256"
        }
      ],
      "name": "loot",
      "outputs": [],
      "stateMutability": "nonpayable",
      "type": "function"
    },
    {
      "inputs": [],
      "name": "nft",
      "outputs": [
        {
          "internalType": "contract NFT_Goose",
          "name": "",
          "type": "address"
        }
      ],
      "stateMutability": "view",
      "type": "function"
    },
    {
      "inputs": [],
      "name": "owner",
      "outputs": [
        {
          "internalType": "address",
          "name": "",
          "type": "address"
        }
      ],
      "stateMutability": "view",
      "type": "function"
    },
    {
      "inputs": [],
      "name": "planting",
      "outputs": [
        {
          "internalType": "contract Planting",
          "name": "",
          "type": "address"
        }
      ],
      "stateMutability": "view",
      "type": "function"
    },
    {
      "inputs": [],
      "name": "renounceOwnership",
      "outputs": [],
      "stateMutability": "nonpayable",
      "type": "function"
    },
    {
      "inputs": [
        {
          "internalType": "address",
          "name": "_tokenAddress",
          "type": "address"
        }
      ],
      "name": "setTokenAddress",
      "outputs": [],
      "stateMutability": "nonpayable",
      "type": "function"
    },
    {
      "inputs": [],
      "name": "token",
      "outputs": [
        {
          "internalType": "contract ERC20",
          "name": "",
          "type": "address"
        }
      ],
      "stateMutability": "view",
      "type": "function"
    },
    {
      "inputs": [
        {
          "internalType": "address",
          "name": "newOwner",
          "type": "address"
        }
      ],
      "name": "transferOwnership",
      "outputs": [],
      "stateMutability": "nonpayable",
      "type": "function"
    },
    {
      "inputs": [
        {
          "internalType": "address",
          "name": "",
          "type": "address"
        }
      ],
      "name": "userLooted",
      "outputs": [
        {
          "internalType": "uint256",
          "name": "",
          "type": "uint256"
        }
      ],
      "stateMutability": "view",
      "type": "function"
    }
  ],
  "bytecode": "0x60806040523480156200001157600080fd5b50604051620013d7380380620013d783398181016040528101906200003791906200021e565b620000576200004b620000e860201b60201c565b620000f060201b60201c565b6001808190555081600460006101000a81548173ffffffffffffffffffffffffffffffffffffffff021916908373ffffffffffffffffffffffffffffffffffffffff16021790555080600360006101000a81548173ffffffffffffffffffffffffffffffffffffffff021916908373ffffffffffffffffffffffffffffffffffffffff160217905550505062000265565b600033905090565b60008060009054906101000a900473ffffffffffffffffffffffffffffffffffffffff169050816000806101000a81548173ffffffffffffffffffffffffffffffffffffffff021916908373ffffffffffffffffffffffffffffffffffffffff1602179055508173ffffffffffffffffffffffffffffffffffffffff168173ffffffffffffffffffffffffffffffffffffffff167f8be0079c531659141344cd1fd0a4f28419497f9722a3daafe3b4186f6b6457e060405160405180910390a35050565b600080fd5b600073ffffffffffffffffffffffffffffffffffffffff82169050919050565b6000620001e682620001b9565b9050919050565b620001f881620001d9565b81146200020457600080fd5b50565b6000815190506200021881620001ed565b92915050565b60008060408385031215620002385762000237620001b4565b5b6000620002488582860162000207565b92505060206200025b8582860162000207565b9150509250929050565b61116280620002756000396000f3fe608060405234801561001057600080fd5b50600436106100935760003560e01c8063715018a611610066578063715018a61461010c5780638da5cb5b14610116578063aee7943114610134578063f2fde38b14610164578063fc0c546a1461018057610093565b806326a4e8d21461009857806347ccca02146100b45780635739ad55146100d257806365619984146100ee575b600080fd5b6100b260048036038101906100ad91906109a4565b61019e565b005b6100bc6101ea565b6040516100c99190610a30565b60405180910390f35b6100ec60048036038101906100e79190610a81565b610210565b005b6100f6610671565b6040516101039190610acf565b60405180910390f35b610114610697565b005b61011e6106ab565b60405161012b9190610af9565b60405180910390f35b61014e600480360381019061014991906109a4565b6106d4565b60405161015b9190610b23565b60405180910390f35b61017e600480360381019061017991906109a4565b6106ec565b005b61018861076f565b6040516101959190610b5f565b60405180910390f35b6101a6610795565b80600260006101000a81548173ffffffffffffffffffffffffffffffffffffffff021916908373ffffffffffffffffffffffffffffffffffffffff16021790555050565b600360009054906101000a900473ffffffffffffffffffffffffffffffffffffffff1681565b610218610813565b60018114806102275750600281145b610266576040517f08c379a000000000000000000000000000000000000000000000000000000000815260040161025d90610bd7565b60405180910390fd5b6000600560003373ffffffffffffffffffffffffffffffffffffffff1673ffffffffffffffffffffffffffffffffffffffff16815260200190815260200160002054146102e8576040517f08c379a00000000000000000000000000000000000000000000000000000000081526004016102df90610c69565b60405180910390fd5b60048060009054906101000a900473ffffffffffffffffffffffffffffffffffffffff1673ffffffffffffffffffffffffffffffffffffffff16634e2f90e9336040518263ffffffff1660e01b81526004016103449190610af9565b6040805180830381865afa158015610360573d6000803e3d6000fd5b505050506040513d601f19601f820116820180604052508101906103849190610d7f565b60000151146103c8576040517f08c379a00000000000000000000000000000000000000000000000000000000081526004016103bf90610e1e565b60405180910390fd5b600460009054906101000a900473ffffffffffffffffffffffffffffffffffffffff1673ffffffffffffffffffffffffffffffffffffffff16631356d3dc336040518263ffffffff1660e01b81526004016104239190610af9565b602060405180830381865afa158015610440573d6000803e3d6000fd5b505050506040513d601f19601f820116820180604052508101906104649190610e76565b6104a3576040517f08c379a000000000000000000000000000000000000000000000000000000000815260040161049a90610f15565b60405180910390fd5b80600560003373ffffffffffffffffffffffffffffffffffffffff1673ffffffffffffffffffffffffffffffffffffffff168152602001908152602001600020819055506001810361059657600260009054906101000a900473ffffffffffffffffffffffffffffffffffffffff1673ffffffffffffffffffffffffffffffffffffffff1663a9059cbb3360016040518363ffffffff1660e01b815260040161054d929190610f70565b6020604051808303816000875af115801561056c573d6000803e3d6000fd5b505050506040513d601f19601f820116820180604052508101906105909190610e76565b5061062d565b6002810361062c57600360009054906101000a900473ffffffffffffffffffffffffffffffffffffffff1673ffffffffffffffffffffffffffffffffffffffff166363250887336040518263ffffffff1660e01b81526004016105f99190610af9565b600060405180830381600087803b15801561061357600080fd5b505af1158015610627573d6000803e3d6000fd5b505050505b5b7fce2297c1061f1c092e79e76103b5ddf083853314ac79632c71d56bed3422c7ee338260405161065e929190610f99565b60405180910390a161066e610862565b50565b600460009054906101000a900473ffffffffffffffffffffffffffffffffffffffff1681565b61069f610795565b6106a9600061086b565b565b60008060009054906101000a900473ffffffffffffffffffffffffffffffffffffffff16905090565b60056020528060005260406000206000915090505481565b6106f4610795565b600073ffffffffffffffffffffffffffffffffffffffff168173ffffffffffffffffffffffffffffffffffffffff1603610763576040517f08c379a000000000000000000000000000000000000000000000000000000000815260040161075a90611034565b60405180910390fd5b61076c8161086b565b50565b600260009054906101000a900473ffffffffffffffffffffffffffffffffffffffff1681565b61079d61092f565b73ffffffffffffffffffffffffffffffffffffffff166107bb6106ab565b73ffffffffffffffffffffffffffffffffffffffff1614610811576040517f08c379a0000000000000000000000000000000000000000000000000000000008152600401610808906110a0565b60405180910390fd5b565b600260015403610858576040517f08c379a000000000000000000000000000000000000000000000000000000000815260040161084f9061110c565b60405180910390fd5b6002600181905550565b60018081905550565b60008060009054906101000a900473ffffffffffffffffffffffffffffffffffffffff169050816000806101000a81548173ffffffffffffffffffffffffffffffffffffffff021916908373ffffffffffffffffffffffffffffffffffffffff1602179055508173ffffffffffffffffffffffffffffffffffffffff168173ffffffffffffffffffffffffffffffffffffffff167f8be0079c531659141344cd1fd0a4f28419497f9722a3daafe3b4186f6b6457e060405160405180910390a35050565b600033905090565b6000604051905090565b600080fd5b600073ffffffffffffffffffffffffffffffffffffffff82169050919050565b600061097182610946565b9050919050565b61098181610966565b811461098c57600080fd5b50565b60008135905061099e81610978565b92915050565b6000602082840312156109ba576109b9610941565b5b60006109c88482850161098f565b91505092915050565b6000819050919050565b60006109f66109f16109ec84610946565b6109d1565b610946565b9050919050565b6000610a08826109db565b9050919050565b6000610a1a826109fd565b9050919050565b610a2a81610a0f565b82525050565b6000602082019050610a456000830184610a21565b92915050565b6000819050919050565b610a5e81610a4b565b8114610a6957600080fd5b50565b600081359050610a7b81610a55565b92915050565b600060208284031215610a9757610a96610941565b5b6000610aa584828501610a6c565b91505092915050565b6000610ab9826109fd565b9050919050565b610ac981610aae565b82525050565b6000602082019050610ae46000830184610ac0565b92915050565b610af381610966565b82525050565b6000602082019050610b0e6000830184610aea565b92915050565b610b1d81610a4b565b82525050565b6000602082019050610b386000830184610b14565b92915050565b6000610b49826109fd565b9050919050565b610b5981610b3e565b82525050565b6000602082019050610b746000830184610b50565b92915050565b600082825260208201905092915050565b7f496e76616c69642063686f696365000000000000000000000000000000000000600082015250565b6000610bc1600e83610b7a565b9150610bcc82610b8b565b602082019050919050565b60006020820190508181036000830152610bf081610bb4565b9050919050565b7f54686973207573657220616c7265616479206c6f6f746564207468652063617360008201527f746c652e00000000000000000000000000000000000000000000000000000000602082015250565b6000610c53602483610b7a565b9150610c5e82610bf7565b604082019050919050565b60006020820190508181036000830152610c8281610c46565b9050919050565b600080fd5b6000601f19601f8301169050919050565b7f4e487b7100000000000000000000000000000000000000000000000000000000600052604160045260246000fd5b610cd782610c8e565b810181811067ffffffffffffffff82111715610cf657610cf5610c9f565b5b80604052505050565b6000610d09610937565b9050610d158282610cce565b919050565b600081519050610d2981610a55565b92915050565b600060408284031215610d4557610d44610c89565b5b610d4f6040610cff565b90506000610d5f84828501610d1a565b6000830152506020610d7384828501610d1a565b60208301525092915050565b600060408284031215610d9557610d94610941565b5b6000610da384828501610d2f565b91505092915050565b7f5468652075736572206973206e6f7420617420746865206c61737420706c616e60008201527f74696e672070686173652e000000000000000000000000000000000000000000602082015250565b6000610e08602b83610b7a565b9150610e1382610dac565b604082019050919050565b60006020820190508181036000830152610e3781610dfb565b9050919050565b60008115159050919050565b610e5381610e3e565b8114610e5e57600080fd5b50565b600081519050610e7081610e4a565b92915050565b600060208284031215610e8c57610e8b610941565b5b6000610e9a84828501610e61565b91505092915050565b7f546865207573657220686173206e6f742066696e69736865642069747320706c60008201527f616e74696e672070686173650000000000000000000000000000000000000000602082015250565b6000610eff602c83610b7a565b9150610f0a82610ea3565b604082019050919050565b60006020820190508181036000830152610f2e81610ef2565b9050919050565b6000819050919050565b6000610f5a610f55610f5084610f35565b6109d1565b610a4b565b9050919050565b610f6a81610f3f565b82525050565b6000604082019050610f856000830185610aea565b610f926020830184610f61565b9392505050565b6000604082019050610fae6000830185610aea565b610fbb6020830184610b14565b9392505050565b7f4f776e61626c653a206e6577206f776e657220697320746865207a65726f206160008201527f6464726573730000000000000000000000000000000000000000000000000000602082015250565b600061101e602683610b7a565b915061102982610fc2565b604082019050919050565b6000602082019050818103600083015261104d81611011565b9050919050565b7f4f776e61626c653a2063616c6c6572206973206e6f7420746865206f776e6572600082015250565b600061108a602083610b7a565b915061109582611054565b602082019050919050565b600060208201905081810360008301526110b98161107d565b9050919050565b7f5265656e7472616e637947756172643a207265656e7472616e742063616c6c00600082015250565b60006110f6601f83610b7a565b9150611101826110c0565b602082019050919050565b60006020820190508181036000830152611125816110e9565b905091905056fea2646970667358221220a97762d55657d784d878373f6effb20925f08c1e733e253eb1c313fa9480719b64736f6c634300080d0033",
  "linkReferences": {},
  "deployedLinkReferences": {}
}