{
  "_format": "hh-sol-artifact-1",
  "contractName": "NFT",
  "sourceName": "src/backend/contracts/NFT.sol",
  "abi": [
    {
      "inputs": [],
      "stateMutability": "nonpayable",
      "type": "constructor"
    },
    {
      "inputs": [],
      "name": "ApprovalCallerNotOwnerNorApproved",
      "type": "error"
    },
    {
      "inputs": [],
      "name": "ApprovalQueryForNonexistentToken",
      "type": "error"
    },
    {
      "inputs": [],
      "name": "ApproveToCaller",
      "type": "error"
    },
    {
      "inputs": [],
      "name": "BalanceQueryForZeroAddress",
      "type": "error"
    },
    {
      "inputs": [],
      "name": "MintERC2309QuantityExceedsLimit",
      "type": "error"
    },
    {
      "inputs": [],
      "name": "MintToZeroAddress",
      "type": "error"
    },
    {
      "inputs": [],
      "name": "MintZeroQuantity",
      "type": "error"
    },
    {
      "inputs": [
        {
          "internalType": "address",
          "name": "operator",
          "type": "address"
        }
      ],
      "name": "OperatorNotAllowed",
      "type": "error"
    },
    {
      "inputs": [],
      "name": "OwnerQueryForNonexistentToken",
      "type": "error"
    },
    {
      "inputs": [],
      "name": "OwnershipNotInitializedForExtraData",
      "type": "error"
    },
    {
      "inputs": [],
      "name": "TransferCallerNotOwnerNorApproved",
      "type": "error"
    },
    {
      "inputs": [],
      "name": "TransferFromIncorrectOwner",
      "type": "error"
    },
    {
      "inputs": [],
      "name": "TransferToNonERC721ReceiverImplementer",
      "type": "error"
    },
    {
      "inputs": [],
      "name": "TransferToZeroAddress",
      "type": "error"
    },
    {
      "inputs": [],
      "name": "URIQueryForNonexistentToken",
      "type": "error"
    },
    {
      "anonymous": false,
      "inputs": [
        {
          "indexed": true,
          "internalType": "address",
          "name": "owner",
          "type": "address"
        },
        {
          "indexed": true,
          "internalType": "address",
          "name": "approved",
          "type": "address"
        },
        {
          "indexed": true,
          "internalType": "uint256",
          "name": "tokenId",
          "type": "uint256"
        }
      ],
      "name": "Approval",
      "type": "event"
    },
    {
      "anonymous": false,
      "inputs": [
        {
          "indexed": true,
          "internalType": "address",
          "name": "owner",
          "type": "address"
        },
        {
          "indexed": true,
          "internalType": "address",
          "name": "operator",
          "type": "address"
        },
        {
          "indexed": false,
          "internalType": "bool",
          "name": "approved",
          "type": "bool"
        }
      ],
      "name": "ApprovalForAll",
      "type": "event"
    },
    {
      "anonymous": false,
      "inputs": [
        {
          "indexed": true,
          "internalType": "uint256",
          "name": "fromTokenId",
          "type": "uint256"
        },
        {
          "indexed": false,
          "internalType": "uint256",
          "name": "toTokenId",
          "type": "uint256"
        },
        {
          "indexed": true,
          "internalType": "address",
          "name": "from",
          "type": "address"
        },
        {
          "indexed": true,
          "internalType": "address",
          "name": "to",
          "type": "address"
        }
      ],
      "name": "ConsecutiveTransfer",
      "type": "event"
    },
    {
      "anonymous": false,
      "inputs": [
        {
          "indexed": false,
          "internalType": "address",
          "name": "user",
          "type": "address"
        }
      ],
      "name": "MintSuccessful",
      "type": "event"
    },
    {
      "anonymous": false,
      "inputs": [
        {
          "indexed": true,
          "internalType": "address",
          "name": "previousOwner",
          "type": "address"
        },
        {
          "indexed": true,
          "internalType": "address",
          "name": "newOwner",
          "type": "address"
        }
      ],
      "name": "OwnershipTransferred",
      "type": "event"
    },
    {
      "anonymous": false,
      "inputs": [
        {
          "indexed": true,
          "internalType": "address",
          "name": "from",
          "type": "address"
        },
        {
          "indexed": true,
          "internalType": "address",
          "name": "to",
          "type": "address"
        },
        {
          "indexed": true,
          "internalType": "uint256",
          "name": "tokenId",
          "type": "uint256"
        }
      ],
      "name": "Transfer",
      "type": "event"
    },
    {
      "inputs": [],
      "name": "amountMintPerAccount",
      "outputs": [
        {
          "internalType": "uint256",
          "name": "",
          "type": "uint256"
        }
      ],
      "stateMutability": "view",
      "type": "function"
    },
    {
      "inputs": [
        {
          "internalType": "address",
          "name": "to",
          "type": "address"
        },
        {
          "internalType": "uint256",
          "name": "tokenId",
          "type": "uint256"
        }
      ],
      "name": "approve",
      "outputs": [],
      "stateMutability": "nonpayable",
      "type": "function"
    },
    {
      "inputs": [
        {
          "internalType": "address",
          "name": "owner",
          "type": "address"
        }
      ],
      "name": "balanceOf",
      "outputs": [
        {
          "internalType": "uint256",
          "name": "",
          "type": "uint256"
        }
      ],
      "stateMutability": "view",
      "type": "function"
    },
    {
      "inputs": [],
      "name": "baseTokenURI",
      "outputs": [
        {
          "internalType": "string",
          "name": "",
          "type": "string"
        }
      ],
      "stateMutability": "pure",
      "type": "function"
    },
    {
      "inputs": [
        {
          "internalType": "uint256",
          "name": "_tokenId",
          "type": "uint256"
        }
      ],
      "name": "burn",
      "outputs": [],
      "stateMutability": "nonpayable",
      "type": "function"
    },
    {
      "inputs": [],
      "name": "burnAmount",
      "outputs": [
        {
          "internalType": "uint256",
          "name": "",
          "type": "uint256"
        }
      ],
      "stateMutability": "view",
      "type": "function"
    },
    {
      "inputs": [],
      "name": "contractURI",
      "outputs": [
        {
          "internalType": "string",
          "name": "",
          "type": "string"
        }
      ],
      "stateMutability": "pure",
      "type": "function"
    },
    {
      "inputs": [
        {
          "internalType": "uint256",
          "name": "tokenId",
          "type": "uint256"
        }
      ],
      "name": "getApproved",
      "outputs": [
        {
          "internalType": "address",
          "name": "",
          "type": "address"
        }
      ],
      "stateMutability": "view",
      "type": "function"
    },
    {
      "inputs": [],
      "name": "getPrice",
      "outputs": [
        {
          "internalType": "uint256",
          "name": "",
          "type": "uint256"
        }
      ],
      "stateMutability": "view",
      "type": "function"
    },
    {
      "inputs": [
        {
          "internalType": "address",
          "name": "owner",
          "type": "address"
        },
        {
          "internalType": "address",
          "name": "operator",
          "type": "address"
        }
      ],
      "name": "isApprovedForAll",
      "outputs": [
        {
          "internalType": "bool",
          "name": "",
          "type": "bool"
        }
      ],
      "stateMutability": "view",
      "type": "function"
    },
    {
      "inputs": [],
      "name": "max_supply",
      "outputs": [
        {
          "internalType": "uint256",
          "name": "",
          "type": "uint256"
        }
      ],
      "stateMutability": "view",
      "type": "function"
    },
    {
      "inputs": [
        {
          "internalType": "uint256",
          "name": "quantity",
          "type": "uint256"
        }
      ],
      "name": "mint",
      "outputs": [],
      "stateMutability": "payable",
      "type": "function"
    },
    {
      "inputs": [],
      "name": "mintEnabled",
      "outputs": [
        {
          "internalType": "bool",
          "name": "",
          "type": "bool"
        }
      ],
      "stateMutability": "view",
      "type": "function"
    },
    {
      "inputs": [],
      "name": "name",
      "outputs": [
        {
          "internalType": "string",
          "name": "",
          "type": "string"
        }
      ],
      "stateMutability": "view",
      "type": "function"
    },
    {
      "inputs": [],
      "name": "owner",
      "outputs": [
        {
          "internalType": "address",
          "name": "",
          "type": "address"
        }
      ],
      "stateMutability": "view",
      "type": "function"
    },
    {
      "inputs": [
        {
          "internalType": "uint256",
          "name": "tokenId",
          "type": "uint256"
        }
      ],
      "name": "ownerOf",
      "outputs": [
        {
          "internalType": "address",
          "name": "",
          "type": "address"
        }
      ],
      "stateMutability": "view",
      "type": "function"
    },
    {
      "inputs": [],
      "name": "plantingAddress",
      "outputs": [
        {
          "internalType": "address",
          "name": "",
          "type": "address"
        }
      ],
      "stateMutability": "view",
      "type": "function"
    },
    {
      "inputs": [],
      "name": "price",
      "outputs": [
        {
          "internalType": "uint256",
          "name": "",
          "type": "uint256"
        }
      ],
      "stateMutability": "view",
      "type": "function"
    },
    {
      "inputs": [],
      "name": "renounceOwnership",
      "outputs": [],
      "stateMutability": "nonpayable",
      "type": "function"
    },
    {
      "inputs": [
        {
          "internalType": "address",
          "name": "from",
          "type": "address"
        },
        {
          "internalType": "address",
          "name": "to",
          "type": "address"
        },
        {
          "internalType": "uint256",
          "name": "tokenId",
          "type": "uint256"
        }
      ],
      "name": "safeTransferFrom",
      "outputs": [],
      "stateMutability": "nonpayable",
      "type": "function"
    },
    {
      "inputs": [
        {
          "internalType": "address",
          "name": "from",
          "type": "address"
        },
        {
          "internalType": "address",
          "name": "to",
          "type": "address"
        },
        {
          "internalType": "uint256",
          "name": "tokenId",
          "type": "uint256"
        },
        {
          "internalType": "bytes",
          "name": "data",
          "type": "bytes"
        }
      ],
      "name": "safeTransferFrom",
      "outputs": [],
      "stateMutability": "nonpayable",
      "type": "function"
    },
    {
      "inputs": [
        {
          "internalType": "uint256",
          "name": "_amountMintPerAccount",
          "type": "uint256"
        }
      ],
      "name": "setAmountMintPerAccount",
      "outputs": [],
      "stateMutability": "nonpayable",
      "type": "function"
    },
    {
      "inputs": [
        {
          "internalType": "address",
          "name": "operator",
          "type": "address"
        },
        {
          "internalType": "bool",
          "name": "approved",
          "type": "bool"
        }
      ],
      "name": "setApprovalForAll",
      "outputs": [],
      "stateMutability": "nonpayable",
      "type": "function"
    },
    {
      "inputs": [
        {
          "internalType": "bool",
          "name": "_state",
          "type": "bool"
        }
      ],
      "name": "setMintEnabled",
      "outputs": [],
      "stateMutability": "nonpayable",
      "type": "function"
    },
    {
      "inputs": [
        {
          "internalType": "address",
          "name": "_address",
          "type": "address"
        }
      ],
      "name": "setPlantingAddress",
      "outputs": [],
      "stateMutability": "nonpayable",
      "type": "function"
    },
    {
      "inputs": [
        {
          "internalType": "uint256",
          "name": "_price",
          "type": "uint256"
        }
      ],
      "name": "setPrice",
      "outputs": [],
      "stateMutability": "nonpayable",
      "type": "function"
    },
    {
      "inputs": [
        {
          "internalType": "bytes4",
          "name": "interfaceId",
          "type": "bytes4"
        }
      ],
      "name": "supportsInterface",
      "outputs": [
        {
          "internalType": "bool",
          "name": "",
          "type": "bool"
        }
      ],
      "stateMutability": "view",
      "type": "function"
    },
    {
      "inputs": [],
      "name": "symbol",
      "outputs": [
        {
          "internalType": "string",
          "name": "",
          "type": "string"
        }
      ],
      "stateMutability": "view",
      "type": "function"
    },
    {
      "inputs": [
        {
          "internalType": "uint256",
          "name": "_tokenId",
          "type": "uint256"
        }
      ],
      "name": "tokenURI",
      "outputs": [
        {
          "internalType": "string",
          "name": "",
          "type": "string"
        }
      ],
      "stateMutability": "view",
      "type": "function"
    },
    {
      "inputs": [],
      "name": "totalSupply",
      "outputs": [
        {
          "internalType": "uint256",
          "name": "",
          "type": "uint256"
        }
      ],
      "stateMutability": "view",
      "type": "function"
    },
    {
      "inputs": [
        {
          "internalType": "address",
          "name": "from",
          "type": "address"
        },
        {
          "internalType": "address",
          "name": "to",
          "type": "address"
        },
        {
          "internalType": "uint256",
          "name": "tokenId",
          "type": "uint256"
        }
      ],
      "name": "transferFrom",
      "outputs": [],
      "stateMutability": "nonpayable",
      "type": "function"
    },
    {
      "inputs": [
        {
          "internalType": "address",
          "name": "newOwner",
          "type": "address"
        }
      ],
      "name": "transferOwnership",
      "outputs": [],
      "stateMutability": "nonpayable",
      "type": "function"
    },
    {
      "inputs": [],
      "name": "uriPrefix",
      "outputs": [
        {
          "internalType": "string",
          "name": "",
          "type": "string"
        }
      ],
      "stateMutability": "view",
      "type": "function"
    },
    {
      "inputs": [],
      "name": "uriSuffix",
      "outputs": [
        {
          "internalType": "string",
          "name": "",
          "type": "string"
        }
      ],
      "stateMutability": "view",
      "type": "function"
    },
    {
      "inputs": [],
      "name": "withdraw",
      "outputs": [],
      "stateMutability": "nonpayable",
      "type": "function"
    }
  ],
  "bytecode": "0x608060405260405180602001604052806000815250600990805190602001906200002b9291906200045d565b506040518060400160405280600581526020017f2e6a736f6e000000000000000000000000000000000000000000000000000000815250600a9080519060200190620000799291906200045d565b50611388600b556001600e55662386f26fc100006010553480156200009d57600080fd5b50733cc6cdda760b79bafa08df41ecfa224f810dceb660016040518060400160405280600b81526020017f4265616e7374616c6b65720000000000000000000000000000000000000000008152506040518060400160405280600481526020017f4245414e0000000000000000000000000000000000000000000000000000000081525062000141620001356200038860201b60201c565b6200039060201b60201c565b8160039080519060200190620001599291906200045d565b508060049080519060200190620001729291906200045d565b50620001836200045460201b60201c565b600181905550505060006daaeb6d7670e522a718067333cd4e73ffffffffffffffffffffffffffffffffffffffff163b11156200038057801562000246576daaeb6d7670e522a718067333cd4e73ffffffffffffffffffffffffffffffffffffffff16637d3e3dbe30846040518363ffffffff1660e01b81526004016200020c92919062000552565b600060405180830381600087803b1580156200022757600080fd5b505af11580156200023c573d6000803e3d6000fd5b505050506200037f565b600073ffffffffffffffffffffffffffffffffffffffff168273ffffffffffffffffffffffffffffffffffffffff161462000300576daaeb6d7670e522a718067333cd4e73ffffffffffffffffffffffffffffffffffffffff1663a0af290330846040518363ffffffff1660e01b8152600401620002c692919062000552565b600060405180830381600087803b158015620002e157600080fd5b505af1158015620002f6573d6000803e3d6000fd5b505050506200037e565b6daaeb6d7670e522a718067333cd4e73ffffffffffffffffffffffffffffffffffffffff16634420e486306040518263ffffffff1660e01b81526004016200034991906200057f565b600060405180830381600087803b1580156200036457600080fd5b505af115801562000379573d6000803e3d6000fd5b505050505b5b5b505062000600565b600033905090565b60008060009054906101000a900473ffffffffffffffffffffffffffffffffffffffff169050816000806101000a81548173ffffffffffffffffffffffffffffffffffffffff021916908373ffffffffffffffffffffffffffffffffffffffff1602179055508173ffffffffffffffffffffffffffffffffffffffff168173ffffffffffffffffffffffffffffffffffffffff167f8be0079c531659141344cd1fd0a4f28419497f9722a3daafe3b4186f6b6457e060405160405180910390a35050565b60006001905090565b8280546200046b90620005cb565b90600052602060002090601f0160209004810192826200048f5760008555620004db565b82601f10620004aa57805160ff1916838001178555620004db565b82800160010185558215620004db579182015b82811115620004da578251825591602001919060010190620004bd565b5b509050620004ea9190620004ee565b5090565b5b8082111562000509576000816000905550600101620004ef565b5090565b600073ffffffffffffffffffffffffffffffffffffffff82169050919050565b60006200053a826200050d565b9050919050565b6200054c816200052d565b82525050565b600060408201905062000569600083018562000541565b62000578602083018462000541565b9392505050565b600060208201905062000596600083018462000541565b92915050565b7f4e487b7100000000000000000000000000000000000000000000000000000000600052602260045260246000fd5b60006002820490506001821680620005e457607f821691505b602082108103620005fa57620005f96200059c565b5b50919050565b61379180620006106000396000f3fe6080604052600436106102045760003560e01c8063715018a611610118578063a827b5ff116100a0578063d547cfb71161006f578063d547cfb714610724578063e8a3d4851461074f578063e985e9c51461077a578063f2fde38b146107b7578063f46a04eb146107e057610204565b8063a827b5ff14610668578063b88d4fde14610693578063c87b56dd146106bc578063d1239730146106f957610204565b806395d89b41116100e757806395d89b41146105a257806398d5fdca146105cd578063a035b1fe146105f8578063a0712d6814610623578063a22cb4651461063f57610204565b8063715018a61461050c5780638a333b50146105235780638da5cb5b1461054e57806391b7f5ed1461057957610204565b806342842e0e1161019b5780635503a0e81161016a5780635503a0e81461041357806358cf25ca1461043e57806362b99ad4146104675780636352211e1461049257806370a08231146104cf57610204565b806342842e0e1461036b57806342966c68146103945780634761da9e146103bd578063486a7e6b146103e857610204565b806311296660116101d757806311296660146102d757806318160ddd1461030057806323b872dd1461032b5780633ccfd60b1461035457610204565b806301ffc9a71461020957806306fdde0314610246578063081812fc14610271578063095ea7b3146102ae575b600080fd5b34801561021557600080fd5b50610230600480360381019061022b9190612990565b610809565b60405161023d91906129d8565b60405180910390f35b34801561025257600080fd5b5061025b61089b565b6040516102689190612a8c565b60405180910390f35b34801561027d57600080fd5b5061029860048036038101906102939190612ae4565b61092d565b6040516102a59190612b52565b60405180910390f35b3480156102ba57600080fd5b506102d560048036038101906102d09190612b99565b6109ac565b005b3480156102e357600080fd5b506102fe60048036038101906102f99190612ae4565b610af0565b005b34801561030c57600080fd5b50610315610b02565b6040516103229190612be8565b60405180910390f35b34801561033757600080fd5b50610352600480360381019061034d9190612c03565b610b19565b005b34801561036057600080fd5b50610369610cfb565b005b34801561037757600080fd5b50610392600480360381019061038d9190612c03565b610d4c565b005b3480156103a057600080fd5b506103bb60048036038101906103b69190612ae4565b610f2e565b005b3480156103c957600080fd5b506103d2610fe4565b6040516103df9190612b52565b60405180910390f35b3480156103f457600080fd5b506103fd61100a565b60405161040a9190612be8565b60405180910390f35b34801561041f57600080fd5b50610428611010565b6040516104359190612a8c565b60405180910390f35b34801561044a57600080fd5b5061046560048036038101906104609190612c56565b61109e565b005b34801561047357600080fd5b5061047c6110ea565b6040516104899190612a8c565b60405180910390f35b34801561049e57600080fd5b506104b960048036038101906104b49190612ae4565b611178565b6040516104c69190612b52565b60405180910390f35b3480156104db57600080fd5b506104f660048036038101906104f19190612c56565b61118a565b6040516105039190612be8565b60405180910390f35b34801561051857600080fd5b50610521611242565b005b34801561052f57600080fd5b50610538611256565b6040516105459190612be8565b60405180910390f35b34801561055a57600080fd5b5061056361125c565b6040516105709190612b52565b60405180910390f35b34801561058557600080fd5b506105a0600480360381019061059b9190612ae4565b611285565b005b3480156105ae57600080fd5b506105b7611297565b6040516105c49190612a8c565b60405180910390f35b3480156105d957600080fd5b506105e2611329565b6040516105ef9190612be8565b60405180910390f35b34801561060457600080fd5b5061060d611333565b60405161061a9190612be8565b60405180910390f35b61063d60048036038101906106389190612ae4565b611339565b005b34801561064b57600080fd5b5061066660048036038101906106619190612caf565b6114cf565b005b34801561067457600080fd5b5061067d611646565b60405161068a9190612be8565b60405180910390f35b34801561069f57600080fd5b506106ba60048036038101906106b59190612e24565b61164c565b005b3480156106c857600080fd5b506106e360048036038101906106de9190612ae4565b611831565b6040516106f09190612a8c565b60405180910390f35b34801561070557600080fd5b5061070e6118db565b60405161071b91906129d8565b60405180910390f35b34801561073057600080fd5b506107396118ee565b6040516107469190612a8c565b60405180910390f35b34801561075b57600080fd5b506107646118fd565b6040516107719190612a8c565b60405180910390f35b34801561078657600080fd5b506107a1600480360381019061079c9190612ea7565b61191d565b6040516107ae91906129d8565b60405180910390f35b3480156107c357600080fd5b506107de60048036038101906107d99190612c56565b6119b1565b005b3480156107ec57600080fd5b5061080760048036038101906108029190612ee7565b611a34565b005b60006301ffc9a760e01b827bffffffffffffffffffffffffffffffffffffffffffffffffffffffff1916148061086457506380ac58cd60e01b827bffffffffffffffffffffffffffffffffffffffffffffffffffffffff1916145b806108945750635b5e139f60e01b827bffffffffffffffffffffffffffffffffffffffffffffffffffffffff1916145b9050919050565b6060600380546108aa90612f43565b80601f01602080910402602001604051908101604052809291908181526020018280546108d690612f43565b80156109235780601f106108f857610100808354040283529160200191610923565b820191906000526020600020905b81548152906001019060200180831161090657829003601f168201915b5050505050905090565b600061093882611a59565b61096e576040517fcf4700e400000000000000000000000000000000000000000000000000000000815260040160405180910390fd5b6007600083815260200190815260200160002060000160009054906101000a900473ffffffffffffffffffffffffffffffffffffffff169050919050565b60006109b782611178565b90508073ffffffffffffffffffffffffffffffffffffffff166109d8611ab8565b73ffffffffffffffffffffffffffffffffffffffff1614610a3b57610a04816109ff611ab8565b61191d565b610a3a576040517fcfb3b94200000000000000000000000000000000000000000000000000000000815260040160405180910390fd5b5b826007600084815260200190815260200160002060000160006101000a81548173ffffffffffffffffffffffffffffffffffffffff021916908373ffffffffffffffffffffffffffffffffffffffff160217905550818373ffffffffffffffffffffffffffffffffffffffff168273ffffffffffffffffffffffffffffffffffffffff167f8c5be1e5ebec7d5bd14f71427d1e84f3dd0314c0f7b2291e5b200ac8c7c3b92560405160405180910390a4505050565b610af8611ac0565b80600e8190555050565b6000610b0c611b3e565b6002546001540303905090565b8260006daaeb6d7670e522a718067333cd4e73ffffffffffffffffffffffffffffffffffffffff163b1115610ce9573373ffffffffffffffffffffffffffffffffffffffff168173ffffffffffffffffffffffffffffffffffffffff1603610b8b57610b86848484611b47565b610cf5565b6daaeb6d7670e522a718067333cd4e73ffffffffffffffffffffffffffffffffffffffff1663c617113430336040518363ffffffff1660e01b8152600401610bd4929190612f74565b602060405180830381865afa158015610bf1573d6000803e3d6000fd5b505050506040513d601f19601f82011682018060405250810190610c159190612fb2565b8015610ca757506daaeb6d7670e522a718067333cd4e73ffffffffffffffffffffffffffffffffffffffff1663c617113430836040518363ffffffff1660e01b8152600401610c65929190612f74565b602060405180830381865afa158015610c82573d6000803e3d6000fd5b505050506040513d601f19601f82011682018060405250810190610ca69190612fb2565b5b610ce857336040517fede71dcc000000000000000000000000000000000000000000000000000000008152600401610cdf9190612b52565b60405180910390fd5b5b610cf4848484611b47565b5b50505050565b610d03611ac0565b3373ffffffffffffffffffffffffffffffffffffffff166108fc479081150290604051600060405180830381858888f19350505050158015610d49573d6000803e3d6000fd5b50565b8260006daaeb6d7670e522a718067333cd4e73ffffffffffffffffffffffffffffffffffffffff163b1115610f1c573373ffffffffffffffffffffffffffffffffffffffff168173ffffffffffffffffffffffffffffffffffffffff1603610dbe57610db9848484611e69565b610f28565b6daaeb6d7670e522a718067333cd4e73ffffffffffffffffffffffffffffffffffffffff1663c617113430336040518363ffffffff1660e01b8152600401610e07929190612f74565b602060405180830381865afa158015610e24573d6000803e3d6000fd5b505050506040513d601f19601f82011682018060405250810190610e489190612fb2565b8015610eda57506daaeb6d7670e522a718067333cd4e73ffffffffffffffffffffffffffffffffffffffff1663c617113430836040518363ffffffff1660e01b8152600401610e98929190612f74565b602060405180830381865afa158015610eb5573d6000803e3d6000fd5b505050506040513d601f19601f82011682018060405250810190610ed99190612fb2565b5b610f1b57336040517fede71dcc000000000000000000000000000000000000000000000000000000008152600401610f129190612b52565b60405180910390fd5b5b610f27848484611e69565b5b50505050565b600c60009054906101000a900473ffffffffffffffffffffffffffffffffffffffff1673ffffffffffffffffffffffffffffffffffffffff163373ffffffffffffffffffffffffffffffffffffffff1614610fbe576040517f08c379a0000000000000000000000000000000000000000000000000000000008152600401610fb590613051565b60405180910390fd5b610fc781611e89565b6001600d6000828254610fda91906130a0565b9250508190555050565b600c60009054906101000a900473ffffffffffffffffffffffffffffffffffffffff1681565b600d5481565b600a805461101d90612f43565b80601f016020809104026020016040519081016040528092919081815260200182805461104990612f43565b80156110965780601f1061106b57610100808354040283529160200191611096565b820191906000526020600020905b81548152906001019060200180831161107957829003601f168201915b505050505081565b6110a6611ac0565b80600c60006101000a81548173ffffffffffffffffffffffffffffffffffffffff021916908373ffffffffffffffffffffffffffffffffffffffff16021790555050565b600980546110f790612f43565b80601f016020809104026020016040519081016040528092919081815260200182805461112390612f43565b80156111705780601f1061114557610100808354040283529160200191611170565b820191906000526020600020905b81548152906001019060200180831161115357829003601f168201915b505050505081565b600061118382611e97565b9050919050565b60008073ffffffffffffffffffffffffffffffffffffffff168273ffffffffffffffffffffffffffffffffffffffff16036111f1576040517f8f4eb60400000000000000000000000000000000000000000000000000000000815260040160405180910390fd5b67ffffffffffffffff600660008473ffffffffffffffffffffffffffffffffffffffff1673ffffffffffffffffffffffffffffffffffffffff16815260200190815260200160002054169050919050565b61124a611ac0565b6112546000611f63565b565b600b5481565b60008060009054906101000a900473ffffffffffffffffffffffffffffffffffffffff16905090565b61128d611ac0565b8060108190555050565b6060600480546112a690612f43565b80601f01602080910402602001604051908101604052809291908181526020018280546112d290612f43565b801561131f5780601f106112f45761010080835404028352916020019161131f565b820191906000526020600020905b81548152906001019060200180831161130257829003601f168201915b5050505050905090565b6000601054905090565b60105481565b600f60009054906101000a900460ff16611388576040517f08c379a000000000000000000000000000000000000000000000000000000000815260040161137f90613142565b60405180910390fd5b600b5481611394610b02565b61139e91906130a0565b106113de576040517f08c379a00000000000000000000000000000000000000000000000000000000081526004016113d5906131ae565b60405180910390fd5b600e54816113eb3361118a565b6113f591906130a0565b1115611436576040517f08c379a000000000000000000000000000000000000000000000000000000000815260040161142d90613240565b60405180910390fd5b8061143f611329565b6114499190613260565b34101561148b576040517f08c379a00000000000000000000000000000000000000000000000000000000081526004016114829061332c565b60405180910390fd5b6114953382612027565b7ff5535ccd9f40eb4bc73fac8710dbb2effbf3329da83f62b35d9aa88161bb85ca336040516114c49190612b52565b60405180910390a150565b6114d7611ab8565b73ffffffffffffffffffffffffffffffffffffffff168273ffffffffffffffffffffffffffffffffffffffff160361153b576040517fb06307db00000000000000000000000000000000000000000000000000000000815260040160405180910390fd5b8060086000611548611ab8565b73ffffffffffffffffffffffffffffffffffffffff1673ffffffffffffffffffffffffffffffffffffffff16815260200190815260200160002060008473ffffffffffffffffffffffffffffffffffffffff1673ffffffffffffffffffffffffffffffffffffffff16815260200190815260200160002060006101000a81548160ff0219169083151502179055508173ffffffffffffffffffffffffffffffffffffffff166115f5611ab8565b73ffffffffffffffffffffffffffffffffffffffff167f17307eab39ab6107e8899845ad3d59bd9653f200f220920489ca2b5937696c318360405161163a91906129d8565b60405180910390a35050565b600e5481565b8360006daaeb6d7670e522a718067333cd4e73ffffffffffffffffffffffffffffffffffffffff163b111561181d573373ffffffffffffffffffffffffffffffffffffffff168173ffffffffffffffffffffffffffffffffffffffff16036116bf576116ba858585856121e3565b61182a565b6daaeb6d7670e522a718067333cd4e73ffffffffffffffffffffffffffffffffffffffff1663c617113430336040518363ffffffff1660e01b8152600401611708929190612f74565b602060405180830381865afa158015611725573d6000803e3d6000fd5b505050506040513d601f19601f820116820180604052508101906117499190612fb2565b80156117db57506daaeb6d7670e522a718067333cd4e73ffffffffffffffffffffffffffffffffffffffff1663c617113430836040518363ffffffff1660e01b8152600401611799929190612f74565b602060405180830381865afa1580156117b6573d6000803e3d6000fd5b505050506040513d601f19601f820116820180604052508101906117da9190612fb2565b5b61181c57336040517fede71dcc0000000000000000000000000000000000000000000000000000000081526004016118139190612b52565b60405180910390fd5b5b611829858585856121e3565b5b5050505050565b606061183c82611a59565b61187b576040517f08c379a0000000000000000000000000000000000000000000000000000000008152600401611872906133be565b60405180910390fd5b6000611885612256565b905060008151116118a557604051806020016040528060008152506118d3565b806118af84612276565b600a6040516020016118c3939291906134ae565b6040516020818303038152906040525b915050919050565b600f60009054906101000a900460ff1681565b60606118f8612256565b905090565b60606040518060600160405280603681526020016136f060369139905090565b6000600860008473ffffffffffffffffffffffffffffffffffffffff1673ffffffffffffffffffffffffffffffffffffffff16815260200190815260200160002060008373ffffffffffffffffffffffffffffffffffffffff1673ffffffffffffffffffffffffffffffffffffffff16815260200190815260200160002060009054906101000a900460ff16905092915050565b6119b9611ac0565b600073ffffffffffffffffffffffffffffffffffffffff168173ffffffffffffffffffffffffffffffffffffffff1603611a28576040517f08c379a0000000000000000000000000000000000000000000000000000000008152600401611a1f90613551565b60405180910390fd5b611a3181611f63565b50565b611a3c611ac0565b80600f60006101000a81548160ff02191690831515021790555050565b600081611a64611b3e565b11158015611a73575060015482105b8015611ab1575060007c0100000000000000000000000000000000000000000000000000000000600560008581526020019081526020016000205416145b9050919050565b600033905090565b611ac8612344565b73ffffffffffffffffffffffffffffffffffffffff16611ae661125c565b73ffffffffffffffffffffffffffffffffffffffff1614611b3c576040517f08c379a0000000000000000000000000000000000000000000000000000000008152600401611b33906135bd565b60405180910390fd5b565b60006001905090565b6000611b5282611e97565b90508373ffffffffffffffffffffffffffffffffffffffff168173ffffffffffffffffffffffffffffffffffffffff1614611bb9576040517fa114810000000000000000000000000000000000000000000000000000000000815260040160405180910390fd5b600080611bc58461234c565b91509150611bdb8187611bd6611ab8565b612373565b611c2757611bf086611beb611ab8565b61191d565b611c26576040517f59c896be00000000000000000000000000000000000000000000000000000000815260040160405180910390fd5b5b600073ffffffffffffffffffffffffffffffffffffffff168573ffffffffffffffffffffffffffffffffffffffff1603611c8d576040517fea553b3400000000000000000000000000000000000000000000000000000000815260040160405180910390fd5b611c9a86868660016123b7565b8015611ca557600082555b600660008773ffffffffffffffffffffffffffffffffffffffff1673ffffffffffffffffffffffffffffffffffffffff168152602001908152602001600020600081546001900391905081905550600660008673ffffffffffffffffffffffffffffffffffffffff1673ffffffffffffffffffffffffffffffffffffffff1681526020019081526020016000206000815460010191905081905550611d7385611d4f8888876123bd565b7c0200000000000000000000000000000000000000000000000000000000176123e5565b600560008681526020019081526020016000208190555060007c0200000000000000000000000000000000000000000000000000000000841603611df95760006001850190506000600560008381526020019081526020016000205403611df7576001548114611df6578360056000838152602001908152602001600020819055505b5b505b838573ffffffffffffffffffffffffffffffffffffffff168773ffffffffffffffffffffffffffffffffffffffff167fddf252ad1be2c89b69c2b068fc378daa952ba7f163c4a11628f55a4df523b3ef60405160405180910390a4611e618686866001612410565b505050505050565b611e848383836040518060200160405280600081525061164c565b505050565b611e94816000612416565b50565b60008082905080611ea6611b3e565b11611f2c57600154811015611f2b5760006005600083815260200190815260200160002054905060007c0100000000000000000000000000000000000000000000000000000000821603611f29575b60008103611f1f576005600083600190039350838152602001908152602001600020549050611ef5565b8092505050611f5e565b505b5b6040517fdf2d9b4200000000000000000000000000000000000000000000000000000000815260040160405180910390fd5b919050565b60008060009054906101000a900473ffffffffffffffffffffffffffffffffffffffff169050816000806101000a81548173ffffffffffffffffffffffffffffffffffffffff021916908373ffffffffffffffffffffffffffffffffffffffff1602179055508173ffffffffffffffffffffffffffffffffffffffff168173ffffffffffffffffffffffffffffffffffffffff167f8be0079c531659141344cd1fd0a4f28419497f9722a3daafe3b4186f6b6457e060405160405180910390a35050565b6000600154905060008203612068576040517fb562e8dd00000000000000000000000000000000000000000000000000000000815260040160405180910390fd5b61207560008483856123b7565b600160406001901b178202600660008573ffffffffffffffffffffffffffffffffffffffff1673ffffffffffffffffffffffffffffffffffffffff168152602001908152602001600020600082825401925050819055506120ec836120dd60008660006123bd565b6120e685612668565b176123e5565b6005600083815260200190815260200160002081905550600080838301905073ffffffffffffffffffffffffffffffffffffffff85169150828260007fddf252ad1be2c89b69c2b068fc378daa952ba7f163c4a11628f55a4df523b3ef600080a4600183015b81811461218d57808360007fddf252ad1be2c89b69c2b068fc378daa952ba7f163c4a11628f55a4df523b3ef600080a4600181019050612152565b50600082036121c8576040517f2e07630000000000000000000000000000000000000000000000000000000000815260040160405180910390fd5b8060018190555050506121de6000848385612410565b505050565b6121ee848484610b19565b60008373ffffffffffffffffffffffffffffffffffffffff163b146122505761221984848484612678565b61224f576040517fd1a57ed600000000000000000000000000000000000000000000000000000000815260040160405180910390fd5b5b50505050565b606060405180606001604052806036815260200161372660369139905090565b606060006001612285846127c8565b01905060008167ffffffffffffffff8111156122a4576122a3612cf9565b5b6040519080825280601f01601f1916602001820160405280156122d65781602001600182028036833780820191505090505b509050600082602001820190505b600115612339578080600190039150507f3031323334353637383961626364656600000000000000000000000000000000600a86061a8153600a858161232d5761232c6135dd565b5b049450600085036122e4575b819350505050919050565b600033905090565b60008060006007600085815260200190815260200160002090508092508254915050915091565b600073ffffffffffffffffffffffffffffffffffffffff8316925073ffffffffffffffffffffffffffffffffffffffff821691508382148383141790509392505050565b50505050565b60008060e883901c905060e86123d486868461291b565b62ffffff16901b9150509392505050565b600073ffffffffffffffffffffffffffffffffffffffff83169250814260a01b178317905092915050565b50505050565b600061242183611e97565b905060008190506000806124348661234c565b91509150841561249d57612450818461244b611ab8565b612373565b61249c5761246583612460611ab8565b61191d565b61249b576040517f59c896be00000000000000000000000000000000000000000000000000000000815260040160405180910390fd5b5b5b6124ab8360008860016123b7565b80156124b657600082555b600160806001901b03600660008573ffffffffffffffffffffffffffffffffffffffff1673ffffffffffffffffffffffffffffffffffffffff1681526020019081526020016000206000828254019250508190555061255e8361251b856000886123bd565b7c02000000000000000000000000000000000000000000000000000000007c010000000000000000000000000000000000000000000000000000000017176123e5565b600560008881526020019081526020016000208190555060007c02000000000000000000000000000000000000000000000000000000008516036125e457600060018701905060006005600083815260200190815260200160002054036125e25760015481146125e1578460056000838152602001908152602001600020819055505b5b505b85600073ffffffffffffffffffffffffffffffffffffffff168473ffffffffffffffffffffffffffffffffffffffff167fddf252ad1be2c89b69c2b068fc378daa952ba7f163c4a11628f55a4df523b3ef60405160405180910390a461264e836000886001612410565b600260008154809291906001019190505550505050505050565b60006001821460e11b9050919050565b60008373ffffffffffffffffffffffffffffffffffffffff1663150b7a0261269e611ab8565b8786866040518563ffffffff1660e01b81526004016126c09493929190613661565b6020604051808303816000875af19250505080156126fc57506040513d601f19601f820116820180604052508101906126f991906136c2565b60015b612775573d806000811461272c576040519150601f19603f3d011682016040523d82523d6000602084013e612731565b606091505b50600081510361276d576040517fd1a57ed600000000000000000000000000000000000000000000000000000000815260040160405180910390fd5b805181602001fd5b63150b7a0260e01b7bffffffffffffffffffffffffffffffffffffffffffffffffffffffff1916817bffffffffffffffffffffffffffffffffffffffffffffffffffffffff191614915050949350505050565b600080600090507a184f03e93ff9f4daa797ed6e38ed64bf6a1f0100000000000000008310612826577a184f03e93ff9f4daa797ed6e38ed64bf6a1f010000000000000000838161281c5761281b6135dd565b5b0492506040810190505b6d04ee2d6d415b85acef81000000008310612863576d04ee2d6d415b85acef81000000008381612859576128586135dd565b5b0492506020810190505b662386f26fc10000831061289257662386f26fc100008381612888576128876135dd565b5b0492506010810190505b6305f5e10083106128bb576305f5e10083816128b1576128b06135dd565b5b0492506008810190505b61271083106128e05761271083816128d6576128d56135dd565b5b0492506004810190505b6064831061290357606483816128f9576128f86135dd565b5b0492506002810190505b600a8310612912576001810190505b80915050919050565b60009392505050565b6000604051905090565b600080fd5b600080fd5b60007fffffffff0000000000000000000000000000000000000000000000000000000082169050919050565b61296d81612938565b811461297857600080fd5b50565b60008135905061298a81612964565b92915050565b6000602082840312156129a6576129a561292e565b5b60006129b48482850161297b565b91505092915050565b60008115159050919050565b6129d2816129bd565b82525050565b60006020820190506129ed60008301846129c9565b92915050565b600081519050919050565b600082825260208201905092915050565b60005b83811015612a2d578082015181840152602081019050612a12565b83811115612a3c576000848401525b50505050565b6000601f19601f8301169050919050565b6000612a5e826129f3565b612a6881856129fe565b9350612a78818560208601612a0f565b612a8181612a42565b840191505092915050565b60006020820190508181036000830152612aa68184612a53565b905092915050565b6000819050919050565b612ac181612aae565b8114612acc57600080fd5b50565b600081359050612ade81612ab8565b92915050565b600060208284031215612afa57612af961292e565b5b6000612b0884828501612acf565b91505092915050565b600073ffffffffffffffffffffffffffffffffffffffff82169050919050565b6000612b3c82612b11565b9050919050565b612b4c81612b31565b82525050565b6000602082019050612b676000830184612b43565b92915050565b612b7681612b31565b8114612b8157600080fd5b50565b600081359050612b9381612b6d565b92915050565b60008060408385031215612bb057612baf61292e565b5b6000612bbe85828601612b84565b9250506020612bcf85828601612acf565b9150509250929050565b612be281612aae565b82525050565b6000602082019050612bfd6000830184612bd9565b92915050565b600080600060608486031215612c1c57612c1b61292e565b5b6000612c2a86828701612b84565b9350506020612c3b86828701612b84565b9250506040612c4c86828701612acf565b9150509250925092565b600060208284031215612c6c57612c6b61292e565b5b6000612c7a84828501612b84565b91505092915050565b612c8c816129bd565b8114612c9757600080fd5b50565b600081359050612ca981612c83565b92915050565b60008060408385031215612cc657612cc561292e565b5b6000612cd485828601612b84565b9250506020612ce585828601612c9a565b9150509250929050565b600080fd5b600080fd5b7f4e487b7100000000000000000000000000000000000000000000000000000000600052604160045260246000fd5b612d3182612a42565b810181811067ffffffffffffffff82111715612d5057612d4f612cf9565b5b80604052505050565b6000612d63612924565b9050612d6f8282612d28565b919050565b600067ffffffffffffffff821115612d8f57612d8e612cf9565b5b612d9882612a42565b9050602081019050919050565b82818337600083830152505050565b6000612dc7612dc284612d74565b612d59565b905082815260208101848484011115612de357612de2612cf4565b5b612dee848285612da5565b509392505050565b600082601f830112612e0b57612e0a612cef565b5b8135612e1b848260208601612db4565b91505092915050565b60008060008060808587031215612e3e57612e3d61292e565b5b6000612e4c87828801612b84565b9450506020612e5d87828801612b84565b9350506040612e6e87828801612acf565b925050606085013567ffffffffffffffff811115612e8f57612e8e612933565b5b612e9b87828801612df6565b91505092959194509250565b60008060408385031215612ebe57612ebd61292e565b5b6000612ecc85828601612b84565b9250506020612edd85828601612b84565b9150509250929050565b600060208284031215612efd57612efc61292e565b5b6000612f0b84828501612c9a565b91505092915050565b7f4e487b7100000000000000000000000000000000000000000000000000000000600052602260045260246000fd5b60006002820490506001821680612f5b57607f821691505b602082108103612f6e57612f6d612f14565b5b50919050565b6000604082019050612f896000830185612b43565b612f966020830184612b43565b9392505050565b600081519050612fac81612c83565b92915050565b600060208284031215612fc857612fc761292e565b5b6000612fd684828501612f9d565b91505092915050565b7f596f7520646f6e277420686176652074686520726967687420746f206275726e60008201527f2074686973204e46540000000000000000000000000000000000000000000000602082015250565b600061303b6029836129fe565b915061304682612fdf565b604082019050919050565b6000602082019050818103600083015261306a8161302e565b9050919050565b7f4e487b7100000000000000000000000000000000000000000000000000000000600052601160045260246000fd5b60006130ab82612aae565b91506130b683612aae565b9250827fffffffffffffffffffffffffffffffffffffffffffffffffffffffffffffffff038211156130eb576130ea613071565b5b828201905092915050565b7f4d696e74696e67206973206e6f7420656e61626c656400000000000000000000600082015250565b600061312c6016836129fe565b9150613137826130f6565b602082019050919050565b6000602082019050818103600083015261315b8161311f565b9050919050565b7f43616e6e6f74206d696e74206d6f7265207468616e206d617820737570706c79600082015250565b60006131986020836129fe565b91506131a382613162565b602082019050919050565b600060208201905081810360008301526131c78161318b565b9050919050565b7f456163682061646472657373206d6179206f6e6c79206d696e742078204e465460008201527f7321000000000000000000000000000000000000000000000000000000000000602082015250565b600061322a6022836129fe565b9150613235826131ce565b604082019050919050565b600060208201905081810360008301526132598161321d565b9050919050565b600061326b82612aae565b915061327683612aae565b9250817fffffffffffffffffffffffffffffffffffffffffffffffffffffffffffffffff04831182151516156132af576132ae613071565b5b828202905092915050565b7f4e6f7420656e6f756768204554482073656e743b20636865636b20707269636560008201527f2100000000000000000000000000000000000000000000000000000000000000602082015250565b60006133166021836129fe565b9150613321826132ba565b604082019050919050565b6000602082019050818103600083015261334581613309565b9050919050565b7f4552433732314d657461646174613a2055524920717565727920666f72206e6f60008201527f6e6578697374656e7420746f6b656e0000000000000000000000000000000000602082015250565b60006133a8602f836129fe565b91506133b38261334c565b604082019050919050565b600060208201905081810360008301526133d78161339b565b9050919050565b600081905092915050565b60006133f4826129f3565b6133fe81856133de565b935061340e818560208601612a0f565b80840191505092915050565b60008190508160005260206000209050919050565b6000815461343c81612f43565b61344681866133de565b945060018216600081146134615760018114613472576134a5565b60ff198316865281860193506134a5565b61347b8561341a565b60005b8381101561349d5781548189015260018201915060208101905061347e565b838801955050505b50505092915050565b60006134ba82866133e9565b91506134c682856133e9565b91506134d2828461342f565b9150819050949350505050565b7f4f776e61626c653a206e6577206f776e657220697320746865207a65726f206160008201527f6464726573730000000000000000000000000000000000000000000000000000602082015250565b600061353b6026836129fe565b9150613546826134df565b604082019050919050565b6000602082019050818103600083015261356a8161352e565b9050919050565b7f4f776e61626c653a2063616c6c6572206973206e6f7420746865206f776e6572600082015250565b60006135a76020836129fe565b91506135b282613571565b602082019050919050565b600060208201905081810360008301526135d68161359a565b9050919050565b7f4e487b7100000000000000000000000000000000000000000000000000000000600052601260045260246000fd5b600081519050919050565b600082825260208201905092915050565b60006136338261360c565b61363d8185613617565b935061364d818560208601612a0f565b61365681612a42565b840191505092915050565b60006080820190506136766000830187612b43565b6136836020830186612b43565b6136906040830185612bd9565b81810360608301526136a28184613628565b905095945050505050565b6000815190506136bc81612964565b92915050565b6000602082840312156136d8576136d761292e565b5b60006136e6848285016136ad565b9150509291505056fe697066733a2f2f516d51797a54353771616873475932717036665a3347315445557a6369446d413778635061697953315173774c722f697066733a2f2f516d5a6e584762586770424e6a414a6161616f5773483556596f544e6b566770566d62706746586e5455795135642fa2646970667358221220e0285c285ac9219701d05c46d74eb419e14bdf301b534dbbaeb18ba2b90906bb64736f6c634300080d0033",
  "linkReferences": {},
  "deployedLinkReferences": {}
}