{
  "_format": "hh-sol-artifact-1",
  "contractName": "NFTStaker",
  "sourceName": "src/backend/contracts/NFTStaker.sol",
  "abi": [
    {
      "inputs": [
        {
          "internalType": "address",
          "name": "_nftAddress",
          "type": "address"
        },
        {
          "internalType": "address",
          "name": "_wolfAddress",
          "type": "address"
        }
      ],
      "stateMutability": "nonpayable",
      "type": "constructor"
    },
    {
      "anonymous": false,
      "inputs": [
        {
          "indexed": true,
          "internalType": "address",
          "name": "previousOwner",
          "type": "address"
        },
        {
          "indexed": true,
          "internalType": "address",
          "name": "newOwner",
          "type": "address"
        }
      ],
      "name": "OwnershipTransferred",
      "type": "event"
    },
    {
      "anonymous": false,
      "inputs": [
        {
          "indexed": false,
          "internalType": "address",
          "name": "user",
          "type": "address"
        },
        {
          "indexed": false,
          "internalType": "uint256",
          "name": "tokenId",
          "type": "uint256"
        },
        {
          "indexed": false,
          "internalType": "uint256",
          "name": "timestamp",
          "type": "uint256"
        }
      ],
      "name": "StakeSuccessful",
      "type": "event"
    },
    {
      "anonymous": false,
      "inputs": [
        {
          "indexed": false,
          "internalType": "address",
          "name": "user",
          "type": "address"
        },
        {
          "indexed": false,
          "internalType": "uint256",
          "name": "tokenId",
          "type": "uint256"
        },
        {
          "indexed": false,
          "internalType": "uint256",
          "name": "reward",
          "type": "uint256"
        }
      ],
      "name": "UnstakeSuccessful",
      "type": "event"
    },
    {
      "inputs": [
        {
          "internalType": "uint256",
          "name": "",
          "type": "uint256"
        }
      ],
      "name": "durations",
      "outputs": [
        {
          "internalType": "uint256",
          "name": "daysCount",
          "type": "uint256"
        },
        {
          "internalType": "uint256",
          "name": "taleflyCount",
          "type": "uint256"
        },
        {
          "internalType": "uint256",
          "name": "rewardCount",
          "type": "uint256"
        }
      ],
      "stateMutability": "view",
      "type": "function"
    },
    {
      "inputs": [
        {
          "internalType": "uint256",
          "name": "_tokenId",
          "type": "uint256"
        }
      ],
      "name": "feedGoose",
      "outputs": [],
      "stateMutability": "nonpayable",
      "type": "function"
    },
    {
      "inputs": [
        {
          "internalType": "address",
          "name": "_user",
          "type": "address"
        }
      ],
      "name": "getStakedDurations",
      "outputs": [
        {
          "internalType": "uint256[]",
          "name": "",
          "type": "uint256[]"
        }
      ],
      "stateMutability": "view",
      "type": "function"
    },
    {
      "inputs": [
        {
          "internalType": "address",
          "name": "_user",
          "type": "address"
        }
      ],
      "name": "getStakedTaleflyUsed",
      "outputs": [
        {
          "internalType": "bool[]",
          "name": "",
          "type": "bool[]"
        }
      ],
      "stateMutability": "view",
      "type": "function"
    },
    {
      "inputs": [
        {
          "internalType": "address",
          "name": "_user",
          "type": "address"
        }
      ],
      "name": "getStakedTimestamps",
      "outputs": [
        {
          "internalType": "uint256[]",
          "name": "",
          "type": "uint256[]"
        }
      ],
      "stateMutability": "view",
      "type": "function"
    },
    {
      "inputs": [
        {
          "internalType": "address",
          "name": "_user",
          "type": "address"
        }
      ],
      "name": "getStakedTokens",
      "outputs": [
        {
          "internalType": "uint256[]",
          "name": "",
          "type": "uint256[]"
        }
      ],
      "stateMutability": "view",
      "type": "function"
    },
    {
      "inputs": [
        {
          "internalType": "uint256",
          "name": "_tokenId",
          "type": "uint256"
        }
      ],
      "name": "isTokenStaked",
      "outputs": [
        {
          "internalType": "bool",
          "name": "",
          "type": "bool"
        }
      ],
      "stateMutability": "view",
      "type": "function"
    },
    {
      "inputs": [
        {
          "internalType": "address",
          "name": "",
          "type": "address"
        },
        {
          "internalType": "address",
          "name": "",
          "type": "address"
        },
        {
          "internalType": "uint256",
          "name": "",
          "type": "uint256"
        },
        {
          "internalType": "bytes",
          "name": "",
          "type": "bytes"
        }
      ],
      "name": "onERC721Received",
      "outputs": [
        {
          "internalType": "bytes4",
          "name": "",
          "type": "bytes4"
        }
      ],
      "stateMutability": "nonpayable",
      "type": "function"
    },
    {
      "inputs": [],
      "name": "owner",
      "outputs": [
        {
          "internalType": "address",
          "name": "",
          "type": "address"
        }
      ],
      "stateMutability": "view",
      "type": "function"
    },
    {
      "inputs": [],
      "name": "parentNFT",
      "outputs": [
        {
          "internalType": "contract ERC721A",
          "name": "",
          "type": "address"
        }
      ],
      "stateMutability": "view",
      "type": "function"
    },
    {
      "inputs": [],
      "name": "renounceOwnership",
      "outputs": [],
      "stateMutability": "nonpayable",
      "type": "function"
    },
    {
      "inputs": [
        {
          "internalType": "address",
          "name": "_tokenAddress",
          "type": "address"
        }
      ],
      "name": "setTokenAddress",
      "outputs": [],
      "stateMutability": "nonpayable",
      "type": "function"
    },
    {
      "inputs": [
        {
          "internalType": "uint256",
          "name": "_tokenId",
          "type": "uint256"
        },
        {
          "internalType": "uint256",
          "name": "_duration",
          "type": "uint256"
        },
        {
          "internalType": "bool",
          "name": "_useTalefly",
          "type": "bool"
        }
      ],
      "name": "stake",
      "outputs": [],
      "stateMutability": "nonpayable",
      "type": "function"
    },
    {
      "inputs": [],
      "name": "taleToken",
      "outputs": [
        {
          "internalType": "contract ERC20",
          "name": "",
          "type": "address"
        }
      ],
      "stateMutability": "view",
      "type": "function"
    },
    {
      "inputs": [
        {
          "internalType": "uint256",
          "name": "",
          "type": "uint256"
        }
      ],
      "name": "tokenFed",
      "outputs": [
        {
          "internalType": "address",
          "name": "",
          "type": "address"
        }
      ],
      "stateMutability": "view",
      "type": "function"
    },
    {
      "inputs": [
        {
          "internalType": "address",
          "name": "newOwner",
          "type": "address"
        }
      ],
      "name": "transferOwnership",
      "outputs": [],
      "stateMutability": "nonpayable",
      "type": "function"
    },
    {
      "inputs": [
        {
          "internalType": "uint256",
          "name": "_tokenId",
          "type": "uint256"
        }
      ],
      "name": "unstake",
      "outputs": [],
      "stateMutability": "nonpayable",
      "type": "function"
    },
    {
      "inputs": [],
      "name": "withdrawTalefly",
      "outputs": [],
      "stateMutability": "nonpayable",
      "type": "function"
    },
    {
      "inputs": [],
      "name": "wolfAddress",
      "outputs": [
        {
          "internalType": "address",
          "name": "",
          "type": "address"
        }
      ],
      "stateMutability": "view",
      "type": "function"
    }
  ],
  "bytecode": "0x60806040523480156200001157600080fd5b506040516200338238038062003382833981810160405281019062000037919062000332565b60016000819055506200005f62000053620001fa60201b60201c565b6200020260201b60201c565b81600260006101000a81548173ffffffffffffffffffffffffffffffffffffffff021916908373ffffffffffffffffffffffffffffffffffffffff16021790555080600460006101000a81548173ffffffffffffffffffffffffffffffffffffffff021916908373ffffffffffffffffffffffffffffffffffffffff160217905550604051806060016040528060078152602001600581526020016007815250600560006003811062000117576200011662000379565b5b600302016000820151816000015560208201518160010155604082015181600201559050506040518060600160405280601e8152602001600f81526020016023815250600560016003811062000172576200017162000379565b5b600302016000820151816000015560208201518160010155604082015181600201559050506040518060600160405280603c81526020016019815260200160508152506005600260038110620001cd57620001cc62000379565b5b600302016000820151816000015560208201518160010155604082015181600201559050505050620003a8565b600033905090565b6000600160009054906101000a900473ffffffffffffffffffffffffffffffffffffffff16905081600160006101000a81548173ffffffffffffffffffffffffffffffffffffffff021916908373ffffffffffffffffffffffffffffffffffffffff1602179055508173ffffffffffffffffffffffffffffffffffffffff168173ffffffffffffffffffffffffffffffffffffffff167f8be0079c531659141344cd1fd0a4f28419497f9722a3daafe3b4186f6b6457e060405160405180910390a35050565b600080fd5b600073ffffffffffffffffffffffffffffffffffffffff82169050919050565b6000620002fa82620002cd565b9050919050565b6200030c81620002ed565b81146200031857600080fd5b50565b6000815190506200032c8162000301565b92915050565b600080604083850312156200034c576200034b620002c8565b5b60006200035c858286016200031b565b92505060206200036f858286016200031b565b9150509250929050565b7f4e487b7100000000000000000000000000000000000000000000000000000000600052603260045260246000fd5b612fca80620003b86000396000f3fe608060405234801561001057600080fd5b50600436106101215760003560e01c80638709cce6116100ad578063bc20a7af11610071578063bc20a7af146102f6578063c8add21014610328578063e692b56614610358578063f0a5242414610374578063f2fde38b146103a457610121565b80638709cce61461023c5780638da5cb5b1461025a578063a04ebd4b14610278578063a672b9c0146102a8578063b8e33fb2146102d857610121565b80632e17de78116100f45780632e17de78146101ac578063561b2463146101c85780635e82f7e9146101e457806363c28db114610202578063715018a61461023257610121565b80630435362914610126578063150b7a021461015657806326a4e8d2146101865780632aab942f146101a2575b600080fd5b610140600480360381019061013b91906121ca565b6103c0565b60405161014d91906122bf565b60405180910390f35b610170600480360381019061016b9190612453565b61045a565b60405161017d9190612511565b60405180910390f35b6101a0600480360381019061019b91906121ca565b61046e565b005b6101aa6104ba565b005b6101c660048036038101906101c1919061252c565b610600565b005b6101e260048036038101906101dd9190612591565b610bdd565b005b6101ec611260565b6040516101f99190612643565b60405180910390f35b61021c600480360381019061021791906121ca565b611286565b60405161022991906122bf565b60405180910390f35b61023a611320565b005b610244611334565b604051610251919061266d565b60405180910390f35b61026261135a565b60405161026f919061266d565b60405180910390f35b610292600480360381019061028d91906121ca565b611384565b60405161029f91906122bf565b60405180910390f35b6102c260048036038101906102bd919061252c565b61141e565b6040516102cf919061266d565b60405180910390f35b6102e0611451565b6040516102ed91906126a9565b60405180910390f35b610310600480360381019061030b919061252c565b611477565b60405161031f939291906126d3565b60405180910390f35b610342600480360381019061033d91906121ca565b6114a7565b60405161034f91906127c8565b60405180910390f35b610372600480360381019061036d919061252c565b611566565b005b61038e6004803603810190610389919061252c565b6116c4565b60405161039b91906127f9565b60405180910390f35b6103be60048036038101906103b991906121ca565b6117a9565b005b6060600f60008373ffffffffffffffffffffffffffffffffffffffff1673ffffffffffffffffffffffffffffffffffffffff16815260200190815260200160002060020180548060200260200160405190810160405280929190818152602001828054801561044e57602002820191906000526020600020905b81548152602001906001019080831161043a575b50505050509050919050565b600063150b7a0260e01b9050949350505050565b61047661182c565b80600360006101000a81548173ffffffffffffffffffffffffffffffffffffffff021916908373ffffffffffffffffffffffffffffffffffffffff16021790555050565b6104c261182c565b600360009054906101000a900473ffffffffffffffffffffffffffffffffffffffff1673ffffffffffffffffffffffffffffffffffffffff1663a9059cbb33600360009054906101000a900473ffffffffffffffffffffffffffffffffffffffff1673ffffffffffffffffffffffffffffffffffffffff166370a08231306040518263ffffffff1660e01b815260040161055c919061266d565b602060405180830381865afa158015610579573d6000803e3d6000fd5b505050506040513d601f19601f8201168201806040525081019061059d9190612829565b6040518363ffffffff1660e01b81526004016105ba929190612856565b6020604051808303816000875af11580156105d9573d6000803e3d6000fd5b505050506040513d601f19601f820116820180604052508101906105fd9190612894565b50565b6106086118aa565b6000600f60003373ffffffffffffffffffffffffffffffffffffffff1673ffffffffffffffffffffffffffffffffffffffff168152602001908152602001600020604051806080016040529081600082018054806020026020016040519081016040528092919081815260200182805480156106a357602002820191906000526020600020905b81548152602001906001019080831161068f575b50505050508152602001600182018054806020026020016040519081016040528092919081815260200182805480156106fb57602002820191906000526020600020905b8154815260200190600101908083116106e7575b505050505081526020016002820180548060200260200160405190810160405280929190818152602001828054801561075357602002820191906000526020600020905b81548152602001906001019080831161073f575b50505050508152602001600382018054806020026020016040519081016040528092919081815260200182805480156107d057602002820191906000526020600020906000905b82829054906101000a900460ff1615158152602001906001019060208260000104928301926001038202915080841161079a5790505b50505050508152505090506000806107e884336118f9565b915091508061082c576040517f08c379a00000000000000000000000000000000000000000000000000000000081526004016108239061291e565b60405180910390fd5b620151806005846040015184815181106108495761084861293e565b5b6020026020010151600381106108625761086161293e565b5b6003020160000154610874919061299c565b8360200151838151811061088b5761088a61293e565b5b602002602001015161089d91906129f6565b42116108de576040517f08c379a00000000000000000000000000000000000000000000000000000000081526004016108d590612abe565b60405180910390fd5b826060015182815181106108f5576108f461293e565b5b602002602001015161093c576040517f08c379a000000000000000000000000000000000000000000000000000000000815260040161093390612b2a565b60405180910390fd5b600260009054906101000a900473ffffffffffffffffffffffffffffffffffffffff1673ffffffffffffffffffffffffffffffffffffffff166342842e0e3033876040518463ffffffff1660e01b815260040161099b93929190612b4a565b600060405180830381600087803b1580156109b557600080fd5b505af11580156109c9573d6000803e3d6000fd5b5050505060006005846040015184815181106109e8576109e761293e565b5b602002602001015160038110610a0157610a0061293e565b5b600302016002015490503373ffffffffffffffffffffffffffffffffffffffff16600e600087815260200190815260200160002060009054906101000a900473ffffffffffffffffffffffffffffffffffffffff1673ffffffffffffffffffffffffffffffffffffffff1603610a8157600381610a7e919061299c565b90505b60011515600360009054906101000a900473ffffffffffffffffffffffffffffffffffffffff1673ffffffffffffffffffffffffffffffffffffffff1663a9059cbb33846040518363ffffffff1660e01b8152600401610ae2929190612856565b6020604051808303816000875af1158015610b01573d6000803e3d6000fd5b505050506040513d601f19601f82011682018060405250810190610b259190612894565b151503610b3b57610b363384611b3d565b610b40565b600080fd5b6000600e600087815260200190815260200160002060006101000a81548173ffffffffffffffffffffffffffffffffffffffff021916908373ffffffffffffffffffffffffffffffffffffffff1602179055507f385f74ea359bd3473219eab4b703a673523551cc58869e7d2e22b7fec435d0d3338683604051610bc693929190612b81565b60405180910390a150505050610bda612080565b50565b610be56118aa565b3373ffffffffffffffffffffffffffffffffffffffff16600260009054906101000a900473ffffffffffffffffffffffffffffffffffffffff1673ffffffffffffffffffffffffffffffffffffffff16636352211e856040518263ffffffff1660e01b8152600401610c579190612bb8565b602060405180830381865afa158015610c74573d6000803e3d6000fd5b505050506040513d601f19601f82011682018060405250810190610c989190612be8565b73ffffffffffffffffffffffffffffffffffffffff1614610cee576040517f08c379a0000000000000000000000000000000000000000000000000000000008152600401610ce590612c61565b60405180910390fd5b60008210158015610cff5750600382105b610d3e576040517f08c379a0000000000000000000000000000000000000000000000000000000008152600401610d3590612ccd565b60405180910390fd5b8015610fa55760058260038110610d5857610d5761293e565b5b6003020160010154600360009054906101000a900473ffffffffffffffffffffffffffffffffffffffff1673ffffffffffffffffffffffffffffffffffffffff166370a08231336040518263ffffffff1660e01b8152600401610dbb919061266d565b602060405180830381865afa158015610dd8573d6000803e3d6000fd5b505050506040513d601f19601f82011682018060405250810190610dfc9190612829565b1015610e3d576040517f08c379a0000000000000000000000000000000000000000000000000000000008152600401610e3490612d5f565b60405180910390fd5b60011515600360009054906101000a900473ffffffffffffffffffffffffffffffffffffffff1673ffffffffffffffffffffffffffffffffffffffff166323b872dd333060058760038110610e9557610e9461293e565b5b60030201600101546040518463ffffffff1660e01b8152600401610ebb93929190612b4a565b6020604051808303816000875af1158015610eda573d6000803e3d6000fd5b505050506040513d601f19601f82011682018060405250810190610efe9190612894565b151503610f9b57600260009054906101000a900473ffffffffffffffffffffffffffffffffffffffff1673ffffffffffffffffffffffffffffffffffffffff166342842e0e3330866040518463ffffffff1660e01b8152600401610f6493929190612b4a565b600060405180830381600087803b158015610f7e57600080fd5b505af1158015610f92573d6000803e3d6000fd5b50505050610fa0565b600080fd5b611059565b600260009054906101000a900473ffffffffffffffffffffffffffffffffffffffff1673ffffffffffffffffffffffffffffffffffffffff166342842e0e33600460009054906101000a900473ffffffffffffffffffffffffffffffffffffffff16866040518463ffffffff1660e01b815260040161102693929190612b4a565b600060405180830381600087803b15801561104057600080fd5b505af1158015611054573d6000803e3d6000fd5b505050505b600f60003373ffffffffffffffffffffffffffffffffffffffff1673ffffffffffffffffffffffffffffffffffffffff168152602001908152602001600020600001839080600181540180825580915050600190039060005260206000200160009091909190915055600f60003373ffffffffffffffffffffffffffffffffffffffff1673ffffffffffffffffffffffffffffffffffffffff168152602001908152602001600020600101429080600181540180825580915050600190039060005260206000200160009091909190915055600f60003373ffffffffffffffffffffffffffffffffffffffff1673ffffffffffffffffffffffffffffffffffffffff168152602001908152602001600020600201829080600181540180825580915050600190039060005260206000200160009091909190915055600f60003373ffffffffffffffffffffffffffffffffffffffff1673ffffffffffffffffffffffffffffffffffffffff1681526020019081526020016000206003018190806001815401808255809150506001900390600052602060002090602091828204019190069091909190916101000a81548160ff0219169083151502179055507f37abc30d0dfe643dbd2e840e90b3f428f4bba7e3ef3d401fd00295aba923569733844260405161124b93929190612b81565b60405180910390a161125b612080565b505050565b600360009054906101000a900473ffffffffffffffffffffffffffffffffffffffff1681565b6060600f60008373ffffffffffffffffffffffffffffffffffffffff1673ffffffffffffffffffffffffffffffffffffffff16815260200190815260200160002060000180548060200260200160405190810160405280929190818152602001828054801561131457602002820191906000526020600020905b815481526020019060010190808311611300575b50505050509050919050565b61132861182c565b611332600061208a565b565b600460009054906101000a900473ffffffffffffffffffffffffffffffffffffffff1681565b6000600160009054906101000a900473ffffffffffffffffffffffffffffffffffffffff16905090565b6060600f60008373ffffffffffffffffffffffffffffffffffffffff1673ffffffffffffffffffffffffffffffffffffffff16815260200190815260200160002060010180548060200260200160405190810160405280929190818152602001828054801561141257602002820191906000526020600020905b8154815260200190600101908083116113fe575b50505050509050919050565b600e6020528060005260406000206000915054906101000a900473ffffffffffffffffffffffffffffffffffffffff1681565b600260009054906101000a900473ffffffffffffffffffffffffffffffffffffffff1681565b6005816003811061148757600080fd5b600302016000915090508060000154908060010154908060020154905083565b6060600f60008373ffffffffffffffffffffffffffffffffffffffff1673ffffffffffffffffffffffffffffffffffffffff16815260200190815260200160002060030180548060200260200160405190810160405280929190818152602001828054801561155a57602002820191906000526020600020906000905b82829054906101000a900460ff161515815260200190600101906020826000010492830192600103820291508084116115245790505b50505050509050919050565b3373ffffffffffffffffffffffffffffffffffffffff16600260009054906101000a900473ffffffffffffffffffffffffffffffffffffffff1673ffffffffffffffffffffffffffffffffffffffff16636352211e836040518263ffffffff1660e01b81526004016115d89190612bb8565b602060405180830381865afa1580156115f5573d6000803e3d6000fd5b505050506040513d601f19601f820116820180604052508101906116199190612be8565b73ffffffffffffffffffffffffffffffffffffffff161461166f576040517f08c379a000000000000000000000000000000000000000000000000000000000815260040161166690612c61565b60405180910390fd5b33600e600083815260200190815260200160002060006101000a81548173ffffffffffffffffffffffffffffffffffffffff021916908373ffffffffffffffffffffffffffffffffffffffff16021790555050565b600080600f60003373ffffffffffffffffffffffffffffffffffffffff1673ffffffffffffffffffffffffffffffffffffffff16815260200190815260200160002060000180549050905060005b8181101561179d5783600f60003373ffffffffffffffffffffffffffffffffffffffff1673ffffffffffffffffffffffffffffffffffffffff168152602001908152602001600020600001828154811061176f5761176e61293e565b5b90600052602060002001540361178a576001925050506117a4565b808061179590612d7f565b915050611712565b5060009150505b919050565b6117b161182c565b600073ffffffffffffffffffffffffffffffffffffffff168173ffffffffffffffffffffffffffffffffffffffff1603611820576040517f08c379a000000000000000000000000000000000000000000000000000000000815260040161181790612e39565b60405180910390fd5b6118298161208a565b50565b611834612150565b73ffffffffffffffffffffffffffffffffffffffff1661185261135a565b73ffffffffffffffffffffffffffffffffffffffff16146118a8576040517f08c379a000000000000000000000000000000000000000000000000000000000815260040161189f90612ea5565b60405180910390fd5b565b6002600054036118ef576040517f08c379a00000000000000000000000000000000000000000000000000000000081526004016118e690612f11565b60405180910390fd5b6002600081905550565b6000806000600f60008573ffffffffffffffffffffffffffffffffffffffff1673ffffffffffffffffffffffffffffffffffffffff1681526020019081526020016000206040518060800160405290816000820180548060200260200160405190810160405280929190818152602001828054801561199757602002820191906000526020600020905b815481526020019060010190808311611983575b50505050508152602001600182018054806020026020016040519081016040528092919081815260200182805480156119ef57602002820191906000526020600020905b8154815260200190600101908083116119db575b5050505050815260200160028201805480602002602001604051908101604052809291908181526020018280548015611a4757602002820191906000526020600020905b815481526020019060010190808311611a33575b5050505050815260200160038201805480602002602001604051908101604052809291908181526020018280548015611ac457602002820191906000526020600020906000905b82829054906101000a900460ff16151581526020019060010190602082600001049283019260010382029150808411611a8e5790505b50505050508152505090506000806000836000015151905060005b81811015611b2b578885600001518281518110611aff57611afe61293e565b5b602002602001015103611b185780935060019250611b2b565b8080611b2390612d7f565b915050611adf565b50828295509550505050509250929050565b60006001600f60008573ffffffffffffffffffffffffffffffffffffffff1673ffffffffffffffffffffffffffffffffffffffff16815260200190815260200160002060000180549050611b919190612f31565b9050600f60008473ffffffffffffffffffffffffffffffffffffffff1673ffffffffffffffffffffffffffffffffffffffff1681526020019081526020016000206001018181548110611be757611be661293e565b5b9060005260206000200154600f60008573ffffffffffffffffffffffffffffffffffffffff1673ffffffffffffffffffffffffffffffffffffffff1681526020019081526020016000206001018381548110611c4657611c4561293e565b5b9060005260206000200181905550600f60008473ffffffffffffffffffffffffffffffffffffffff1673ffffffffffffffffffffffffffffffffffffffff168152602001908152602001600020600101805480611ca657611ca5612f65565b5b60019003818190600052602060002001600090559055600f60008473ffffffffffffffffffffffffffffffffffffffff1673ffffffffffffffffffffffffffffffffffffffff1681526020019081526020016000206000018181548110611d1057611d0f61293e565b5b9060005260206000200154600f60008573ffffffffffffffffffffffffffffffffffffffff1673ffffffffffffffffffffffffffffffffffffffff1681526020019081526020016000206000018381548110611d6f57611d6e61293e565b5b9060005260206000200181905550600f60008473ffffffffffffffffffffffffffffffffffffffff1673ffffffffffffffffffffffffffffffffffffffff168152602001908152602001600020600001805480611dcf57611dce612f65565b5b60019003818190600052602060002001600090559055600f60008473ffffffffffffffffffffffffffffffffffffffff1673ffffffffffffffffffffffffffffffffffffffff1681526020019081526020016000206002018181548110611e3957611e3861293e565b5b9060005260206000200154600f60008573ffffffffffffffffffffffffffffffffffffffff1673ffffffffffffffffffffffffffffffffffffffff1681526020019081526020016000206002018381548110611e9857611e9761293e565b5b9060005260206000200181905550600f60008473ffffffffffffffffffffffffffffffffffffffff1673ffffffffffffffffffffffffffffffffffffffff168152602001908152602001600020600201805480611ef857611ef7612f65565b5b60019003818190600052602060002001600090559055600f60008473ffffffffffffffffffffffffffffffffffffffff1673ffffffffffffffffffffffffffffffffffffffff1681526020019081526020016000206003018181548110611f6257611f6161293e565b5b90600052602060002090602091828204019190069054906101000a900460ff16600f60008573ffffffffffffffffffffffffffffffffffffffff1673ffffffffffffffffffffffffffffffffffffffff1681526020019081526020016000206003018381548110611fd657611fd561293e565b5b90600052602060002090602091828204019190066101000a81548160ff021916908315150217905550600f60008473ffffffffffffffffffffffffffffffffffffffff1673ffffffffffffffffffffffffffffffffffffffff16815260200190815260200160002060030180548061205157612050612f65565b5b60019003818190600052602060002090602091828204019190066101000a81549060ff02191690559055505050565b6001600081905550565b6000600160009054906101000a900473ffffffffffffffffffffffffffffffffffffffff16905081600160006101000a81548173ffffffffffffffffffffffffffffffffffffffff021916908373ffffffffffffffffffffffffffffffffffffffff1602179055508173ffffffffffffffffffffffffffffffffffffffff168173ffffffffffffffffffffffffffffffffffffffff167f8be0079c531659141344cd1fd0a4f28419497f9722a3daafe3b4186f6b6457e060405160405180910390a35050565b600033905090565b6000604051905090565b600080fd5b600080fd5b600073ffffffffffffffffffffffffffffffffffffffff82169050919050565b60006121978261216c565b9050919050565b6121a78161218c565b81146121b257600080fd5b50565b6000813590506121c48161219e565b92915050565b6000602082840312156121e0576121df612162565b5b60006121ee848285016121b5565b91505092915050565b600081519050919050565b600082825260208201905092915050565b6000819050602082019050919050565b6000819050919050565b61223681612223565b82525050565b6000612248838361222d565b60208301905092915050565b6000602082019050919050565b600061226c826121f7565b6122768185612202565b935061228183612213565b8060005b838110156122b2578151612299888261223c565b97506122a483612254565b925050600181019050612285565b5085935050505092915050565b600060208201905081810360008301526122d98184612261565b905092915050565b6122ea81612223565b81146122f557600080fd5b50565b600081359050612307816122e1565b92915050565b600080fd5b600080fd5b6000601f19601f8301169050919050565b7f4e487b7100000000000000000000000000000000000000000000000000000000600052604160045260246000fd5b61236082612317565b810181811067ffffffffffffffff8211171561237f5761237e612328565b5b80604052505050565b6000612392612158565b905061239e8282612357565b919050565b600067ffffffffffffffff8211156123be576123bd612328565b5b6123c782612317565b9050602081019050919050565b82818337600083830152505050565b60006123f66123f1846123a3565b612388565b90508281526020810184848401111561241257612411612312565b5b61241d8482856123d4565b509392505050565b600082601f83011261243a5761243961230d565b5b813561244a8482602086016123e3565b91505092915050565b6000806000806080858703121561246d5761246c612162565b5b600061247b878288016121b5565b945050602061248c878288016121b5565b935050604061249d878288016122f8565b925050606085013567ffffffffffffffff8111156124be576124bd612167565b5b6124ca87828801612425565b91505092959194509250565b60007fffffffff0000000000000000000000000000000000000000000000000000000082169050919050565b61250b816124d6565b82525050565b60006020820190506125266000830184612502565b92915050565b60006020828403121561254257612541612162565b5b6000612550848285016122f8565b91505092915050565b60008115159050919050565b61256e81612559565b811461257957600080fd5b50565b60008135905061258b81612565565b92915050565b6000806000606084860312156125aa576125a9612162565b5b60006125b8868287016122f8565b93505060206125c9868287016122f8565b92505060406125da8682870161257c565b9150509250925092565b6000819050919050565b60006126096126046125ff8461216c565b6125e4565b61216c565b9050919050565b600061261b826125ee565b9050919050565b600061262d82612610565b9050919050565b61263d81612622565b82525050565b60006020820190506126586000830184612634565b92915050565b6126678161218c565b82525050565b6000602082019050612682600083018461265e565b92915050565b600061269382612610565b9050919050565b6126a381612688565b82525050565b60006020820190506126be600083018461269a565b92915050565b6126cd81612223565b82525050565b60006060820190506126e860008301866126c4565b6126f560208301856126c4565b61270260408301846126c4565b949350505050565b600081519050919050565b600082825260208201905092915050565b6000819050602082019050919050565b61273f81612559565b82525050565b60006127518383612736565b60208301905092915050565b6000602082019050919050565b60006127758261270a565b61277f8185612715565b935061278a83612726565b8060005b838110156127bb5781516127a28882612745565b97506127ad8361275d565b92505060018101905061278e565b5085935050505092915050565b600060208201905081810360008301526127e2818461276a565b905092915050565b6127f381612559565b82525050565b600060208201905061280e60008301846127ea565b92915050565b600081519050612823816122e1565b92915050565b60006020828403121561283f5761283e612162565b5b600061284d84828501612814565b91505092915050565b600060408201905061286b600083018561265e565b61287860208301846126c4565b9392505050565b60008151905061288e81612565565b92915050565b6000602082840312156128aa576128a9612162565b5b60006128b88482850161287f565b91505092915050565b600082825260208201905092915050565b7f496e646578206e6f7420666f756e6420666f722074686973207374616b65722e600082015250565b60006129086020836128c1565b9150612913826128d2565b602082019050919050565b60006020820190508181036000830152612937816128fb565b9050919050565b7f4e487b7100000000000000000000000000000000000000000000000000000000600052603260045260246000fd5b7f4e487b7100000000000000000000000000000000000000000000000000000000600052601160045260246000fd5b60006129a782612223565b91506129b283612223565b9250817fffffffffffffffffffffffffffffffffffffffffffffffffffffffffffffffff04831182151516156129eb576129ea61296d565b5b828202905092915050565b6000612a0182612223565b9150612a0c83612223565b9250827fffffffffffffffffffffffffffffffffffffffffffffffffffffffffffffffff03821115612a4157612a4061296d565b5b828201905092915050565b7f43616e6e6f7420756e7374616b65206265666f72652074686520656e64206f6660008201527f20746865207374616b696e67206475726174696f6e2e00000000000000000000602082015250565b6000612aa86036836128c1565b9150612ab382612a4c565b604082019050919050565b60006020820190508181036000830152612ad781612a9b565b9050919050565b7f43616e6e6f7420756e7374616b6520656174656e20676f6f73652e0000000000600082015250565b6000612b14601b836128c1565b9150612b1f82612ade565b602082019050919050565b60006020820190508181036000830152612b4381612b07565b9050919050565b6000606082019050612b5f600083018661265e565b612b6c602083018561265e565b612b7960408301846126c4565b949350505050565b6000606082019050612b96600083018661265e565b612ba360208301856126c4565b612bb060408301846126c4565b949350505050565b6000602082019050612bcd60008301846126c4565b92915050565b600081519050612be28161219e565b92915050565b600060208284031215612bfe57612bfd612162565b5b6000612c0c84828501612bd3565b91505092915050565b7f596f7520646f206e6f74206f776e2074686973204e46542e0000000000000000600082015250565b6000612c4b6018836128c1565b9150612c5682612c15565b602082019050919050565b60006020820190508181036000830152612c7a81612c3e565b9050919050565b7f496e76616c6964206475726174696f6e2e000000000000000000000000000000600082015250565b6000612cb76011836128c1565b9150612cc282612c81565b602082019050919050565b60006020820190508181036000830152612ce681612caa565b9050919050565b7f596f7520646f206e6f74206f776e20656e6f7567682074616c6520746f6b656e60008201527f732e000000000000000000000000000000000000000000000000000000000000602082015250565b6000612d496022836128c1565b9150612d5482612ced565b604082019050919050565b60006020820190508181036000830152612d7881612d3c565b9050919050565b6000612d8a82612223565b91507fffffffffffffffffffffffffffffffffffffffffffffffffffffffffffffffff8203612dbc57612dbb61296d565b5b600182019050919050565b7f4f776e61626c653a206e6577206f776e657220697320746865207a65726f206160008201527f6464726573730000000000000000000000000000000000000000000000000000602082015250565b6000612e236026836128c1565b9150612e2e82612dc7565b604082019050919050565b60006020820190508181036000830152612e5281612e16565b9050919050565b7f4f776e61626c653a2063616c6c6572206973206e6f7420746865206f776e6572600082015250565b6000612e8f6020836128c1565b9150612e9a82612e59565b602082019050919050565b60006020820190508181036000830152612ebe81612e82565b9050919050565b7f5265656e7472616e637947756172643a207265656e7472616e742063616c6c00600082015250565b6000612efb601f836128c1565b9150612f0682612ec5565b602082019050919050565b60006020820190508181036000830152612f2a81612eee565b9050919050565b6000612f3c82612223565b9150612f4783612223565b925082821015612f5a57612f5961296d565b5b828203905092915050565b7f4e487b7100000000000000000000000000000000000000000000000000000000600052603160045260246000fdfea2646970667358221220e747794028a8d4952170ede5bc6ca33b2f69dab39b5bbe1580250a45457a77f764736f6c634300080d0033",
  "linkReferences": {},
  "deployedLinkReferences": {}
}