{
  "_format": "hh-sol-artifact-1",
  "contractName": "NFTStaker",
  "sourceName": "src/backend/contracts/NFTStaker.sol",
  "abi": [
    {
      "inputs": [
        {
          "internalType": "address",
          "name": "_nftAddress",
          "type": "address"
        },
        {
          "internalType": "address",
          "name": "_beanAddress",
          "type": "address"
        },
        {
          "internalType": "address",
          "name": "_wolfAddress",
          "type": "address"
        }
      ],
      "stateMutability": "nonpayable",
      "type": "constructor"
    },
    {
      "anonymous": false,
      "inputs": [
        {
          "indexed": false,
          "internalType": "address",
          "name": "user",
          "type": "address"
        },
        {
          "indexed": false,
          "internalType": "uint256",
          "name": "tokenId",
          "type": "uint256"
        }
      ],
      "name": "FeedSuccessful",
      "type": "event"
    },
    {
      "anonymous": false,
      "inputs": [
        {
          "indexed": true,
          "internalType": "address",
          "name": "previousOwner",
          "type": "address"
        },
        {
          "indexed": true,
          "internalType": "address",
          "name": "newOwner",
          "type": "address"
        }
      ],
      "name": "OwnershipTransferred",
      "type": "event"
    },
    {
      "anonymous": false,
      "inputs": [
        {
          "indexed": false,
          "internalType": "address",
          "name": "user",
          "type": "address"
        },
        {
          "indexed": false,
          "internalType": "uint256",
          "name": "tokenId",
          "type": "uint256"
        },
        {
          "indexed": false,
          "internalType": "uint256",
          "name": "timestamp",
          "type": "uint256"
        }
      ],
      "name": "StakeSuccessful",
      "type": "event"
    },
    {
      "anonymous": false,
      "inputs": [
        {
          "indexed": false,
          "internalType": "address",
          "name": "user",
          "type": "address"
        },
        {
          "indexed": false,
          "internalType": "uint256",
          "name": "tokenId",
          "type": "uint256"
        },
        {
          "indexed": false,
          "internalType": "uint256",
          "name": "reward",
          "type": "uint256"
        }
      ],
      "name": "UnstakeSuccessful",
      "type": "event"
    },
    {
      "inputs": [],
      "name": "beanNFT",
      "outputs": [
        {
          "internalType": "contract ERC721A",
          "name": "",
          "type": "address"
        }
      ],
      "stateMutability": "view",
      "type": "function"
    },
    {
      "inputs": [
        {
          "internalType": "uint256",
          "name": "",
          "type": "uint256"
        }
      ],
      "name": "durations",
      "outputs": [
        {
          "internalType": "uint256",
          "name": "daysCount",
          "type": "uint256"
        },
        {
          "internalType": "uint256",
          "name": "taleflyCount",
          "type": "uint256"
        },
        {
          "internalType": "uint256",
          "name": "rewardCount",
          "type": "uint256"
        }
      ],
      "stateMutability": "view",
      "type": "function"
    },
    {
      "inputs": [
        {
          "internalType": "uint256",
          "name": "_tokenId",
          "type": "uint256"
        },
        {
          "internalType": "uint256",
          "name": "_beanTokenId",
          "type": "uint256"
        }
      ],
      "name": "feedGoose",
      "outputs": [],
      "stateMutability": "nonpayable",
      "type": "function"
    },
    {
      "inputs": [
        {
          "internalType": "address",
          "name": "_user",
          "type": "address"
        }
      ],
      "name": "getStakedDurations",
      "outputs": [
        {
          "internalType": "uint256[]",
          "name": "",
          "type": "uint256[]"
        }
      ],
      "stateMutability": "view",
      "type": "function"
    },
    {
      "inputs": [
        {
          "internalType": "address",
          "name": "_user",
          "type": "address"
        }
      ],
      "name": "getStakedTaleflyUsed",
      "outputs": [
        {
          "internalType": "bool[]",
          "name": "",
          "type": "bool[]"
        }
      ],
      "stateMutability": "view",
      "type": "function"
    },
    {
      "inputs": [
        {
          "internalType": "address",
          "name": "_user",
          "type": "address"
        }
      ],
      "name": "getStakedTimestamps",
      "outputs": [
        {
          "internalType": "uint256[]",
          "name": "",
          "type": "uint256[]"
        }
      ],
      "stateMutability": "view",
      "type": "function"
    },
    {
      "inputs": [
        {
          "internalType": "address",
          "name": "_user",
          "type": "address"
        }
      ],
      "name": "getStakedTokens",
      "outputs": [
        {
          "internalType": "uint256[]",
          "name": "",
          "type": "uint256[]"
        }
      ],
      "stateMutability": "view",
      "type": "function"
    },
    {
      "inputs": [
        {
          "internalType": "uint256",
          "name": "_tokenId",
          "type": "uint256"
        }
      ],
      "name": "isTokenStaked",
      "outputs": [
        {
          "internalType": "bool",
          "name": "",
          "type": "bool"
        }
      ],
      "stateMutability": "view",
      "type": "function"
    },
    {
      "inputs": [
        {
          "internalType": "address",
          "name": "",
          "type": "address"
        },
        {
          "internalType": "address",
          "name": "",
          "type": "address"
        },
        {
          "internalType": "uint256",
          "name": "",
          "type": "uint256"
        },
        {
          "internalType": "bytes",
          "name": "",
          "type": "bytes"
        }
      ],
      "name": "onERC721Received",
      "outputs": [
        {
          "internalType": "bytes4",
          "name": "",
          "type": "bytes4"
        }
      ],
      "stateMutability": "nonpayable",
      "type": "function"
    },
    {
      "inputs": [],
      "name": "owner",
      "outputs": [
        {
          "internalType": "address",
          "name": "",
          "type": "address"
        }
      ],
      "stateMutability": "view",
      "type": "function"
    },
    {
      "inputs": [],
      "name": "parentNFT",
      "outputs": [
        {
          "internalType": "contract ERC721A",
          "name": "",
          "type": "address"
        }
      ],
      "stateMutability": "view",
      "type": "function"
    },
    {
      "inputs": [],
      "name": "renounceOwnership",
      "outputs": [],
      "stateMutability": "nonpayable",
      "type": "function"
    },
    {
      "inputs": [
        {
          "internalType": "address",
          "name": "_tokenAddress",
          "type": "address"
        }
      ],
      "name": "setTokenAddress",
      "outputs": [],
      "stateMutability": "nonpayable",
      "type": "function"
    },
    {
      "inputs": [
        {
          "internalType": "uint256",
          "name": "_tokenId",
          "type": "uint256"
        },
        {
          "internalType": "uint256",
          "name": "_duration",
          "type": "uint256"
        },
        {
          "internalType": "bool",
          "name": "_useTalefly",
          "type": "bool"
        }
      ],
      "name": "stake",
      "outputs": [],
      "stateMutability": "nonpayable",
      "type": "function"
    },
    {
      "inputs": [],
      "name": "taleToken",
      "outputs": [
        {
          "internalType": "contract ERC20",
          "name": "",
          "type": "address"
        }
      ],
      "stateMutability": "view",
      "type": "function"
    },
    {
      "inputs": [
        {
          "internalType": "uint256",
          "name": "",
          "type": "uint256"
        }
      ],
      "name": "tokenFed",
      "outputs": [
        {
          "internalType": "address",
          "name": "",
          "type": "address"
        }
      ],
      "stateMutability": "view",
      "type": "function"
    },
    {
      "inputs": [
        {
          "internalType": "address",
          "name": "newOwner",
          "type": "address"
        }
      ],
      "name": "transferOwnership",
      "outputs": [],
      "stateMutability": "nonpayable",
      "type": "function"
    },
    {
      "inputs": [
        {
          "internalType": "uint256",
          "name": "_tokenId",
          "type": "uint256"
        }
      ],
      "name": "unstake",
      "outputs": [],
      "stateMutability": "nonpayable",
      "type": "function"
    },
    {
      "inputs": [],
      "name": "withdrawTalefly",
      "outputs": [],
      "stateMutability": "nonpayable",
      "type": "function"
    },
    {
      "inputs": [],
      "name": "wolfAddress",
      "outputs": [
        {
          "internalType": "address",
          "name": "",
          "type": "address"
        }
      ],
      "stateMutability": "view",
      "type": "function"
    }
  ],
  "bytecode": "0x60806040523480156200001157600080fd5b50604051620036aa380380620036aa833981810160405281019062000037919062000374565b60016000819055506200005f620000536200023c60201b60201c565b6200024460201b60201c565b82600260006101000a81548173ffffffffffffffffffffffffffffffffffffffff021916908373ffffffffffffffffffffffffffffffffffffffff16021790555081600360006101000a81548173ffffffffffffffffffffffffffffffffffffffff021916908373ffffffffffffffffffffffffffffffffffffffff16021790555080600560006101000a81548173ffffffffffffffffffffffffffffffffffffffff021916908373ffffffffffffffffffffffffffffffffffffffff1602179055506040518060600160405280600781526020016005815260200160078152506006600060038110620001585762000157620003d0565b5b600302016000820151816000015560208201518160010155604082015181600201559050506040518060600160405280601e8152602001600f815260200160238152506006600160038110620001b357620001b2620003d0565b5b600302016000820151816000015560208201518160010155604082015181600201559050506040518060600160405280603c815260200160198152602001605081525060066002600381106200020e576200020d620003d0565b5b60030201600082015181600001556020820151816001015560408201518160020155905050505050620003ff565b600033905090565b6000600160009054906101000a900473ffffffffffffffffffffffffffffffffffffffff16905081600160006101000a81548173ffffffffffffffffffffffffffffffffffffffff021916908373ffffffffffffffffffffffffffffffffffffffff1602179055508173ffffffffffffffffffffffffffffffffffffffff168173ffffffffffffffffffffffffffffffffffffffff167f8be0079c531659141344cd1fd0a4f28419497f9722a3daafe3b4186f6b6457e060405160405180910390a35050565b600080fd5b600073ffffffffffffffffffffffffffffffffffffffff82169050919050565b60006200033c826200030f565b9050919050565b6200034e816200032f565b81146200035a57600080fd5b50565b6000815190506200036e8162000343565b92915050565b60008060006060848603121562000390576200038f6200030a565b5b6000620003a0868287016200035d565b9350506020620003b3868287016200035d565b9250506040620003c6868287016200035d565b9150509250925092565b7f4e487b7100000000000000000000000000000000000000000000000000000000600052603260045260246000fd5b61329b806200040f6000396000f3fe608060405234801561001057600080fd5b506004361061012c5760003560e01c8063715018a6116100ad578063b8e33fb211610071578063b8e33fb21461031d578063bc20a7af1461033b578063c8add2101461036d578063f0a524241461039d578063f2fde38b146103cd5761012c565b8063715018a6146102775780638709cce6146102815780638da5cb5b1461029f578063a04ebd4b146102bd578063a672b9c0146102ed5761012c565b80633252e47d116100f45780633252e47d146101d3578063561b2463146101ef5780635692b7121461020b5780635e82f7e91461022957806363c28db1146102475761012c565b80630435362914610131578063150b7a021461016157806326a4e8d2146101915780632aab942f146101ad5780632e17de78146101b7575b600080fd5b61014b600480360381019061014691906123ef565b6103e9565b60405161015891906124e4565b60405180910390f35b61017b60048036038101906101769190612678565b610483565b6040516101889190612736565b60405180910390f35b6101ab60048036038101906101a691906123ef565b610497565b005b6101b56104e3565b005b6101d160048036038101906101cc9190612751565b610629565b005b6101ed60048036038101906101e8919061277e565b610c06565b005b610209600480360381019061020491906127f6565b610f3a565b005b6102136115bd565b60405161022091906128a8565b60405180910390f35b6102316115e3565b60405161023e91906128e4565b60405180910390f35b610261600480360381019061025c91906123ef565b611609565b60405161026e91906124e4565b60405180910390f35b61027f6116a3565b005b6102896116b7565b604051610296919061290e565b60405180910390f35b6102a76116dd565b6040516102b4919061290e565b60405180910390f35b6102d760048036038101906102d291906123ef565b611707565b6040516102e491906124e4565b60405180910390f35b61030760048036038101906103029190612751565b6117a1565b604051610314919061290e565b60405180910390f35b6103256117d4565b60405161033291906128a8565b60405180910390f35b61035560048036038101906103509190612751565b6117fa565b60405161036493929190612938565b60405180910390f35b610387600480360381019061038291906123ef565b61182a565b6040516103949190612a2d565b60405180910390f35b6103b760048036038101906103b29190612751565b6118e9565b6040516103c49190612a5e565b60405180910390f35b6103e760048036038101906103e291906123ef565b6119ce565b005b6060601060008373ffffffffffffffffffffffffffffffffffffffff1673ffffffffffffffffffffffffffffffffffffffff16815260200190815260200160002060020180548060200260200160405190810160405280929190818152602001828054801561047757602002820191906000526020600020905b815481526020019060010190808311610463575b50505050509050919050565b600063150b7a0260e01b9050949350505050565b61049f611a51565b80600460006101000a81548173ffffffffffffffffffffffffffffffffffffffff021916908373ffffffffffffffffffffffffffffffffffffffff16021790555050565b6104eb611a51565b600460009054906101000a900473ffffffffffffffffffffffffffffffffffffffff1673ffffffffffffffffffffffffffffffffffffffff1663a9059cbb33600460009054906101000a900473ffffffffffffffffffffffffffffffffffffffff1673ffffffffffffffffffffffffffffffffffffffff166370a08231306040518263ffffffff1660e01b8152600401610585919061290e565b602060405180830381865afa1580156105a2573d6000803e3d6000fd5b505050506040513d601f19601f820116820180604052508101906105c69190612a8e565b6040518363ffffffff1660e01b81526004016105e3929190612abb565b6020604051808303816000875af1158015610602573d6000803e3d6000fd5b505050506040513d601f19601f820116820180604052508101906106269190612af9565b50565b610631611acf565b6000601060003373ffffffffffffffffffffffffffffffffffffffff1673ffffffffffffffffffffffffffffffffffffffff168152602001908152602001600020604051806080016040529081600082018054806020026020016040519081016040528092919081815260200182805480156106cc57602002820191906000526020600020905b8154815260200190600101908083116106b8575b505050505081526020016001820180548060200260200160405190810160405280929190818152602001828054801561072457602002820191906000526020600020905b815481526020019060010190808311610710575b505050505081526020016002820180548060200260200160405190810160405280929190818152602001828054801561077c57602002820191906000526020600020905b815481526020019060010190808311610768575b50505050508152602001600382018054806020026020016040519081016040528092919081815260200182805480156107f957602002820191906000526020600020906000905b82829054906101000a900460ff161515815260200190600101906020826000010492830192600103820291508084116107c35790505b50505050508152505090506000806108118433611b1e565b9150915080610855576040517f08c379a000000000000000000000000000000000000000000000000000000000815260040161084c90612b83565b60405180910390fd5b6201518060068460400151848151811061087257610871612ba3565b5b60200260200101516003811061088b5761088a612ba3565b5b600302016000015461089d9190612c01565b836020015183815181106108b4576108b3612ba3565b5b60200260200101516108c69190612c5b565b4211610907576040517f08c379a00000000000000000000000000000000000000000000000000000000081526004016108fe90612d23565b60405180910390fd5b8260600151828151811061091e5761091d612ba3565b5b6020026020010151610965576040517f08c379a000000000000000000000000000000000000000000000000000000000815260040161095c90612d8f565b60405180910390fd5b600260009054906101000a900473ffffffffffffffffffffffffffffffffffffffff1673ffffffffffffffffffffffffffffffffffffffff166342842e0e3033876040518463ffffffff1660e01b81526004016109c493929190612daf565b600060405180830381600087803b1580156109de57600080fd5b505af11580156109f2573d6000803e3d6000fd5b505050506000600684604001518481518110610a1157610a10612ba3565b5b602002602001015160038110610a2a57610a29612ba3565b5b600302016002015490503373ffffffffffffffffffffffffffffffffffffffff16600f600087815260200190815260200160002060009054906101000a900473ffffffffffffffffffffffffffffffffffffffff1673ffffffffffffffffffffffffffffffffffffffff1603610aaa57600381610aa79190612c01565b90505b60011515600460009054906101000a900473ffffffffffffffffffffffffffffffffffffffff1673ffffffffffffffffffffffffffffffffffffffff1663a9059cbb33846040518363ffffffff1660e01b8152600401610b0b929190612abb565b6020604051808303816000875af1158015610b2a573d6000803e3d6000fd5b505050506040513d601f19601f82011682018060405250810190610b4e9190612af9565b151503610b6457610b5f3384611d62565b610b69565b600080fd5b6000600f600087815260200190815260200160002060006101000a81548173ffffffffffffffffffffffffffffffffffffffff021916908373ffffffffffffffffffffffffffffffffffffffff1602179055507f385f74ea359bd3473219eab4b703a673523551cc58869e7d2e22b7fec435d0d3338683604051610bef93929190612de6565b60405180910390a150505050610c036122a5565b50565b3373ffffffffffffffffffffffffffffffffffffffff16600260009054906101000a900473ffffffffffffffffffffffffffffffffffffffff1673ffffffffffffffffffffffffffffffffffffffff16636352211e846040518263ffffffff1660e01b8152600401610c789190612e1d565b602060405180830381865afa158015610c95573d6000803e3d6000fd5b505050506040513d601f19601f82011682018060405250810190610cb99190612e4d565b73ffffffffffffffffffffffffffffffffffffffff1614610d0f576040517f08c379a0000000000000000000000000000000000000000000000000000000008152600401610d0690612ec6565b60405180910390fd5b3373ffffffffffffffffffffffffffffffffffffffff16600360009054906101000a900473ffffffffffffffffffffffffffffffffffffffff1673ffffffffffffffffffffffffffffffffffffffff16636352211e836040518263ffffffff1660e01b8152600401610d819190612e1d565b602060405180830381865afa158015610d9e573d6000803e3d6000fd5b505050506040513d601f19601f82011682018060405250810190610dc29190612e4d565b73ffffffffffffffffffffffffffffffffffffffff1614610e18576040517f08c379a0000000000000000000000000000000000000000000000000000000008152600401610e0f90612f32565b60405180910390fd5b600360009054906101000a900473ffffffffffffffffffffffffffffffffffffffff1673ffffffffffffffffffffffffffffffffffffffff166342842e0e3361dead846040518463ffffffff1660e01b8152600401610e7993929190612daf565b600060405180830381600087803b158015610e9357600080fd5b505af1158015610ea7573d6000803e3d6000fd5b5050505033600f600084815260200190815260200160002060006101000a81548173ffffffffffffffffffffffffffffffffffffffff021916908373ffffffffffffffffffffffffffffffffffffffff1602179055507f1ced9949daf4ce5c9fef2d1879171ac185d864d882af7281a80e3cb6bd4f70ee3383604051610f2e929190612abb565b60405180910390a15050565b610f42611acf565b3373ffffffffffffffffffffffffffffffffffffffff16600260009054906101000a900473ffffffffffffffffffffffffffffffffffffffff1673ffffffffffffffffffffffffffffffffffffffff16636352211e856040518263ffffffff1660e01b8152600401610fb49190612e1d565b602060405180830381865afa158015610fd1573d6000803e3d6000fd5b505050506040513d601f19601f82011682018060405250810190610ff59190612e4d565b73ffffffffffffffffffffffffffffffffffffffff161461104b576040517f08c379a000000000000000000000000000000000000000000000000000000000815260040161104290612ec6565b60405180910390fd5b6000821015801561105c5750600382105b61109b576040517f08c379a000000000000000000000000000000000000000000000000000000000815260040161109290612f9e565b60405180910390fd5b801561130257600682600381106110b5576110b4612ba3565b5b6003020160010154600460009054906101000a900473ffffffffffffffffffffffffffffffffffffffff1673ffffffffffffffffffffffffffffffffffffffff166370a08231336040518263ffffffff1660e01b8152600401611118919061290e565b602060405180830381865afa158015611135573d6000803e3d6000fd5b505050506040513d601f19601f820116820180604052508101906111599190612a8e565b101561119a576040517f08c379a000000000000000000000000000000000000000000000000000000000815260040161119190613030565b60405180910390fd5b60011515600460009054906101000a900473ffffffffffffffffffffffffffffffffffffffff1673ffffffffffffffffffffffffffffffffffffffff166323b872dd3330600687600381106111f2576111f1612ba3565b5b60030201600101546040518463ffffffff1660e01b815260040161121893929190612daf565b6020604051808303816000875af1158015611237573d6000803e3d6000fd5b505050506040513d601f19601f8201168201806040525081019061125b9190612af9565b1515036112f857600260009054906101000a900473ffffffffffffffffffffffffffffffffffffffff1673ffffffffffffffffffffffffffffffffffffffff166342842e0e3330866040518463ffffffff1660e01b81526004016112c193929190612daf565b600060405180830381600087803b1580156112db57600080fd5b505af11580156112ef573d6000803e3d6000fd5b505050506112fd565b600080fd5b6113b6565b600260009054906101000a900473ffffffffffffffffffffffffffffffffffffffff1673ffffffffffffffffffffffffffffffffffffffff166342842e0e33600560009054906101000a900473ffffffffffffffffffffffffffffffffffffffff16866040518463ffffffff1660e01b815260040161138393929190612daf565b600060405180830381600087803b15801561139d57600080fd5b505af11580156113b1573d6000803e3d6000fd5b505050505b601060003373ffffffffffffffffffffffffffffffffffffffff1673ffffffffffffffffffffffffffffffffffffffff168152602001908152602001600020600001839080600181540180825580915050600190039060005260206000200160009091909190915055601060003373ffffffffffffffffffffffffffffffffffffffff1673ffffffffffffffffffffffffffffffffffffffff168152602001908152602001600020600101429080600181540180825580915050600190039060005260206000200160009091909190915055601060003373ffffffffffffffffffffffffffffffffffffffff1673ffffffffffffffffffffffffffffffffffffffff168152602001908152602001600020600201829080600181540180825580915050600190039060005260206000200160009091909190915055601060003373ffffffffffffffffffffffffffffffffffffffff1673ffffffffffffffffffffffffffffffffffffffff1681526020019081526020016000206003018190806001815401808255809150506001900390600052602060002090602091828204019190069091909190916101000a81548160ff0219169083151502179055507f37abc30d0dfe643dbd2e840e90b3f428f4bba7e3ef3d401fd00295aba92356973384426040516115a893929190612de6565b60405180910390a16115b86122a5565b505050565b600360009054906101000a900473ffffffffffffffffffffffffffffffffffffffff1681565b600460009054906101000a900473ffffffffffffffffffffffffffffffffffffffff1681565b6060601060008373ffffffffffffffffffffffffffffffffffffffff1673ffffffffffffffffffffffffffffffffffffffff16815260200190815260200160002060000180548060200260200160405190810160405280929190818152602001828054801561169757602002820191906000526020600020905b815481526020019060010190808311611683575b50505050509050919050565b6116ab611a51565b6116b560006122af565b565b600560009054906101000a900473ffffffffffffffffffffffffffffffffffffffff1681565b6000600160009054906101000a900473ffffffffffffffffffffffffffffffffffffffff16905090565b6060601060008373ffffffffffffffffffffffffffffffffffffffff1673ffffffffffffffffffffffffffffffffffffffff16815260200190815260200160002060010180548060200260200160405190810160405280929190818152602001828054801561179557602002820191906000526020600020905b815481526020019060010190808311611781575b50505050509050919050565b600f6020528060005260406000206000915054906101000a900473ffffffffffffffffffffffffffffffffffffffff1681565b600260009054906101000a900473ffffffffffffffffffffffffffffffffffffffff1681565b6006816003811061180a57600080fd5b600302016000915090508060000154908060010154908060020154905083565b6060601060008373ffffffffffffffffffffffffffffffffffffffff1673ffffffffffffffffffffffffffffffffffffffff1681526020019081526020016000206003018054806020026020016040519081016040528092919081815260200182805480156118dd57602002820191906000526020600020906000905b82829054906101000a900460ff161515815260200190600101906020826000010492830192600103820291508084116118a75790505b50505050509050919050565b600080601060003373ffffffffffffffffffffffffffffffffffffffff1673ffffffffffffffffffffffffffffffffffffffff16815260200190815260200160002060000180549050905060005b818110156119c25783601060003373ffffffffffffffffffffffffffffffffffffffff1673ffffffffffffffffffffffffffffffffffffffff168152602001908152602001600020600001828154811061199457611993612ba3565b5b9060005260206000200154036119af576001925050506119c9565b80806119ba90613050565b915050611937565b5060009150505b919050565b6119d6611a51565b600073ffffffffffffffffffffffffffffffffffffffff168173ffffffffffffffffffffffffffffffffffffffff1603611a45576040517f08c379a0000000000000000000000000000000000000000000000000000000008152600401611a3c9061310a565b60405180910390fd5b611a4e816122af565b50565b611a59612375565b73ffffffffffffffffffffffffffffffffffffffff16611a776116dd565b73ffffffffffffffffffffffffffffffffffffffff1614611acd576040517f08c379a0000000000000000000000000000000000000000000000000000000008152600401611ac490613176565b60405180910390fd5b565b600260005403611b14576040517f08c379a0000000000000000000000000000000000000000000000000000000008152600401611b0b906131e2565b60405180910390fd5b6002600081905550565b6000806000601060008573ffffffffffffffffffffffffffffffffffffffff1673ffffffffffffffffffffffffffffffffffffffff16815260200190815260200160002060405180608001604052908160008201805480602002602001604051908101604052809291908181526020018280548015611bbc57602002820191906000526020600020905b815481526020019060010190808311611ba8575b5050505050815260200160018201805480602002602001604051908101604052809291908181526020018280548015611c1457602002820191906000526020600020905b815481526020019060010190808311611c00575b5050505050815260200160028201805480602002602001604051908101604052809291908181526020018280548015611c6c57602002820191906000526020600020905b815481526020019060010190808311611c58575b5050505050815260200160038201805480602002602001604051908101604052809291908181526020018280548015611ce957602002820191906000526020600020906000905b82829054906101000a900460ff16151581526020019060010190602082600001049283019260010382029150808411611cb35790505b50505050508152505090506000806000836000015151905060005b81811015611d50578885600001518281518110611d2457611d23612ba3565b5b602002602001015103611d3d5780935060019250611d50565b8080611d4890613050565b915050611d04565b50828295509550505050509250929050565b60006001601060008573ffffffffffffffffffffffffffffffffffffffff1673ffffffffffffffffffffffffffffffffffffffff16815260200190815260200160002060000180549050611db69190613202565b9050601060008473ffffffffffffffffffffffffffffffffffffffff1673ffffffffffffffffffffffffffffffffffffffff1681526020019081526020016000206001018181548110611e0c57611e0b612ba3565b5b9060005260206000200154601060008573ffffffffffffffffffffffffffffffffffffffff1673ffffffffffffffffffffffffffffffffffffffff1681526020019081526020016000206001018381548110611e6b57611e6a612ba3565b5b9060005260206000200181905550601060008473ffffffffffffffffffffffffffffffffffffffff1673ffffffffffffffffffffffffffffffffffffffff168152602001908152602001600020600101805480611ecb57611eca613236565b5b60019003818190600052602060002001600090559055601060008473ffffffffffffffffffffffffffffffffffffffff1673ffffffffffffffffffffffffffffffffffffffff1681526020019081526020016000206000018181548110611f3557611f34612ba3565b5b9060005260206000200154601060008573ffffffffffffffffffffffffffffffffffffffff1673ffffffffffffffffffffffffffffffffffffffff1681526020019081526020016000206000018381548110611f9457611f93612ba3565b5b9060005260206000200181905550601060008473ffffffffffffffffffffffffffffffffffffffff1673ffffffffffffffffffffffffffffffffffffffff168152602001908152602001600020600001805480611ff457611ff3613236565b5b60019003818190600052602060002001600090559055601060008473ffffffffffffffffffffffffffffffffffffffff1673ffffffffffffffffffffffffffffffffffffffff168152602001908152602001600020600201818154811061205e5761205d612ba3565b5b9060005260206000200154601060008573ffffffffffffffffffffffffffffffffffffffff1673ffffffffffffffffffffffffffffffffffffffff16815260200190815260200160002060020183815481106120bd576120bc612ba3565b5b9060005260206000200181905550601060008473ffffffffffffffffffffffffffffffffffffffff1673ffffffffffffffffffffffffffffffffffffffff16815260200190815260200160002060020180548061211d5761211c613236565b5b60019003818190600052602060002001600090559055601060008473ffffffffffffffffffffffffffffffffffffffff1673ffffffffffffffffffffffffffffffffffffffff168152602001908152602001600020600301818154811061218757612186612ba3565b5b90600052602060002090602091828204019190069054906101000a900460ff16601060008573ffffffffffffffffffffffffffffffffffffffff1673ffffffffffffffffffffffffffffffffffffffff16815260200190815260200160002060030183815481106121fb576121fa612ba3565b5b90600052602060002090602091828204019190066101000a81548160ff021916908315150217905550601060008473ffffffffffffffffffffffffffffffffffffffff1673ffffffffffffffffffffffffffffffffffffffff16815260200190815260200160002060030180548061227657612275613236565b5b60019003818190600052602060002090602091828204019190066101000a81549060ff02191690559055505050565b6001600081905550565b6000600160009054906101000a900473ffffffffffffffffffffffffffffffffffffffff16905081600160006101000a81548173ffffffffffffffffffffffffffffffffffffffff021916908373ffffffffffffffffffffffffffffffffffffffff1602179055508173ffffffffffffffffffffffffffffffffffffffff168173ffffffffffffffffffffffffffffffffffffffff167f8be0079c531659141344cd1fd0a4f28419497f9722a3daafe3b4186f6b6457e060405160405180910390a35050565b600033905090565b6000604051905090565b600080fd5b600080fd5b600073ffffffffffffffffffffffffffffffffffffffff82169050919050565b60006123bc82612391565b9050919050565b6123cc816123b1565b81146123d757600080fd5b50565b6000813590506123e9816123c3565b92915050565b60006020828403121561240557612404612387565b5b6000612413848285016123da565b91505092915050565b600081519050919050565b600082825260208201905092915050565b6000819050602082019050919050565b6000819050919050565b61245b81612448565b82525050565b600061246d8383612452565b60208301905092915050565b6000602082019050919050565b60006124918261241c565b61249b8185612427565b93506124a683612438565b8060005b838110156124d75781516124be8882612461565b97506124c983612479565b9250506001810190506124aa565b5085935050505092915050565b600060208201905081810360008301526124fe8184612486565b905092915050565b61250f81612448565b811461251a57600080fd5b50565b60008135905061252c81612506565b92915050565b600080fd5b600080fd5b6000601f19601f8301169050919050565b7f4e487b7100000000000000000000000000000000000000000000000000000000600052604160045260246000fd5b6125858261253c565b810181811067ffffffffffffffff821117156125a4576125a361254d565b5b80604052505050565b60006125b761237d565b90506125c3828261257c565b919050565b600067ffffffffffffffff8211156125e3576125e261254d565b5b6125ec8261253c565b9050602081019050919050565b82818337600083830152505050565b600061261b612616846125c8565b6125ad565b90508281526020810184848401111561263757612636612537565b5b6126428482856125f9565b509392505050565b600082601f83011261265f5761265e612532565b5b813561266f848260208601612608565b91505092915050565b6000806000806080858703121561269257612691612387565b5b60006126a0878288016123da565b94505060206126b1878288016123da565b93505060406126c28782880161251d565b925050606085013567ffffffffffffffff8111156126e3576126e261238c565b5b6126ef8782880161264a565b91505092959194509250565b60007fffffffff0000000000000000000000000000000000000000000000000000000082169050919050565b612730816126fb565b82525050565b600060208201905061274b6000830184612727565b92915050565b60006020828403121561276757612766612387565b5b60006127758482850161251d565b91505092915050565b6000806040838503121561279557612794612387565b5b60006127a38582860161251d565b92505060206127b48582860161251d565b9150509250929050565b60008115159050919050565b6127d3816127be565b81146127de57600080fd5b50565b6000813590506127f0816127ca565b92915050565b60008060006060848603121561280f5761280e612387565b5b600061281d8682870161251d565b935050602061282e8682870161251d565b925050604061283f868287016127e1565b9150509250925092565b6000819050919050565b600061286e61286961286484612391565b612849565b612391565b9050919050565b600061288082612853565b9050919050565b600061289282612875565b9050919050565b6128a281612887565b82525050565b60006020820190506128bd6000830184612899565b92915050565b60006128ce82612875565b9050919050565b6128de816128c3565b82525050565b60006020820190506128f960008301846128d5565b92915050565b612908816123b1565b82525050565b600060208201905061292360008301846128ff565b92915050565b61293281612448565b82525050565b600060608201905061294d6000830186612929565b61295a6020830185612929565b6129676040830184612929565b949350505050565b600081519050919050565b600082825260208201905092915050565b6000819050602082019050919050565b6129a4816127be565b82525050565b60006129b6838361299b565b60208301905092915050565b6000602082019050919050565b60006129da8261296f565b6129e4818561297a565b93506129ef8361298b565b8060005b83811015612a20578151612a0788826129aa565b9750612a12836129c2565b9250506001810190506129f3565b5085935050505092915050565b60006020820190508181036000830152612a4781846129cf565b905092915050565b612a58816127be565b82525050565b6000602082019050612a736000830184612a4f565b92915050565b600081519050612a8881612506565b92915050565b600060208284031215612aa457612aa3612387565b5b6000612ab284828501612a79565b91505092915050565b6000604082019050612ad060008301856128ff565b612add6020830184612929565b9392505050565b600081519050612af3816127ca565b92915050565b600060208284031215612b0f57612b0e612387565b5b6000612b1d84828501612ae4565b91505092915050565b600082825260208201905092915050565b7f496e646578206e6f7420666f756e6420666f722074686973207374616b65722e600082015250565b6000612b6d602083612b26565b9150612b7882612b37565b602082019050919050565b60006020820190508181036000830152612b9c81612b60565b9050919050565b7f4e487b7100000000000000000000000000000000000000000000000000000000600052603260045260246000fd5b7f4e487b7100000000000000000000000000000000000000000000000000000000600052601160045260246000fd5b6000612c0c82612448565b9150612c1783612448565b9250817fffffffffffffffffffffffffffffffffffffffffffffffffffffffffffffffff0483118215151615612c5057612c4f612bd2565b5b828202905092915050565b6000612c6682612448565b9150612c7183612448565b9250827fffffffffffffffffffffffffffffffffffffffffffffffffffffffffffffffff03821115612ca657612ca5612bd2565b5b828201905092915050565b7f43616e6e6f7420756e7374616b65206265666f72652074686520656e64206f6660008201527f20746865207374616b696e67206475726174696f6e2e00000000000000000000602082015250565b6000612d0d603683612b26565b9150612d1882612cb1565b604082019050919050565b60006020820190508181036000830152612d3c81612d00565b9050919050565b7f43616e6e6f7420756e7374616b6520656174656e20676f6f73652e0000000000600082015250565b6000612d79601b83612b26565b9150612d8482612d43565b602082019050919050565b60006020820190508181036000830152612da881612d6c565b9050919050565b6000606082019050612dc460008301866128ff565b612dd160208301856128ff565b612dde6040830184612929565b949350505050565b6000606082019050612dfb60008301866128ff565b612e086020830185612929565b612e156040830184612929565b949350505050565b6000602082019050612e326000830184612929565b92915050565b600081519050612e47816123c3565b92915050565b600060208284031215612e6357612e62612387565b5b6000612e7184828501612e38565b91505092915050565b7f596f7520646f206e6f74206f776e2074686973204e46542e0000000000000000600082015250565b6000612eb0601883612b26565b9150612ebb82612e7a565b602082019050919050565b60006020820190508181036000830152612edf81612ea3565b9050919050565b7f596f7520646f206e6f74206f776e2074686973204265616e2e00000000000000600082015250565b6000612f1c601983612b26565b9150612f2782612ee6565b602082019050919050565b60006020820190508181036000830152612f4b81612f0f565b9050919050565b7f496e76616c6964206475726174696f6e2e000000000000000000000000000000600082015250565b6000612f88601183612b26565b9150612f9382612f52565b602082019050919050565b60006020820190508181036000830152612fb781612f7b565b9050919050565b7f596f7520646f206e6f74206f776e20656e6f7567682074616c6520746f6b656e60008201527f732e000000000000000000000000000000000000000000000000000000000000602082015250565b600061301a602283612b26565b915061302582612fbe565b604082019050919050565b600060208201905081810360008301526130498161300d565b9050919050565b600061305b82612448565b91507fffffffffffffffffffffffffffffffffffffffffffffffffffffffffffffffff820361308d5761308c612bd2565b5b600182019050919050565b7f4f776e61626c653a206e6577206f776e657220697320746865207a65726f206160008201527f6464726573730000000000000000000000000000000000000000000000000000602082015250565b60006130f4602683612b26565b91506130ff82613098565b604082019050919050565b60006020820190508181036000830152613123816130e7565b9050919050565b7f4f776e61626c653a2063616c6c6572206973206e6f7420746865206f776e6572600082015250565b6000613160602083612b26565b915061316b8261312a565b602082019050919050565b6000602082019050818103600083015261318f81613153565b9050919050565b7f5265656e7472616e637947756172643a207265656e7472616e742063616c6c00600082015250565b60006131cc601f83612b26565b91506131d782613196565b602082019050919050565b600060208201905081810360008301526131fb816131bf565b9050919050565b600061320d82612448565b915061321883612448565b92508282101561322b5761322a612bd2565b5b828203905092915050565b7f4e487b7100000000000000000000000000000000000000000000000000000000600052603160045260246000fdfea2646970667358221220522af6897bd78a65ed0e83370e21799581e568655befe2b16e5171ea32e8f9ed64736f6c634300080d0033",
  "linkReferences": {},
  "deployedLinkReferences": {}
}