{
  "_format": "hh-sol-artifact-1",
  "contractName": "NFTStaker",
  "sourceName": "src/backend/contracts/NFTStaker.sol",
  "abi": [
    {
      "inputs": [
        {
          "internalType": "address",
          "name": "_nftAddress",
          "type": "address"
        },
        {
          "internalType": "address",
          "name": "_beanAddress",
          "type": "address"
        },
        {
          "internalType": "address",
          "name": "_wolfAddress",
          "type": "address"
        }
      ],
      "stateMutability": "nonpayable",
      "type": "constructor"
    },
    {
      "anonymous": false,
      "inputs": [
        {
          "indexed": false,
          "internalType": "address",
          "name": "user",
          "type": "address"
        },
        {
          "indexed": false,
          "internalType": "uint256",
          "name": "tokenId",
          "type": "uint256"
        }
      ],
      "name": "FeedSuccessful",
      "type": "event"
    },
    {
      "anonymous": false,
      "inputs": [
        {
          "indexed": true,
          "internalType": "address",
          "name": "previousOwner",
          "type": "address"
        },
        {
          "indexed": true,
          "internalType": "address",
          "name": "newOwner",
          "type": "address"
        }
      ],
      "name": "OwnershipTransferred",
      "type": "event"
    },
    {
      "anonymous": false,
      "inputs": [
        {
          "indexed": false,
          "internalType": "address",
          "name": "user",
          "type": "address"
        },
        {
          "indexed": false,
          "internalType": "uint256",
          "name": "tokenId",
          "type": "uint256"
        },
        {
          "indexed": false,
          "internalType": "uint256",
          "name": "timestamp",
          "type": "uint256"
        }
      ],
      "name": "StakeSuccessful",
      "type": "event"
    },
    {
      "anonymous": false,
      "inputs": [
        {
          "indexed": false,
          "internalType": "address",
          "name": "user",
          "type": "address"
        },
        {
          "indexed": false,
          "internalType": "uint256",
          "name": "tokenId",
          "type": "uint256"
        },
        {
          "indexed": false,
          "internalType": "uint256",
          "name": "reward",
          "type": "uint256"
        }
      ],
      "name": "UnstakeSuccessful",
      "type": "event"
    },
    {
      "inputs": [],
      "name": "beanNFT",
      "outputs": [
        {
          "internalType": "contract ERC721A",
          "name": "",
          "type": "address"
        }
      ],
      "stateMutability": "view",
      "type": "function"
    },
    {
      "inputs": [
        {
          "internalType": "uint256",
          "name": "",
          "type": "uint256"
        }
      ],
      "name": "durations",
      "outputs": [
        {
          "internalType": "uint256",
          "name": "daysCount",
          "type": "uint256"
        },
        {
          "internalType": "uint256",
          "name": "taleflyCount",
          "type": "uint256"
        },
        {
          "internalType": "uint256",
          "name": "rewardCount",
          "type": "uint256"
        }
      ],
      "stateMutability": "view",
      "type": "function"
    },
    {
      "inputs": [
        {
          "internalType": "uint256",
          "name": "_tokenId",
          "type": "uint256"
        },
        {
          "internalType": "uint256",
          "name": "_beanTokenId",
          "type": "uint256"
        }
      ],
      "name": "feedGoose",
      "outputs": [],
      "stateMutability": "nonpayable",
      "type": "function"
    },
    {
      "inputs": [
        {
          "internalType": "address",
          "name": "_user",
          "type": "address"
        }
      ],
      "name": "getStakedDurations",
      "outputs": [
        {
          "internalType": "uint256[]",
          "name": "",
          "type": "uint256[]"
        }
      ],
      "stateMutability": "view",
      "type": "function"
    },
    {
      "inputs": [
        {
          "internalType": "address",
          "name": "_user",
          "type": "address"
        }
      ],
      "name": "getStakedTaleflyUsed",
      "outputs": [
        {
          "internalType": "bool[]",
          "name": "",
          "type": "bool[]"
        }
      ],
      "stateMutability": "view",
      "type": "function"
    },
    {
      "inputs": [
        {
          "internalType": "address",
          "name": "_user",
          "type": "address"
        }
      ],
      "name": "getStakedTimestamps",
      "outputs": [
        {
          "internalType": "uint256[]",
          "name": "",
          "type": "uint256[]"
        }
      ],
      "stateMutability": "view",
      "type": "function"
    },
    {
      "inputs": [
        {
          "internalType": "address",
          "name": "_user",
          "type": "address"
        }
      ],
      "name": "getStakedTokens",
      "outputs": [
        {
          "internalType": "uint256[]",
          "name": "",
          "type": "uint256[]"
        }
      ],
      "stateMutability": "view",
      "type": "function"
    },
    {
      "inputs": [
        {
          "internalType": "uint256",
          "name": "_tokenId",
          "type": "uint256"
        }
      ],
      "name": "isTokenStaked",
      "outputs": [
        {
          "internalType": "bool",
          "name": "",
          "type": "bool"
        }
      ],
      "stateMutability": "view",
      "type": "function"
    },
    {
      "inputs": [
        {
          "internalType": "address",
          "name": "",
          "type": "address"
        },
        {
          "internalType": "address",
          "name": "",
          "type": "address"
        },
        {
          "internalType": "uint256",
          "name": "",
          "type": "uint256"
        },
        {
          "internalType": "bytes",
          "name": "",
          "type": "bytes"
        }
      ],
      "name": "onERC721Received",
      "outputs": [
        {
          "internalType": "bytes4",
          "name": "",
          "type": "bytes4"
        }
      ],
      "stateMutability": "nonpayable",
      "type": "function"
    },
    {
      "inputs": [],
      "name": "owner",
      "outputs": [
        {
          "internalType": "address",
          "name": "",
          "type": "address"
        }
      ],
      "stateMutability": "view",
      "type": "function"
    },
    {
      "inputs": [],
      "name": "parentNFT",
      "outputs": [
        {
          "internalType": "contract ERC721A",
          "name": "",
          "type": "address"
        }
      ],
      "stateMutability": "view",
      "type": "function"
    },
    {
      "inputs": [],
      "name": "renounceOwnership",
      "outputs": [],
      "stateMutability": "nonpayable",
      "type": "function"
    },
    {
      "inputs": [
        {
          "internalType": "address",
          "name": "_tokenAddress",
          "type": "address"
        }
      ],
      "name": "setTokenAddress",
      "outputs": [],
      "stateMutability": "nonpayable",
      "type": "function"
    },
    {
      "inputs": [
        {
          "internalType": "uint256",
          "name": "_tokenId",
          "type": "uint256"
        },
        {
          "internalType": "uint256",
          "name": "_duration",
          "type": "uint256"
        },
        {
          "internalType": "bool",
          "name": "_useTalefly",
          "type": "bool"
        }
      ],
      "name": "stake",
      "outputs": [],
      "stateMutability": "nonpayable",
      "type": "function"
    },
    {
      "inputs": [],
      "name": "taleToken",
      "outputs": [
        {
          "internalType": "contract ERC20",
          "name": "",
          "type": "address"
        }
      ],
      "stateMutability": "view",
      "type": "function"
    },
    {
      "inputs": [
        {
          "internalType": "uint256",
          "name": "",
          "type": "uint256"
        }
      ],
      "name": "tokenFed",
      "outputs": [
        {
          "internalType": "address",
          "name": "",
          "type": "address"
        }
      ],
      "stateMutability": "view",
      "type": "function"
    },
    {
      "inputs": [
        {
          "internalType": "address",
          "name": "newOwner",
          "type": "address"
        }
      ],
      "name": "transferOwnership",
      "outputs": [],
      "stateMutability": "nonpayable",
      "type": "function"
    },
    {
      "inputs": [
        {
          "internalType": "uint256",
          "name": "_tokenId",
          "type": "uint256"
        }
      ],
      "name": "unstake",
      "outputs": [],
      "stateMutability": "nonpayable",
      "type": "function"
    },
    {
      "inputs": [],
      "name": "withdrawTalefly",
      "outputs": [],
      "stateMutability": "nonpayable",
      "type": "function"
    },
    {
      "inputs": [],
      "name": "wolfAddress",
      "outputs": [
        {
          "internalType": "address",
          "name": "",
          "type": "address"
        }
      ],
      "stateMutability": "view",
      "type": "function"
    }
  ],
  "bytecode": "0x60806040523480156200001157600080fd5b50604051620036a8380380620036a8833981810160405281019062000037919062000374565b60016000819055506200005f620000536200023c60201b60201c565b6200024460201b60201c565b82600260006101000a81548173ffffffffffffffffffffffffffffffffffffffff021916908373ffffffffffffffffffffffffffffffffffffffff16021790555081600360006101000a81548173ffffffffffffffffffffffffffffffffffffffff021916908373ffffffffffffffffffffffffffffffffffffffff16021790555080600560006101000a81548173ffffffffffffffffffffffffffffffffffffffff021916908373ffffffffffffffffffffffffffffffffffffffff1602179055506040518060600160405280600781526020016005815260200160078152506006600060038110620001585762000157620003d0565b5b600302016000820151816000015560208201518160010155604082015181600201559050506040518060600160405280601e8152602001600f815260200160238152506006600160038110620001b357620001b2620003d0565b5b600302016000820151816000015560208201518160010155604082015181600201559050506040518060600160405280603c815260200160198152602001605081525060066002600381106200020e576200020d620003d0565b5b60030201600082015181600001556020820151816001015560408201518160020155905050505050620003ff565b600033905090565b6000600160009054906101000a900473ffffffffffffffffffffffffffffffffffffffff16905081600160006101000a81548173ffffffffffffffffffffffffffffffffffffffff021916908373ffffffffffffffffffffffffffffffffffffffff1602179055508173ffffffffffffffffffffffffffffffffffffffff168173ffffffffffffffffffffffffffffffffffffffff167f8be0079c531659141344cd1fd0a4f28419497f9722a3daafe3b4186f6b6457e060405160405180910390a35050565b600080fd5b600073ffffffffffffffffffffffffffffffffffffffff82169050919050565b60006200033c826200030f565b9050919050565b6200034e816200032f565b81146200035a57600080fd5b50565b6000815190506200036e8162000343565b92915050565b60008060006060848603121562000390576200038f6200030a565b5b6000620003a0868287016200035d565b9350506020620003b3868287016200035d565b9250506040620003c6868287016200035d565b9150509250925092565b7f4e487b7100000000000000000000000000000000000000000000000000000000600052603260045260246000fd5b613299806200040f6000396000f3fe608060405234801561001057600080fd5b506004361061012c5760003560e01c8063715018a6116100ad578063b8e33fb211610071578063b8e33fb21461031d578063bc20a7af1461033b578063c8add2101461036d578063f0a524241461039d578063f2fde38b146103cd5761012c565b8063715018a6146102775780638709cce6146102815780638da5cb5b1461029f578063a04ebd4b146102bd578063a672b9c0146102ed5761012c565b80633252e47d116100f45780633252e47d146101d3578063561b2463146101ef5780635692b7121461020b5780635e82f7e91461022957806363c28db1146102475761012c565b80630435362914610131578063150b7a021461016157806326a4e8d2146101915780632aab942f146101ad5780632e17de78146101b7575b600080fd5b61014b600480360381019061014691906123ed565b6103e9565b60405161015891906124e2565b60405180910390f35b61017b60048036038101906101769190612676565b610483565b6040516101889190612734565b60405180910390f35b6101ab60048036038101906101a691906123ed565b610497565b005b6101b56104e3565b005b6101d160048036038101906101cc919061274f565b610629565b005b6101ed60048036038101906101e8919061277c565b610c04565b005b610209600480360381019061020491906127f4565b610f38565b005b6102136115bb565b60405161022091906128a6565b60405180910390f35b6102316115e1565b60405161023e91906128e2565b60405180910390f35b610261600480360381019061025c91906123ed565b611607565b60405161026e91906124e2565b60405180910390f35b61027f6116a1565b005b6102896116b5565b604051610296919061290c565b60405180910390f35b6102a76116db565b6040516102b4919061290c565b60405180910390f35b6102d760048036038101906102d291906123ed565b611705565b6040516102e491906124e2565b60405180910390f35b6103076004803603810190610302919061274f565b61179f565b604051610314919061290c565b60405180910390f35b6103256117d2565b60405161033291906128a6565b60405180910390f35b6103556004803603810190610350919061274f565b6117f8565b60405161036493929190612936565b60405180910390f35b610387600480360381019061038291906123ed565b611828565b6040516103949190612a2b565b60405180910390f35b6103b760048036038101906103b2919061274f565b6118e7565b6040516103c49190612a5c565b60405180910390f35b6103e760048036038101906103e291906123ed565b6119cc565b005b6060601060008373ffffffffffffffffffffffffffffffffffffffff1673ffffffffffffffffffffffffffffffffffffffff16815260200190815260200160002060020180548060200260200160405190810160405280929190818152602001828054801561047757602002820191906000526020600020905b815481526020019060010190808311610463575b50505050509050919050565b600063150b7a0260e01b9050949350505050565b61049f611a4f565b80600460006101000a81548173ffffffffffffffffffffffffffffffffffffffff021916908373ffffffffffffffffffffffffffffffffffffffff16021790555050565b6104eb611a4f565b600460009054906101000a900473ffffffffffffffffffffffffffffffffffffffff1673ffffffffffffffffffffffffffffffffffffffff1663a9059cbb33600460009054906101000a900473ffffffffffffffffffffffffffffffffffffffff1673ffffffffffffffffffffffffffffffffffffffff166370a08231306040518263ffffffff1660e01b8152600401610585919061290c565b602060405180830381865afa1580156105a2573d6000803e3d6000fd5b505050506040513d601f19601f820116820180604052508101906105c69190612a8c565b6040518363ffffffff1660e01b81526004016105e3929190612ab9565b6020604051808303816000875af1158015610602573d6000803e3d6000fd5b505050506040513d601f19601f820116820180604052508101906106269190612af7565b50565b610631611acd565b6000601060003373ffffffffffffffffffffffffffffffffffffffff1673ffffffffffffffffffffffffffffffffffffffff168152602001908152602001600020604051806080016040529081600082018054806020026020016040519081016040528092919081815260200182805480156106cc57602002820191906000526020600020905b8154815260200190600101908083116106b8575b505050505081526020016001820180548060200260200160405190810160405280929190818152602001828054801561072457602002820191906000526020600020905b815481526020019060010190808311610710575b505050505081526020016002820180548060200260200160405190810160405280929190818152602001828054801561077c57602002820191906000526020600020905b815481526020019060010190808311610768575b50505050508152602001600382018054806020026020016040519081016040528092919081815260200182805480156107f957602002820191906000526020600020906000905b82829054906101000a900460ff161515815260200190600101906020826000010492830192600103820291508084116107c35790505b50505050508152505090506000806108118433611b1c565b9150915080610855576040517f08c379a000000000000000000000000000000000000000000000000000000000815260040161084c90612b81565b60405180910390fd5b603c6006846040015184815181106108705761086f612ba1565b5b60200260200101516003811061088957610888612ba1565b5b600302016000015461089b9190612bff565b836020015183815181106108b2576108b1612ba1565b5b60200260200101516108c49190612c59565b4211610905576040517f08c379a00000000000000000000000000000000000000000000000000000000081526004016108fc90612d21565b60405180910390fd5b8260600151828151811061091c5761091b612ba1565b5b6020026020010151610963576040517f08c379a000000000000000000000000000000000000000000000000000000000815260040161095a90612d8d565b60405180910390fd5b600260009054906101000a900473ffffffffffffffffffffffffffffffffffffffff1673ffffffffffffffffffffffffffffffffffffffff166342842e0e3033876040518463ffffffff1660e01b81526004016109c293929190612dad565b600060405180830381600087803b1580156109dc57600080fd5b505af11580156109f0573d6000803e3d6000fd5b505050506000600684604001518481518110610a0f57610a0e612ba1565b5b602002602001015160038110610a2857610a27612ba1565b5b600302016002015490503373ffffffffffffffffffffffffffffffffffffffff16600f600087815260200190815260200160002060009054906101000a900473ffffffffffffffffffffffffffffffffffffffff1673ffffffffffffffffffffffffffffffffffffffff1603610aa857600381610aa59190612bff565b90505b60011515600460009054906101000a900473ffffffffffffffffffffffffffffffffffffffff1673ffffffffffffffffffffffffffffffffffffffff1663a9059cbb33846040518363ffffffff1660e01b8152600401610b09929190612ab9565b6020604051808303816000875af1158015610b28573d6000803e3d6000fd5b505050506040513d601f19601f82011682018060405250810190610b4c9190612af7565b151503610b6257610b5d3384611d60565b610b67565b600080fd5b6000600f600087815260200190815260200160002060006101000a81548173ffffffffffffffffffffffffffffffffffffffff021916908373ffffffffffffffffffffffffffffffffffffffff1602179055507f385f74ea359bd3473219eab4b703a673523551cc58869e7d2e22b7fec435d0d3338683604051610bed93929190612de4565b60405180910390a150505050610c016122a3565b50565b3373ffffffffffffffffffffffffffffffffffffffff16600260009054906101000a900473ffffffffffffffffffffffffffffffffffffffff1673ffffffffffffffffffffffffffffffffffffffff16636352211e846040518263ffffffff1660e01b8152600401610c769190612e1b565b602060405180830381865afa158015610c93573d6000803e3d6000fd5b505050506040513d601f19601f82011682018060405250810190610cb79190612e4b565b73ffffffffffffffffffffffffffffffffffffffff1614610d0d576040517f08c379a0000000000000000000000000000000000000000000000000000000008152600401610d0490612ec4565b60405180910390fd5b3373ffffffffffffffffffffffffffffffffffffffff16600360009054906101000a900473ffffffffffffffffffffffffffffffffffffffff1673ffffffffffffffffffffffffffffffffffffffff16636352211e836040518263ffffffff1660e01b8152600401610d7f9190612e1b565b602060405180830381865afa158015610d9c573d6000803e3d6000fd5b505050506040513d601f19601f82011682018060405250810190610dc09190612e4b565b73ffffffffffffffffffffffffffffffffffffffff1614610e16576040517f08c379a0000000000000000000000000000000000000000000000000000000008152600401610e0d90612f30565b60405180910390fd5b600360009054906101000a900473ffffffffffffffffffffffffffffffffffffffff1673ffffffffffffffffffffffffffffffffffffffff166342842e0e3361dead846040518463ffffffff1660e01b8152600401610e7793929190612dad565b600060405180830381600087803b158015610e9157600080fd5b505af1158015610ea5573d6000803e3d6000fd5b5050505033600f600084815260200190815260200160002060006101000a81548173ffffffffffffffffffffffffffffffffffffffff021916908373ffffffffffffffffffffffffffffffffffffffff1602179055507f1ced9949daf4ce5c9fef2d1879171ac185d864d882af7281a80e3cb6bd4f70ee3383604051610f2c929190612ab9565b60405180910390a15050565b610f40611acd565b3373ffffffffffffffffffffffffffffffffffffffff16600260009054906101000a900473ffffffffffffffffffffffffffffffffffffffff1673ffffffffffffffffffffffffffffffffffffffff16636352211e856040518263ffffffff1660e01b8152600401610fb29190612e1b565b602060405180830381865afa158015610fcf573d6000803e3d6000fd5b505050506040513d601f19601f82011682018060405250810190610ff39190612e4b565b73ffffffffffffffffffffffffffffffffffffffff1614611049576040517f08c379a000000000000000000000000000000000000000000000000000000000815260040161104090612ec4565b60405180910390fd5b6000821015801561105a5750600382105b611099576040517f08c379a000000000000000000000000000000000000000000000000000000000815260040161109090612f9c565b60405180910390fd5b801561130057600682600381106110b3576110b2612ba1565b5b6003020160010154600460009054906101000a900473ffffffffffffffffffffffffffffffffffffffff1673ffffffffffffffffffffffffffffffffffffffff166370a08231336040518263ffffffff1660e01b8152600401611116919061290c565b602060405180830381865afa158015611133573d6000803e3d6000fd5b505050506040513d601f19601f820116820180604052508101906111579190612a8c565b1015611198576040517f08c379a000000000000000000000000000000000000000000000000000000000815260040161118f9061302e565b60405180910390fd5b60011515600460009054906101000a900473ffffffffffffffffffffffffffffffffffffffff1673ffffffffffffffffffffffffffffffffffffffff166323b872dd3330600687600381106111f0576111ef612ba1565b5b60030201600101546040518463ffffffff1660e01b815260040161121693929190612dad565b6020604051808303816000875af1158015611235573d6000803e3d6000fd5b505050506040513d601f19601f820116820180604052508101906112599190612af7565b1515036112f657600260009054906101000a900473ffffffffffffffffffffffffffffffffffffffff1673ffffffffffffffffffffffffffffffffffffffff166342842e0e3330866040518463ffffffff1660e01b81526004016112bf93929190612dad565b600060405180830381600087803b1580156112d957600080fd5b505af11580156112ed573d6000803e3d6000fd5b505050506112fb565b600080fd5b6113b4565b600260009054906101000a900473ffffffffffffffffffffffffffffffffffffffff1673ffffffffffffffffffffffffffffffffffffffff166342842e0e33600560009054906101000a900473ffffffffffffffffffffffffffffffffffffffff16866040518463ffffffff1660e01b815260040161138193929190612dad565b600060405180830381600087803b15801561139b57600080fd5b505af11580156113af573d6000803e3d6000fd5b505050505b601060003373ffffffffffffffffffffffffffffffffffffffff1673ffffffffffffffffffffffffffffffffffffffff168152602001908152602001600020600001839080600181540180825580915050600190039060005260206000200160009091909190915055601060003373ffffffffffffffffffffffffffffffffffffffff1673ffffffffffffffffffffffffffffffffffffffff168152602001908152602001600020600101429080600181540180825580915050600190039060005260206000200160009091909190915055601060003373ffffffffffffffffffffffffffffffffffffffff1673ffffffffffffffffffffffffffffffffffffffff168152602001908152602001600020600201829080600181540180825580915050600190039060005260206000200160009091909190915055601060003373ffffffffffffffffffffffffffffffffffffffff1673ffffffffffffffffffffffffffffffffffffffff1681526020019081526020016000206003018190806001815401808255809150506001900390600052602060002090602091828204019190069091909190916101000a81548160ff0219169083151502179055507f37abc30d0dfe643dbd2e840e90b3f428f4bba7e3ef3d401fd00295aba92356973384426040516115a693929190612de4565b60405180910390a16115b66122a3565b505050565b600360009054906101000a900473ffffffffffffffffffffffffffffffffffffffff1681565b600460009054906101000a900473ffffffffffffffffffffffffffffffffffffffff1681565b6060601060008373ffffffffffffffffffffffffffffffffffffffff1673ffffffffffffffffffffffffffffffffffffffff16815260200190815260200160002060000180548060200260200160405190810160405280929190818152602001828054801561169557602002820191906000526020600020905b815481526020019060010190808311611681575b50505050509050919050565b6116a9611a4f565b6116b360006122ad565b565b600560009054906101000a900473ffffffffffffffffffffffffffffffffffffffff1681565b6000600160009054906101000a900473ffffffffffffffffffffffffffffffffffffffff16905090565b6060601060008373ffffffffffffffffffffffffffffffffffffffff1673ffffffffffffffffffffffffffffffffffffffff16815260200190815260200160002060010180548060200260200160405190810160405280929190818152602001828054801561179357602002820191906000526020600020905b81548152602001906001019080831161177f575b50505050509050919050565b600f6020528060005260406000206000915054906101000a900473ffffffffffffffffffffffffffffffffffffffff1681565b600260009054906101000a900473ffffffffffffffffffffffffffffffffffffffff1681565b6006816003811061180857600080fd5b600302016000915090508060000154908060010154908060020154905083565b6060601060008373ffffffffffffffffffffffffffffffffffffffff1673ffffffffffffffffffffffffffffffffffffffff1681526020019081526020016000206003018054806020026020016040519081016040528092919081815260200182805480156118db57602002820191906000526020600020906000905b82829054906101000a900460ff161515815260200190600101906020826000010492830192600103820291508084116118a55790505b50505050509050919050565b600080601060003373ffffffffffffffffffffffffffffffffffffffff1673ffffffffffffffffffffffffffffffffffffffff16815260200190815260200160002060000180549050905060005b818110156119c05783601060003373ffffffffffffffffffffffffffffffffffffffff1673ffffffffffffffffffffffffffffffffffffffff168152602001908152602001600020600001828154811061199257611991612ba1565b5b9060005260206000200154036119ad576001925050506119c7565b80806119b89061304e565b915050611935565b5060009150505b919050565b6119d4611a4f565b600073ffffffffffffffffffffffffffffffffffffffff168173ffffffffffffffffffffffffffffffffffffffff1603611a43576040517f08c379a0000000000000000000000000000000000000000000000000000000008152600401611a3a90613108565b60405180910390fd5b611a4c816122ad565b50565b611a57612373565b73ffffffffffffffffffffffffffffffffffffffff16611a756116db565b73ffffffffffffffffffffffffffffffffffffffff1614611acb576040517f08c379a0000000000000000000000000000000000000000000000000000000008152600401611ac290613174565b60405180910390fd5b565b600260005403611b12576040517f08c379a0000000000000000000000000000000000000000000000000000000008152600401611b09906131e0565b60405180910390fd5b6002600081905550565b6000806000601060008573ffffffffffffffffffffffffffffffffffffffff1673ffffffffffffffffffffffffffffffffffffffff16815260200190815260200160002060405180608001604052908160008201805480602002602001604051908101604052809291908181526020018280548015611bba57602002820191906000526020600020905b815481526020019060010190808311611ba6575b5050505050815260200160018201805480602002602001604051908101604052809291908181526020018280548015611c1257602002820191906000526020600020905b815481526020019060010190808311611bfe575b5050505050815260200160028201805480602002602001604051908101604052809291908181526020018280548015611c6a57602002820191906000526020600020905b815481526020019060010190808311611c56575b5050505050815260200160038201805480602002602001604051908101604052809291908181526020018280548015611ce757602002820191906000526020600020906000905b82829054906101000a900460ff16151581526020019060010190602082600001049283019260010382029150808411611cb15790505b50505050508152505090506000806000836000015151905060005b81811015611d4e578885600001518281518110611d2257611d21612ba1565b5b602002602001015103611d3b5780935060019250611d4e565b8080611d469061304e565b915050611d02565b50828295509550505050509250929050565b60006001601060008573ffffffffffffffffffffffffffffffffffffffff1673ffffffffffffffffffffffffffffffffffffffff16815260200190815260200160002060000180549050611db49190613200565b9050601060008473ffffffffffffffffffffffffffffffffffffffff1673ffffffffffffffffffffffffffffffffffffffff1681526020019081526020016000206001018181548110611e0a57611e09612ba1565b5b9060005260206000200154601060008573ffffffffffffffffffffffffffffffffffffffff1673ffffffffffffffffffffffffffffffffffffffff1681526020019081526020016000206001018381548110611e6957611e68612ba1565b5b9060005260206000200181905550601060008473ffffffffffffffffffffffffffffffffffffffff1673ffffffffffffffffffffffffffffffffffffffff168152602001908152602001600020600101805480611ec957611ec8613234565b5b60019003818190600052602060002001600090559055601060008473ffffffffffffffffffffffffffffffffffffffff1673ffffffffffffffffffffffffffffffffffffffff1681526020019081526020016000206000018181548110611f3357611f32612ba1565b5b9060005260206000200154601060008573ffffffffffffffffffffffffffffffffffffffff1673ffffffffffffffffffffffffffffffffffffffff1681526020019081526020016000206000018381548110611f9257611f91612ba1565b5b9060005260206000200181905550601060008473ffffffffffffffffffffffffffffffffffffffff1673ffffffffffffffffffffffffffffffffffffffff168152602001908152602001600020600001805480611ff257611ff1613234565b5b60019003818190600052602060002001600090559055601060008473ffffffffffffffffffffffffffffffffffffffff1673ffffffffffffffffffffffffffffffffffffffff168152602001908152602001600020600201818154811061205c5761205b612ba1565b5b9060005260206000200154601060008573ffffffffffffffffffffffffffffffffffffffff1673ffffffffffffffffffffffffffffffffffffffff16815260200190815260200160002060020183815481106120bb576120ba612ba1565b5b9060005260206000200181905550601060008473ffffffffffffffffffffffffffffffffffffffff1673ffffffffffffffffffffffffffffffffffffffff16815260200190815260200160002060020180548061211b5761211a613234565b5b60019003818190600052602060002001600090559055601060008473ffffffffffffffffffffffffffffffffffffffff1673ffffffffffffffffffffffffffffffffffffffff168152602001908152602001600020600301818154811061218557612184612ba1565b5b90600052602060002090602091828204019190069054906101000a900460ff16601060008573ffffffffffffffffffffffffffffffffffffffff1673ffffffffffffffffffffffffffffffffffffffff16815260200190815260200160002060030183815481106121f9576121f8612ba1565b5b90600052602060002090602091828204019190066101000a81548160ff021916908315150217905550601060008473ffffffffffffffffffffffffffffffffffffffff1673ffffffffffffffffffffffffffffffffffffffff16815260200190815260200160002060030180548061227457612273613234565b5b60019003818190600052602060002090602091828204019190066101000a81549060ff02191690559055505050565b6001600081905550565b6000600160009054906101000a900473ffffffffffffffffffffffffffffffffffffffff16905081600160006101000a81548173ffffffffffffffffffffffffffffffffffffffff021916908373ffffffffffffffffffffffffffffffffffffffff1602179055508173ffffffffffffffffffffffffffffffffffffffff168173ffffffffffffffffffffffffffffffffffffffff167f8be0079c531659141344cd1fd0a4f28419497f9722a3daafe3b4186f6b6457e060405160405180910390a35050565b600033905090565b6000604051905090565b600080fd5b600080fd5b600073ffffffffffffffffffffffffffffffffffffffff82169050919050565b60006123ba8261238f565b9050919050565b6123ca816123af565b81146123d557600080fd5b50565b6000813590506123e7816123c1565b92915050565b60006020828403121561240357612402612385565b5b6000612411848285016123d8565b91505092915050565b600081519050919050565b600082825260208201905092915050565b6000819050602082019050919050565b6000819050919050565b61245981612446565b82525050565b600061246b8383612450565b60208301905092915050565b6000602082019050919050565b600061248f8261241a565b6124998185612425565b93506124a483612436565b8060005b838110156124d55781516124bc888261245f565b97506124c783612477565b9250506001810190506124a8565b5085935050505092915050565b600060208201905081810360008301526124fc8184612484565b905092915050565b61250d81612446565b811461251857600080fd5b50565b60008135905061252a81612504565b92915050565b600080fd5b600080fd5b6000601f19601f8301169050919050565b7f4e487b7100000000000000000000000000000000000000000000000000000000600052604160045260246000fd5b6125838261253a565b810181811067ffffffffffffffff821117156125a2576125a161254b565b5b80604052505050565b60006125b561237b565b90506125c1828261257a565b919050565b600067ffffffffffffffff8211156125e1576125e061254b565b5b6125ea8261253a565b9050602081019050919050565b82818337600083830152505050565b6000612619612614846125c6565b6125ab565b90508281526020810184848401111561263557612634612535565b5b6126408482856125f7565b509392505050565b600082601f83011261265d5761265c612530565b5b813561266d848260208601612606565b91505092915050565b600080600080608085870312156126905761268f612385565b5b600061269e878288016123d8565b94505060206126af878288016123d8565b93505060406126c08782880161251b565b925050606085013567ffffffffffffffff8111156126e1576126e061238a565b5b6126ed87828801612648565b91505092959194509250565b60007fffffffff0000000000000000000000000000000000000000000000000000000082169050919050565b61272e816126f9565b82525050565b60006020820190506127496000830184612725565b92915050565b60006020828403121561276557612764612385565b5b60006127738482850161251b565b91505092915050565b6000806040838503121561279357612792612385565b5b60006127a18582860161251b565b92505060206127b28582860161251b565b9150509250929050565b60008115159050919050565b6127d1816127bc565b81146127dc57600080fd5b50565b6000813590506127ee816127c8565b92915050565b60008060006060848603121561280d5761280c612385565b5b600061281b8682870161251b565b935050602061282c8682870161251b565b925050604061283d868287016127df565b9150509250925092565b6000819050919050565b600061286c6128676128628461238f565b612847565b61238f565b9050919050565b600061287e82612851565b9050919050565b600061289082612873565b9050919050565b6128a081612885565b82525050565b60006020820190506128bb6000830184612897565b92915050565b60006128cc82612873565b9050919050565b6128dc816128c1565b82525050565b60006020820190506128f760008301846128d3565b92915050565b612906816123af565b82525050565b600060208201905061292160008301846128fd565b92915050565b61293081612446565b82525050565b600060608201905061294b6000830186612927565b6129586020830185612927565b6129656040830184612927565b949350505050565b600081519050919050565b600082825260208201905092915050565b6000819050602082019050919050565b6129a2816127bc565b82525050565b60006129b48383612999565b60208301905092915050565b6000602082019050919050565b60006129d88261296d565b6129e28185612978565b93506129ed83612989565b8060005b83811015612a1e578151612a0588826129a8565b9750612a10836129c0565b9250506001810190506129f1565b5085935050505092915050565b60006020820190508181036000830152612a4581846129cd565b905092915050565b612a56816127bc565b82525050565b6000602082019050612a716000830184612a4d565b92915050565b600081519050612a8681612504565b92915050565b600060208284031215612aa257612aa1612385565b5b6000612ab084828501612a77565b91505092915050565b6000604082019050612ace60008301856128fd565b612adb6020830184612927565b9392505050565b600081519050612af1816127c8565b92915050565b600060208284031215612b0d57612b0c612385565b5b6000612b1b84828501612ae2565b91505092915050565b600082825260208201905092915050565b7f496e646578206e6f7420666f756e6420666f722074686973207374616b65722e600082015250565b6000612b6b602083612b24565b9150612b7682612b35565b602082019050919050565b60006020820190508181036000830152612b9a81612b5e565b9050919050565b7f4e487b7100000000000000000000000000000000000000000000000000000000600052603260045260246000fd5b7f4e487b7100000000000000000000000000000000000000000000000000000000600052601160045260246000fd5b6000612c0a82612446565b9150612c1583612446565b9250817fffffffffffffffffffffffffffffffffffffffffffffffffffffffffffffffff0483118215151615612c4e57612c4d612bd0565b5b828202905092915050565b6000612c6482612446565b9150612c6f83612446565b9250827fffffffffffffffffffffffffffffffffffffffffffffffffffffffffffffffff03821115612ca457612ca3612bd0565b5b828201905092915050565b7f43616e6e6f7420756e7374616b65206265666f72652074686520656e64206f6660008201527f20746865207374616b696e67206475726174696f6e2e00000000000000000000602082015250565b6000612d0b603683612b24565b9150612d1682612caf565b604082019050919050565b60006020820190508181036000830152612d3a81612cfe565b9050919050565b7f43616e6e6f7420756e7374616b6520656174656e20676f6f73652e0000000000600082015250565b6000612d77601b83612b24565b9150612d8282612d41565b602082019050919050565b60006020820190508181036000830152612da681612d6a565b9050919050565b6000606082019050612dc260008301866128fd565b612dcf60208301856128fd565b612ddc6040830184612927565b949350505050565b6000606082019050612df960008301866128fd565b612e066020830185612927565b612e136040830184612927565b949350505050565b6000602082019050612e306000830184612927565b92915050565b600081519050612e45816123c1565b92915050565b600060208284031215612e6157612e60612385565b5b6000612e6f84828501612e36565b91505092915050565b7f596f7520646f206e6f74206f776e2074686973204e46542e0000000000000000600082015250565b6000612eae601883612b24565b9150612eb982612e78565b602082019050919050565b60006020820190508181036000830152612edd81612ea1565b9050919050565b7f596f7520646f206e6f74206f776e2074686973204265616e2e00000000000000600082015250565b6000612f1a601983612b24565b9150612f2582612ee4565b602082019050919050565b60006020820190508181036000830152612f4981612f0d565b9050919050565b7f496e76616c6964206475726174696f6e2e000000000000000000000000000000600082015250565b6000612f86601183612b24565b9150612f9182612f50565b602082019050919050565b60006020820190508181036000830152612fb581612f79565b9050919050565b7f596f7520646f206e6f74206f776e20656e6f7567682074616c6520746f6b656e60008201527f732e000000000000000000000000000000000000000000000000000000000000602082015250565b6000613018602283612b24565b915061302382612fbc565b604082019050919050565b600060208201905081810360008301526130478161300b565b9050919050565b600061305982612446565b91507fffffffffffffffffffffffffffffffffffffffffffffffffffffffffffffffff820361308b5761308a612bd0565b5b600182019050919050565b7f4f776e61626c653a206e6577206f776e657220697320746865207a65726f206160008201527f6464726573730000000000000000000000000000000000000000000000000000602082015250565b60006130f2602683612b24565b91506130fd82613096565b604082019050919050565b60006020820190508181036000830152613121816130e5565b9050919050565b7f4f776e61626c653a2063616c6c6572206973206e6f7420746865206f776e6572600082015250565b600061315e602083612b24565b915061316982613128565b602082019050919050565b6000602082019050818103600083015261318d81613151565b9050919050565b7f5265656e7472616e637947756172643a207265656e7472616e742063616c6c00600082015250565b60006131ca601f83612b24565b91506131d582613194565b602082019050919050565b600060208201905081810360008301526131f9816131bd565b9050919050565b600061320b82612446565b915061321683612446565b92508282101561322957613228612bd0565b5b828203905092915050565b7f4e487b7100000000000000000000000000000000000000000000000000000000600052603160045260246000fdfea26469706673582212203f283cb6cceac97b2f1ba992ebb27e650c210b98c791b1ea93525c40e608166064736f6c634300080d0033",
  "linkReferences": {},
  "deployedLinkReferences": {}
}