{
  "_format": "hh-sol-artifact-1",
  "contractName": "NFTStaker",
  "sourceName": "src/backend/contracts/NFTStaker.sol",
  "abi": [
    {
      "inputs": [
        {
          "internalType": "address",
          "name": "_nftAddress",
          "type": "address"
        },
        {
          "internalType": "address",
          "name": "_wolfAddress",
          "type": "address"
        }
      ],
      "stateMutability": "nonpayable",
      "type": "constructor"
    },
    {
      "anonymous": false,
      "inputs": [
        {
          "indexed": false,
          "internalType": "address",
          "name": "user",
          "type": "address"
        },
        {
          "indexed": false,
          "internalType": "uint256",
          "name": "tokenId",
          "type": "uint256"
        }
      ],
      "name": "FeedSuccessful",
      "type": "event"
    },
    {
      "anonymous": false,
      "inputs": [
        {
          "indexed": true,
          "internalType": "address",
          "name": "previousOwner",
          "type": "address"
        },
        {
          "indexed": true,
          "internalType": "address",
          "name": "newOwner",
          "type": "address"
        }
      ],
      "name": "OwnershipTransferred",
      "type": "event"
    },
    {
      "anonymous": false,
      "inputs": [
        {
          "indexed": false,
          "internalType": "address",
          "name": "user",
          "type": "address"
        },
        {
          "indexed": false,
          "internalType": "uint256",
          "name": "tokenId",
          "type": "uint256"
        },
        {
          "indexed": false,
          "internalType": "uint256",
          "name": "timestamp",
          "type": "uint256"
        }
      ],
      "name": "StakeSuccessful",
      "type": "event"
    },
    {
      "anonymous": false,
      "inputs": [
        {
          "indexed": false,
          "internalType": "address",
          "name": "user",
          "type": "address"
        },
        {
          "indexed": false,
          "internalType": "uint256",
          "name": "tokenId",
          "type": "uint256"
        },
        {
          "indexed": false,
          "internalType": "uint256",
          "name": "reward",
          "type": "uint256"
        }
      ],
      "name": "UnstakeSuccessful",
      "type": "event"
    },
    {
      "inputs": [
        {
          "internalType": "uint256",
          "name": "",
          "type": "uint256"
        }
      ],
      "name": "durations",
      "outputs": [
        {
          "internalType": "uint256",
          "name": "daysCount",
          "type": "uint256"
        },
        {
          "internalType": "uint256",
          "name": "taleflyCount",
          "type": "uint256"
        },
        {
          "internalType": "uint256",
          "name": "rewardCount",
          "type": "uint256"
        }
      ],
      "stateMutability": "view",
      "type": "function"
    },
    {
      "inputs": [
        {
          "internalType": "uint256",
          "name": "_tokenId",
          "type": "uint256"
        }
      ],
      "name": "feedGoose",
      "outputs": [],
      "stateMutability": "nonpayable",
      "type": "function"
    },
    {
      "inputs": [
        {
          "internalType": "address",
          "name": "_user",
          "type": "address"
        }
      ],
      "name": "getStakedDurations",
      "outputs": [
        {
          "internalType": "uint256[]",
          "name": "",
          "type": "uint256[]"
        }
      ],
      "stateMutability": "view",
      "type": "function"
    },
    {
      "inputs": [
        {
          "internalType": "address",
          "name": "_user",
          "type": "address"
        }
      ],
      "name": "getStakedTaleflyUsed",
      "outputs": [
        {
          "internalType": "bool[]",
          "name": "",
          "type": "bool[]"
        }
      ],
      "stateMutability": "view",
      "type": "function"
    },
    {
      "inputs": [
        {
          "internalType": "address",
          "name": "_user",
          "type": "address"
        }
      ],
      "name": "getStakedTimestamps",
      "outputs": [
        {
          "internalType": "uint256[]",
          "name": "",
          "type": "uint256[]"
        }
      ],
      "stateMutability": "view",
      "type": "function"
    },
    {
      "inputs": [
        {
          "internalType": "address",
          "name": "_user",
          "type": "address"
        }
      ],
      "name": "getStakedTokens",
      "outputs": [
        {
          "internalType": "uint256[]",
          "name": "",
          "type": "uint256[]"
        }
      ],
      "stateMutability": "view",
      "type": "function"
    },
    {
      "inputs": [
        {
          "internalType": "uint256",
          "name": "_tokenId",
          "type": "uint256"
        }
      ],
      "name": "isTokenStaked",
      "outputs": [
        {
          "internalType": "bool",
          "name": "",
          "type": "bool"
        }
      ],
      "stateMutability": "view",
      "type": "function"
    },
    {
      "inputs": [
        {
          "internalType": "address",
          "name": "",
          "type": "address"
        },
        {
          "internalType": "address",
          "name": "",
          "type": "address"
        },
        {
          "internalType": "uint256",
          "name": "",
          "type": "uint256"
        },
        {
          "internalType": "bytes",
          "name": "",
          "type": "bytes"
        }
      ],
      "name": "onERC721Received",
      "outputs": [
        {
          "internalType": "bytes4",
          "name": "",
          "type": "bytes4"
        }
      ],
      "stateMutability": "nonpayable",
      "type": "function"
    },
    {
      "inputs": [],
      "name": "owner",
      "outputs": [
        {
          "internalType": "address",
          "name": "",
          "type": "address"
        }
      ],
      "stateMutability": "view",
      "type": "function"
    },
    {
      "inputs": [],
      "name": "parentNFT",
      "outputs": [
        {
          "internalType": "contract ERC721A",
          "name": "",
          "type": "address"
        }
      ],
      "stateMutability": "view",
      "type": "function"
    },
    {
      "inputs": [],
      "name": "renounceOwnership",
      "outputs": [],
      "stateMutability": "nonpayable",
      "type": "function"
    },
    {
      "inputs": [
        {
          "internalType": "address",
          "name": "_tokenAddress",
          "type": "address"
        }
      ],
      "name": "setTokenAddress",
      "outputs": [],
      "stateMutability": "nonpayable",
      "type": "function"
    },
    {
      "inputs": [
        {
          "internalType": "uint256",
          "name": "_tokenId",
          "type": "uint256"
        },
        {
          "internalType": "uint256",
          "name": "_duration",
          "type": "uint256"
        },
        {
          "internalType": "bool",
          "name": "_useTalefly",
          "type": "bool"
        }
      ],
      "name": "stake",
      "outputs": [],
      "stateMutability": "nonpayable",
      "type": "function"
    },
    {
      "inputs": [],
      "name": "taleToken",
      "outputs": [
        {
          "internalType": "contract ERC20",
          "name": "",
          "type": "address"
        }
      ],
      "stateMutability": "view",
      "type": "function"
    },
    {
      "inputs": [
        {
          "internalType": "uint256",
          "name": "",
          "type": "uint256"
        }
      ],
      "name": "tokenFed",
      "outputs": [
        {
          "internalType": "address",
          "name": "",
          "type": "address"
        }
      ],
      "stateMutability": "view",
      "type": "function"
    },
    {
      "inputs": [
        {
          "internalType": "address",
          "name": "newOwner",
          "type": "address"
        }
      ],
      "name": "transferOwnership",
      "outputs": [],
      "stateMutability": "nonpayable",
      "type": "function"
    },
    {
      "inputs": [
        {
          "internalType": "uint256",
          "name": "_tokenId",
          "type": "uint256"
        }
      ],
      "name": "unstake",
      "outputs": [],
      "stateMutability": "nonpayable",
      "type": "function"
    },
    {
      "inputs": [],
      "name": "withdrawTalefly",
      "outputs": [],
      "stateMutability": "nonpayable",
      "type": "function"
    },
    {
      "inputs": [],
      "name": "wolfAddress",
      "outputs": [
        {
          "internalType": "address",
          "name": "",
          "type": "address"
        }
      ],
      "stateMutability": "view",
      "type": "function"
    }
  ],
  "bytecode": "0x60806040523480156200001157600080fd5b50604051620033bb380380620033bb833981810160405281019062000037919062000332565b60016000819055506200005f62000053620001fa60201b60201c565b6200020260201b60201c565b81600260006101000a81548173ffffffffffffffffffffffffffffffffffffffff021916908373ffffffffffffffffffffffffffffffffffffffff16021790555080600460006101000a81548173ffffffffffffffffffffffffffffffffffffffff021916908373ffffffffffffffffffffffffffffffffffffffff160217905550604051806060016040528060078152602001600581526020016007815250600560006003811062000117576200011662000379565b5b600302016000820151816000015560208201518160010155604082015181600201559050506040518060600160405280601e8152602001600f81526020016023815250600560016003811062000172576200017162000379565b5b600302016000820151816000015560208201518160010155604082015181600201559050506040518060600160405280603c81526020016019815260200160508152506005600260038110620001cd57620001cc62000379565b5b600302016000820151816000015560208201518160010155604082015181600201559050505050620003a8565b600033905090565b6000600160009054906101000a900473ffffffffffffffffffffffffffffffffffffffff16905081600160006101000a81548173ffffffffffffffffffffffffffffffffffffffff021916908373ffffffffffffffffffffffffffffffffffffffff1602179055508173ffffffffffffffffffffffffffffffffffffffff168173ffffffffffffffffffffffffffffffffffffffff167f8be0079c531659141344cd1fd0a4f28419497f9722a3daafe3b4186f6b6457e060405160405180910390a35050565b600080fd5b600073ffffffffffffffffffffffffffffffffffffffff82169050919050565b6000620002fa82620002cd565b9050919050565b6200030c81620002ed565b81146200031857600080fd5b50565b6000815190506200032c8162000301565b92915050565b600080604083850312156200034c576200034b620002c8565b5b60006200035c858286016200031b565b92505060206200036f858286016200031b565b9150509250929050565b7f4e487b7100000000000000000000000000000000000000000000000000000000600052603260045260246000fd5b61300380620003b86000396000f3fe608060405234801561001057600080fd5b50600436106101215760003560e01c80638709cce6116100ad578063bc20a7af11610071578063bc20a7af146102f6578063c8add21014610328578063e692b56614610358578063f0a5242414610374578063f2fde38b146103a457610121565b80638709cce61461023c5780638da5cb5b1461025a578063a04ebd4b14610278578063a672b9c0146102a8578063b8e33fb2146102d857610121565b80632e17de78116100f45780632e17de78146101ac578063561b2463146101c85780635e82f7e9146101e457806363c28db114610202578063715018a61461023257610121565b80630435362914610126578063150b7a021461015657806326a4e8d2146101865780632aab942f146101a2575b600080fd5b610140600480360381019061013b9190612203565b6103c0565b60405161014d91906122f8565b60405180910390f35b610170600480360381019061016b919061248c565b61045a565b60405161017d919061254a565b60405180910390f35b6101a0600480360381019061019b9190612203565b61046e565b005b6101aa6104ba565b005b6101c660048036038101906101c19190612565565b610600565b005b6101e260048036038101906101dd91906125ca565b610bdd565b005b6101ec611260565b6040516101f9919061267c565b60405180910390f35b61021c60048036038101906102179190612203565b611286565b60405161022991906122f8565b60405180910390f35b61023a611320565b005b610244611334565b60405161025191906126a6565b60405180910390f35b61026261135a565b60405161026f91906126a6565b60405180910390f35b610292600480360381019061028d9190612203565b611384565b60405161029f91906122f8565b60405180910390f35b6102c260048036038101906102bd9190612565565b61141e565b6040516102cf91906126a6565b60405180910390f35b6102e0611451565b6040516102ed91906126e2565b60405180910390f35b610310600480360381019061030b9190612565565b611477565b60405161031f9392919061270c565b60405180910390f35b610342600480360381019061033d9190612203565b6114a7565b60405161034f9190612801565b60405180910390f35b610372600480360381019061036d9190612565565b611566565b005b61038e60048036038101906103899190612565565b6116fd565b60405161039b9190612832565b60405180910390f35b6103be60048036038101906103b99190612203565b6117e2565b005b6060600f60008373ffffffffffffffffffffffffffffffffffffffff1673ffffffffffffffffffffffffffffffffffffffff16815260200190815260200160002060020180548060200260200160405190810160405280929190818152602001828054801561044e57602002820191906000526020600020905b81548152602001906001019080831161043a575b50505050509050919050565b600063150b7a0260e01b9050949350505050565b610476611865565b80600360006101000a81548173ffffffffffffffffffffffffffffffffffffffff021916908373ffffffffffffffffffffffffffffffffffffffff16021790555050565b6104c2611865565b600360009054906101000a900473ffffffffffffffffffffffffffffffffffffffff1673ffffffffffffffffffffffffffffffffffffffff1663a9059cbb33600360009054906101000a900473ffffffffffffffffffffffffffffffffffffffff1673ffffffffffffffffffffffffffffffffffffffff166370a08231306040518263ffffffff1660e01b815260040161055c91906126a6565b602060405180830381865afa158015610579573d6000803e3d6000fd5b505050506040513d601f19601f8201168201806040525081019061059d9190612862565b6040518363ffffffff1660e01b81526004016105ba92919061288f565b6020604051808303816000875af11580156105d9573d6000803e3d6000fd5b505050506040513d601f19601f820116820180604052508101906105fd91906128cd565b50565b6106086118e3565b6000600f60003373ffffffffffffffffffffffffffffffffffffffff1673ffffffffffffffffffffffffffffffffffffffff168152602001908152602001600020604051806080016040529081600082018054806020026020016040519081016040528092919081815260200182805480156106a357602002820191906000526020600020905b81548152602001906001019080831161068f575b50505050508152602001600182018054806020026020016040519081016040528092919081815260200182805480156106fb57602002820191906000526020600020905b8154815260200190600101908083116106e7575b505050505081526020016002820180548060200260200160405190810160405280929190818152602001828054801561075357602002820191906000526020600020905b81548152602001906001019080831161073f575b50505050508152602001600382018054806020026020016040519081016040528092919081815260200182805480156107d057602002820191906000526020600020906000905b82829054906101000a900460ff1615158152602001906001019060208260000104928301926001038202915080841161079a5790505b50505050508152505090506000806107e88433611932565b915091508061082c576040517f08c379a000000000000000000000000000000000000000000000000000000000815260040161082390612957565b60405180910390fd5b6201518060058460400151848151811061084957610848612977565b5b60200260200101516003811061086257610861612977565b5b600302016000015461087491906129d5565b8360200151838151811061088b5761088a612977565b5b602002602001015161089d9190612a2f565b42116108de576040517f08c379a00000000000000000000000000000000000000000000000000000000081526004016108d590612af7565b60405180910390fd5b826060015182815181106108f5576108f4612977565b5b602002602001015161093c576040517f08c379a000000000000000000000000000000000000000000000000000000000815260040161093390612b63565b60405180910390fd5b600260009054906101000a900473ffffffffffffffffffffffffffffffffffffffff1673ffffffffffffffffffffffffffffffffffffffff166342842e0e3033876040518463ffffffff1660e01b815260040161099b93929190612b83565b600060405180830381600087803b1580156109b557600080fd5b505af11580156109c9573d6000803e3d6000fd5b5050505060006005846040015184815181106109e8576109e7612977565b5b602002602001015160038110610a0157610a00612977565b5b600302016002015490503373ffffffffffffffffffffffffffffffffffffffff16600e600087815260200190815260200160002060009054906101000a900473ffffffffffffffffffffffffffffffffffffffff1673ffffffffffffffffffffffffffffffffffffffff1603610a8157600381610a7e91906129d5565b90505b60011515600360009054906101000a900473ffffffffffffffffffffffffffffffffffffffff1673ffffffffffffffffffffffffffffffffffffffff1663a9059cbb33846040518363ffffffff1660e01b8152600401610ae292919061288f565b6020604051808303816000875af1158015610b01573d6000803e3d6000fd5b505050506040513d601f19601f82011682018060405250810190610b2591906128cd565b151503610b3b57610b363384611b76565b610b40565b600080fd5b6000600e600087815260200190815260200160002060006101000a81548173ffffffffffffffffffffffffffffffffffffffff021916908373ffffffffffffffffffffffffffffffffffffffff1602179055507f385f74ea359bd3473219eab4b703a673523551cc58869e7d2e22b7fec435d0d3338683604051610bc693929190612bba565b60405180910390a150505050610bda6120b9565b50565b610be56118e3565b3373ffffffffffffffffffffffffffffffffffffffff16600260009054906101000a900473ffffffffffffffffffffffffffffffffffffffff1673ffffffffffffffffffffffffffffffffffffffff16636352211e856040518263ffffffff1660e01b8152600401610c579190612bf1565b602060405180830381865afa158015610c74573d6000803e3d6000fd5b505050506040513d601f19601f82011682018060405250810190610c989190612c21565b73ffffffffffffffffffffffffffffffffffffffff1614610cee576040517f08c379a0000000000000000000000000000000000000000000000000000000008152600401610ce590612c9a565b60405180910390fd5b60008210158015610cff5750600382105b610d3e576040517f08c379a0000000000000000000000000000000000000000000000000000000008152600401610d3590612d06565b60405180910390fd5b8015610fa55760058260038110610d5857610d57612977565b5b6003020160010154600360009054906101000a900473ffffffffffffffffffffffffffffffffffffffff1673ffffffffffffffffffffffffffffffffffffffff166370a08231336040518263ffffffff1660e01b8152600401610dbb91906126a6565b602060405180830381865afa158015610dd8573d6000803e3d6000fd5b505050506040513d601f19601f82011682018060405250810190610dfc9190612862565b1015610e3d576040517f08c379a0000000000000000000000000000000000000000000000000000000008152600401610e3490612d98565b60405180910390fd5b60011515600360009054906101000a900473ffffffffffffffffffffffffffffffffffffffff1673ffffffffffffffffffffffffffffffffffffffff166323b872dd333060058760038110610e9557610e94612977565b5b60030201600101546040518463ffffffff1660e01b8152600401610ebb93929190612b83565b6020604051808303816000875af1158015610eda573d6000803e3d6000fd5b505050506040513d601f19601f82011682018060405250810190610efe91906128cd565b151503610f9b57600260009054906101000a900473ffffffffffffffffffffffffffffffffffffffff1673ffffffffffffffffffffffffffffffffffffffff166342842e0e3330866040518463ffffffff1660e01b8152600401610f6493929190612b83565b600060405180830381600087803b158015610f7e57600080fd5b505af1158015610f92573d6000803e3d6000fd5b50505050610fa0565b600080fd5b611059565b600260009054906101000a900473ffffffffffffffffffffffffffffffffffffffff1673ffffffffffffffffffffffffffffffffffffffff166342842e0e33600460009054906101000a900473ffffffffffffffffffffffffffffffffffffffff16866040518463ffffffff1660e01b815260040161102693929190612b83565b600060405180830381600087803b15801561104057600080fd5b505af1158015611054573d6000803e3d6000fd5b505050505b600f60003373ffffffffffffffffffffffffffffffffffffffff1673ffffffffffffffffffffffffffffffffffffffff168152602001908152602001600020600001839080600181540180825580915050600190039060005260206000200160009091909190915055600f60003373ffffffffffffffffffffffffffffffffffffffff1673ffffffffffffffffffffffffffffffffffffffff168152602001908152602001600020600101429080600181540180825580915050600190039060005260206000200160009091909190915055600f60003373ffffffffffffffffffffffffffffffffffffffff1673ffffffffffffffffffffffffffffffffffffffff168152602001908152602001600020600201829080600181540180825580915050600190039060005260206000200160009091909190915055600f60003373ffffffffffffffffffffffffffffffffffffffff1673ffffffffffffffffffffffffffffffffffffffff1681526020019081526020016000206003018190806001815401808255809150506001900390600052602060002090602091828204019190069091909190916101000a81548160ff0219169083151502179055507f37abc30d0dfe643dbd2e840e90b3f428f4bba7e3ef3d401fd00295aba923569733844260405161124b93929190612bba565b60405180910390a161125b6120b9565b505050565b600360009054906101000a900473ffffffffffffffffffffffffffffffffffffffff1681565b6060600f60008373ffffffffffffffffffffffffffffffffffffffff1673ffffffffffffffffffffffffffffffffffffffff16815260200190815260200160002060000180548060200260200160405190810160405280929190818152602001828054801561131457602002820191906000526020600020905b815481526020019060010190808311611300575b50505050509050919050565b611328611865565b61133260006120c3565b565b600460009054906101000a900473ffffffffffffffffffffffffffffffffffffffff1681565b6000600160009054906101000a900473ffffffffffffffffffffffffffffffffffffffff16905090565b6060600f60008373ffffffffffffffffffffffffffffffffffffffff1673ffffffffffffffffffffffffffffffffffffffff16815260200190815260200160002060010180548060200260200160405190810160405280929190818152602001828054801561141257602002820191906000526020600020905b8154815260200190600101908083116113fe575b50505050509050919050565b600e6020528060005260406000206000915054906101000a900473ffffffffffffffffffffffffffffffffffffffff1681565b600260009054906101000a900473ffffffffffffffffffffffffffffffffffffffff1681565b6005816003811061148757600080fd5b600302016000915090508060000154908060010154908060020154905083565b6060600f60008373ffffffffffffffffffffffffffffffffffffffff1673ffffffffffffffffffffffffffffffffffffffff16815260200190815260200160002060030180548060200260200160405190810160405280929190818152602001828054801561155a57602002820191906000526020600020906000905b82829054906101000a900460ff161515815260200190600101906020826000010492830192600103820291508084116115245790505b50505050509050919050565b3373ffffffffffffffffffffffffffffffffffffffff16600260009054906101000a900473ffffffffffffffffffffffffffffffffffffffff1673ffffffffffffffffffffffffffffffffffffffff16636352211e836040518263ffffffff1660e01b81526004016115d89190612bf1565b602060405180830381865afa1580156115f5573d6000803e3d6000fd5b505050506040513d601f19601f820116820180604052508101906116199190612c21565b73ffffffffffffffffffffffffffffffffffffffff161461166f576040517f08c379a000000000000000000000000000000000000000000000000000000000815260040161166690612c9a565b60405180910390fd5b33600e600083815260200190815260200160002060006101000a81548173ffffffffffffffffffffffffffffffffffffffff021916908373ffffffffffffffffffffffffffffffffffffffff1602179055507f1ced9949daf4ce5c9fef2d1879171ac185d864d882af7281a80e3cb6bd4f70ee33826040516116f292919061288f565b60405180910390a150565b600080600f60003373ffffffffffffffffffffffffffffffffffffffff1673ffffffffffffffffffffffffffffffffffffffff16815260200190815260200160002060000180549050905060005b818110156117d65783600f60003373ffffffffffffffffffffffffffffffffffffffff1673ffffffffffffffffffffffffffffffffffffffff16815260200190815260200160002060000182815481106117a8576117a7612977565b5b9060005260206000200154036117c3576001925050506117dd565b80806117ce90612db8565b91505061174b565b5060009150505b919050565b6117ea611865565b600073ffffffffffffffffffffffffffffffffffffffff168173ffffffffffffffffffffffffffffffffffffffff1603611859576040517f08c379a000000000000000000000000000000000000000000000000000000000815260040161185090612e72565b60405180910390fd5b611862816120c3565b50565b61186d612189565b73ffffffffffffffffffffffffffffffffffffffff1661188b61135a565b73ffffffffffffffffffffffffffffffffffffffff16146118e1576040517f08c379a00000000000000000000000000000000000000000000000000000000081526004016118d890612ede565b60405180910390fd5b565b600260005403611928576040517f08c379a000000000000000000000000000000000000000000000000000000000815260040161191f90612f4a565b60405180910390fd5b6002600081905550565b6000806000600f60008573ffffffffffffffffffffffffffffffffffffffff1673ffffffffffffffffffffffffffffffffffffffff168152602001908152602001600020604051806080016040529081600082018054806020026020016040519081016040528092919081815260200182805480156119d057602002820191906000526020600020905b8154815260200190600101908083116119bc575b5050505050815260200160018201805480602002602001604051908101604052809291908181526020018280548015611a2857602002820191906000526020600020905b815481526020019060010190808311611a14575b5050505050815260200160028201805480602002602001604051908101604052809291908181526020018280548015611a8057602002820191906000526020600020905b815481526020019060010190808311611a6c575b5050505050815260200160038201805480602002602001604051908101604052809291908181526020018280548015611afd57602002820191906000526020600020906000905b82829054906101000a900460ff16151581526020019060010190602082600001049283019260010382029150808411611ac75790505b50505050508152505090506000806000836000015151905060005b81811015611b64578885600001518281518110611b3857611b37612977565b5b602002602001015103611b515780935060019250611b64565b8080611b5c90612db8565b915050611b18565b50828295509550505050509250929050565b60006001600f60008573ffffffffffffffffffffffffffffffffffffffff1673ffffffffffffffffffffffffffffffffffffffff16815260200190815260200160002060000180549050611bca9190612f6a565b9050600f60008473ffffffffffffffffffffffffffffffffffffffff1673ffffffffffffffffffffffffffffffffffffffff1681526020019081526020016000206001018181548110611c2057611c1f612977565b5b9060005260206000200154600f60008573ffffffffffffffffffffffffffffffffffffffff1673ffffffffffffffffffffffffffffffffffffffff1681526020019081526020016000206001018381548110611c7f57611c7e612977565b5b9060005260206000200181905550600f60008473ffffffffffffffffffffffffffffffffffffffff1673ffffffffffffffffffffffffffffffffffffffff168152602001908152602001600020600101805480611cdf57611cde612f9e565b5b60019003818190600052602060002001600090559055600f60008473ffffffffffffffffffffffffffffffffffffffff1673ffffffffffffffffffffffffffffffffffffffff1681526020019081526020016000206000018181548110611d4957611d48612977565b5b9060005260206000200154600f60008573ffffffffffffffffffffffffffffffffffffffff1673ffffffffffffffffffffffffffffffffffffffff1681526020019081526020016000206000018381548110611da857611da7612977565b5b9060005260206000200181905550600f60008473ffffffffffffffffffffffffffffffffffffffff1673ffffffffffffffffffffffffffffffffffffffff168152602001908152602001600020600001805480611e0857611e07612f9e565b5b60019003818190600052602060002001600090559055600f60008473ffffffffffffffffffffffffffffffffffffffff1673ffffffffffffffffffffffffffffffffffffffff1681526020019081526020016000206002018181548110611e7257611e71612977565b5b9060005260206000200154600f60008573ffffffffffffffffffffffffffffffffffffffff1673ffffffffffffffffffffffffffffffffffffffff1681526020019081526020016000206002018381548110611ed157611ed0612977565b5b9060005260206000200181905550600f60008473ffffffffffffffffffffffffffffffffffffffff1673ffffffffffffffffffffffffffffffffffffffff168152602001908152602001600020600201805480611f3157611f30612f9e565b5b60019003818190600052602060002001600090559055600f60008473ffffffffffffffffffffffffffffffffffffffff1673ffffffffffffffffffffffffffffffffffffffff1681526020019081526020016000206003018181548110611f9b57611f9a612977565b5b90600052602060002090602091828204019190069054906101000a900460ff16600f60008573ffffffffffffffffffffffffffffffffffffffff1673ffffffffffffffffffffffffffffffffffffffff168152602001908152602001600020600301838154811061200f5761200e612977565b5b90600052602060002090602091828204019190066101000a81548160ff021916908315150217905550600f60008473ffffffffffffffffffffffffffffffffffffffff1673ffffffffffffffffffffffffffffffffffffffff16815260200190815260200160002060030180548061208a57612089612f9e565b5b60019003818190600052602060002090602091828204019190066101000a81549060ff02191690559055505050565b6001600081905550565b6000600160009054906101000a900473ffffffffffffffffffffffffffffffffffffffff16905081600160006101000a81548173ffffffffffffffffffffffffffffffffffffffff021916908373ffffffffffffffffffffffffffffffffffffffff1602179055508173ffffffffffffffffffffffffffffffffffffffff168173ffffffffffffffffffffffffffffffffffffffff167f8be0079c531659141344cd1fd0a4f28419497f9722a3daafe3b4186f6b6457e060405160405180910390a35050565b600033905090565b6000604051905090565b600080fd5b600080fd5b600073ffffffffffffffffffffffffffffffffffffffff82169050919050565b60006121d0826121a5565b9050919050565b6121e0816121c5565b81146121eb57600080fd5b50565b6000813590506121fd816121d7565b92915050565b6000602082840312156122195761221861219b565b5b6000612227848285016121ee565b91505092915050565b600081519050919050565b600082825260208201905092915050565b6000819050602082019050919050565b6000819050919050565b61226f8161225c565b82525050565b60006122818383612266565b60208301905092915050565b6000602082019050919050565b60006122a582612230565b6122af818561223b565b93506122ba8361224c565b8060005b838110156122eb5781516122d28882612275565b97506122dd8361228d565b9250506001810190506122be565b5085935050505092915050565b60006020820190508181036000830152612312818461229a565b905092915050565b6123238161225c565b811461232e57600080fd5b50565b6000813590506123408161231a565b92915050565b600080fd5b600080fd5b6000601f19601f8301169050919050565b7f4e487b7100000000000000000000000000000000000000000000000000000000600052604160045260246000fd5b61239982612350565b810181811067ffffffffffffffff821117156123b8576123b7612361565b5b80604052505050565b60006123cb612191565b90506123d78282612390565b919050565b600067ffffffffffffffff8211156123f7576123f6612361565b5b61240082612350565b9050602081019050919050565b82818337600083830152505050565b600061242f61242a846123dc565b6123c1565b90508281526020810184848401111561244b5761244a61234b565b5b61245684828561240d565b509392505050565b600082601f83011261247357612472612346565b5b813561248384826020860161241c565b91505092915050565b600080600080608085870312156124a6576124a561219b565b5b60006124b4878288016121ee565b94505060206124c5878288016121ee565b93505060406124d687828801612331565b925050606085013567ffffffffffffffff8111156124f7576124f66121a0565b5b6125038782880161245e565b91505092959194509250565b60007fffffffff0000000000000000000000000000000000000000000000000000000082169050919050565b6125448161250f565b82525050565b600060208201905061255f600083018461253b565b92915050565b60006020828403121561257b5761257a61219b565b5b600061258984828501612331565b91505092915050565b60008115159050919050565b6125a781612592565b81146125b257600080fd5b50565b6000813590506125c48161259e565b92915050565b6000806000606084860312156125e3576125e261219b565b5b60006125f186828701612331565b935050602061260286828701612331565b9250506040612613868287016125b5565b9150509250925092565b6000819050919050565b600061264261263d612638846121a5565b61261d565b6121a5565b9050919050565b600061265482612627565b9050919050565b600061266682612649565b9050919050565b6126768161265b565b82525050565b6000602082019050612691600083018461266d565b92915050565b6126a0816121c5565b82525050565b60006020820190506126bb6000830184612697565b92915050565b60006126cc82612649565b9050919050565b6126dc816126c1565b82525050565b60006020820190506126f760008301846126d3565b92915050565b6127068161225c565b82525050565b600060608201905061272160008301866126fd565b61272e60208301856126fd565b61273b60408301846126fd565b949350505050565b600081519050919050565b600082825260208201905092915050565b6000819050602082019050919050565b61277881612592565b82525050565b600061278a838361276f565b60208301905092915050565b6000602082019050919050565b60006127ae82612743565b6127b8818561274e565b93506127c38361275f565b8060005b838110156127f45781516127db888261277e565b97506127e683612796565b9250506001810190506127c7565b5085935050505092915050565b6000602082019050818103600083015261281b81846127a3565b905092915050565b61282c81612592565b82525050565b60006020820190506128476000830184612823565b92915050565b60008151905061285c8161231a565b92915050565b6000602082840312156128785761287761219b565b5b60006128868482850161284d565b91505092915050565b60006040820190506128a46000830185612697565b6128b160208301846126fd565b9392505050565b6000815190506128c78161259e565b92915050565b6000602082840312156128e3576128e261219b565b5b60006128f1848285016128b8565b91505092915050565b600082825260208201905092915050565b7f496e646578206e6f7420666f756e6420666f722074686973207374616b65722e600082015250565b60006129416020836128fa565b915061294c8261290b565b602082019050919050565b6000602082019050818103600083015261297081612934565b9050919050565b7f4e487b7100000000000000000000000000000000000000000000000000000000600052603260045260246000fd5b7f4e487b7100000000000000000000000000000000000000000000000000000000600052601160045260246000fd5b60006129e08261225c565b91506129eb8361225c565b9250817fffffffffffffffffffffffffffffffffffffffffffffffffffffffffffffffff0483118215151615612a2457612a236129a6565b5b828202905092915050565b6000612a3a8261225c565b9150612a458361225c565b9250827fffffffffffffffffffffffffffffffffffffffffffffffffffffffffffffffff03821115612a7a57612a796129a6565b5b828201905092915050565b7f43616e6e6f7420756e7374616b65206265666f72652074686520656e64206f6660008201527f20746865207374616b696e67206475726174696f6e2e00000000000000000000602082015250565b6000612ae16036836128fa565b9150612aec82612a85565b604082019050919050565b60006020820190508181036000830152612b1081612ad4565b9050919050565b7f43616e6e6f7420756e7374616b6520656174656e20676f6f73652e0000000000600082015250565b6000612b4d601b836128fa565b9150612b5882612b17565b602082019050919050565b60006020820190508181036000830152612b7c81612b40565b9050919050565b6000606082019050612b986000830186612697565b612ba56020830185612697565b612bb260408301846126fd565b949350505050565b6000606082019050612bcf6000830186612697565b612bdc60208301856126fd565b612be960408301846126fd565b949350505050565b6000602082019050612c0660008301846126fd565b92915050565b600081519050612c1b816121d7565b92915050565b600060208284031215612c3757612c3661219b565b5b6000612c4584828501612c0c565b91505092915050565b7f596f7520646f206e6f74206f776e2074686973204e46542e0000000000000000600082015250565b6000612c846018836128fa565b9150612c8f82612c4e565b602082019050919050565b60006020820190508181036000830152612cb381612c77565b9050919050565b7f496e76616c6964206475726174696f6e2e000000000000000000000000000000600082015250565b6000612cf06011836128fa565b9150612cfb82612cba565b602082019050919050565b60006020820190508181036000830152612d1f81612ce3565b9050919050565b7f596f7520646f206e6f74206f776e20656e6f7567682074616c6520746f6b656e60008201527f732e000000000000000000000000000000000000000000000000000000000000602082015250565b6000612d826022836128fa565b9150612d8d82612d26565b604082019050919050565b60006020820190508181036000830152612db181612d75565b9050919050565b6000612dc38261225c565b91507fffffffffffffffffffffffffffffffffffffffffffffffffffffffffffffffff8203612df557612df46129a6565b5b600182019050919050565b7f4f776e61626c653a206e6577206f776e657220697320746865207a65726f206160008201527f6464726573730000000000000000000000000000000000000000000000000000602082015250565b6000612e5c6026836128fa565b9150612e6782612e00565b604082019050919050565b60006020820190508181036000830152612e8b81612e4f565b9050919050565b7f4f776e61626c653a2063616c6c6572206973206e6f7420746865206f776e6572600082015250565b6000612ec86020836128fa565b9150612ed382612e92565b602082019050919050565b60006020820190508181036000830152612ef781612ebb565b9050919050565b7f5265656e7472616e637947756172643a207265656e7472616e742063616c6c00600082015250565b6000612f34601f836128fa565b9150612f3f82612efe565b602082019050919050565b60006020820190508181036000830152612f6381612f27565b9050919050565b6000612f758261225c565b9150612f808361225c565b925082821015612f9357612f926129a6565b5b828203905092915050565b7f4e487b7100000000000000000000000000000000000000000000000000000000600052603160045260246000fdfea26469706673582212209401add1659708b8a2afbf2d242014fdb3f4a8ec2e9eb92921ea4aca472ce3d664736f6c634300080d0033",
  "linkReferences": {},
  "deployedLinkReferences": {}
}