{
  "_format": "hh-sol-artifact-1",
  "contractName": "Planting",
  "sourceName": "src/backend/contracts/Planting.sol",
  "abi": [
    {
      "inputs": [
        {
          "internalType": "address",
          "name": "_nftAddress",
          "type": "address"
        }
      ],
      "stateMutability": "nonpayable",
      "type": "constructor"
    },
    {
      "anonymous": false,
      "inputs": [
        {
          "indexed": true,
          "internalType": "address",
          "name": "previousOwner",
          "type": "address"
        },
        {
          "indexed": true,
          "internalType": "address",
          "name": "newOwner",
          "type": "address"
        }
      ],
      "name": "OwnershipTransferred",
      "type": "event"
    },
    {
      "anonymous": false,
      "inputs": [
        {
          "indexed": false,
          "internalType": "address",
          "name": "user",
          "type": "address"
        }
      ],
      "name": "PlantingSuccessful",
      "type": "event"
    },
    {
      "inputs": [
        {
          "internalType": "address",
          "name": "_user",
          "type": "address"
        }
      ],
      "name": "currentPhaseFinished",
      "outputs": [
        {
          "internalType": "bool",
          "name": "",
          "type": "bool"
        }
      ],
      "stateMutability": "view",
      "type": "function"
    },
    {
      "inputs": [
        {
          "internalType": "address",
          "name": "_user",
          "type": "address"
        }
      ],
      "name": "getPlant",
      "outputs": [
        {
          "components": [
            {
              "internalType": "uint256",
              "name": "phase",
              "type": "uint256"
            },
            {
              "internalType": "uint256",
              "name": "timestampPhaseStarted",
              "type": "uint256"
            }
          ],
          "internalType": "struct Planting.Plant",
          "name": "plant",
          "type": "tuple"
        }
      ],
      "stateMutability": "view",
      "type": "function"
    },
    {
      "inputs": [],
      "name": "owner",
      "outputs": [
        {
          "internalType": "address",
          "name": "",
          "type": "address"
        }
      ],
      "stateMutability": "view",
      "type": "function"
    },
    {
      "inputs": [
        {
          "internalType": "uint256",
          "name": "",
          "type": "uint256"
        }
      ],
      "name": "phaseDuration",
      "outputs": [
        {
          "internalType": "uint256",
          "name": "",
          "type": "uint256"
        }
      ],
      "stateMutability": "view",
      "type": "function"
    },
    {
      "inputs": [
        {
          "internalType": "uint256",
          "name": "_tokenId",
          "type": "uint256"
        }
      ],
      "name": "plant",
      "outputs": [],
      "stateMutability": "nonpayable",
      "type": "function"
    },
    {
      "inputs": [
        {
          "internalType": "address",
          "name": "",
          "type": "address"
        }
      ],
      "name": "plantPerUser",
      "outputs": [
        {
          "internalType": "uint256",
          "name": "phase",
          "type": "uint256"
        },
        {
          "internalType": "uint256",
          "name": "timestampPhaseStarted",
          "type": "uint256"
        }
      ],
      "stateMutability": "view",
      "type": "function"
    },
    {
      "inputs": [],
      "name": "renounceOwnership",
      "outputs": [],
      "stateMutability": "nonpayable",
      "type": "function"
    },
    {
      "inputs": [
        {
          "internalType": "address",
          "name": "newOwner",
          "type": "address"
        }
      ],
      "name": "transferOwnership",
      "outputs": [],
      "stateMutability": "nonpayable",
      "type": "function"
    },
    {
      "inputs": [],
      "name": "withdraw",
      "outputs": [],
      "stateMutability": "nonpayable",
      "type": "function"
    }
  ],
  "bytecode": "0x608060405260046008553480156200001657600080fd5b506040516200123a3803806200123a83398181016040528101906200003c9190620002f5565b6200005c62000050620001bf60201b60201c565b620001c760201b60201c565b80600160006101000a81548173ffffffffffffffffffffffffffffffffffffffff021916908373ffffffffffffffffffffffffffffffffffffffff16021790555060006003600060058110620000b757620000b662000327565b5b01819055506154606003600160058110620000d757620000d662000327565b5b018190555061fd206003600260058110620000f757620000f662000327565b5b01819055506202a3006003806005811062000117576200011662000327565b5b018190555062054600600360046005811062000138576200013762000327565b5b01819055506005600360016005811062000157576200015662000327565b5b01819055506005600360026005811062000176576200017562000327565b5b018190555060056003806005811062000194576200019362000327565b5b018190555060056003600460058110620001b357620001b262000327565b5b01819055505062000356565b600033905090565b60008060009054906101000a900473ffffffffffffffffffffffffffffffffffffffff169050816000806101000a81548173ffffffffffffffffffffffffffffffffffffffff021916908373ffffffffffffffffffffffffffffffffffffffff1602179055508173ffffffffffffffffffffffffffffffffffffffff168173ffffffffffffffffffffffffffffffffffffffff167f8be0079c531659141344cd1fd0a4f28419497f9722a3daafe3b4186f6b6457e060405160405180910390a35050565b600080fd5b600073ffffffffffffffffffffffffffffffffffffffff82169050919050565b6000620002bd8262000290565b9050919050565b620002cf81620002b0565b8114620002db57600080fd5b50565b600081519050620002ef81620002c4565b92915050565b6000602082840312156200030e576200030d6200028b565b5b60006200031e84828501620002de565b91505092915050565b7f4e487b7100000000000000000000000000000000000000000000000000000000600052603260045260246000fd5b610ed480620003666000396000f3fe608060405234801561001057600080fd5b50600436106100935760003560e01c80638da5cb5b116100665780638da5cb5b1461010c578063c1ab884d1461012a578063c383e22b1461015a578063de1a621714610176578063f2fde38b146101a757610093565b80631356d3dc146100985780633ccfd60b146100c85780634e2f90e9146100d2578063715018a614610102575b600080fd5b6100b260048036038101906100ad919061096d565b6101c3565b6040516100bf91906109b5565b60405180910390f35b6100d061025f565b005b6100ec60048036038101906100e7919061096d565b6102b0565b6040516100f99190610a18565b60405180910390f35b61010a61031d565b005b610114610331565b6040516101219190610a42565b60405180910390f35b610144600480360381019061013f9190610a89565b61035a565b6040516101519190610ac5565b60405180910390f35b610174600480360381019061016f9190610a89565b610375565b005b610190600480360381019061018b919061096d565b6106ff565b60405161019e929190610ae0565b60405180910390f35b6101c160048036038101906101bc919061096d565b610723565b005b600080600260008473ffffffffffffffffffffffffffffffffffffffff1673ffffffffffffffffffffffffffffffffffffffff168152602001908152602001600020604051806040016040529081600082015481526020016001820154815250509050600042905080600383600001516005811061024457610243610b09565b5b015483602001516102559190610b67565b1092505050919050565b6102676107a6565b3373ffffffffffffffffffffffffffffffffffffffff166108fc479081150290604051600060405180830381858888f193505050501580156102ad573d6000803e3d6000fd5b50565b6102b86108f0565b600260008373ffffffffffffffffffffffffffffffffffffffff1673ffffffffffffffffffffffffffffffffffffffff168152602001908152602001600020604051806040016040529081600082015481526020016001820154815250509050919050565b6103256107a6565b61032f6000610824565b565b60008060009054906101000a900473ffffffffffffffffffffffffffffffffffffffff16905090565b6003816005811061036a57600080fd5b016000915090505481565b6000600260003373ffffffffffffffffffffffffffffffffffffffff1673ffffffffffffffffffffffffffffffffffffffff1681526020019081526020016000206000015403610556573373ffffffffffffffffffffffffffffffffffffffff16600160009054906101000a900473ffffffffffffffffffffffffffffffffffffffff1673ffffffffffffffffffffffffffffffffffffffff16636352211e836040518263ffffffff1660e01b81526004016104319190610ac5565b602060405180830381865afa15801561044e573d6000803e3d6000fd5b505050506040513d601f19601f820116820180604052508101906104729190610bd2565b73ffffffffffffffffffffffffffffffffffffffff16146104c8576040517f08c379a00000000000000000000000000000000000000000000000000000000081526004016104bf90610c5c565b60405180910390fd5b600160009054906101000a900473ffffffffffffffffffffffffffffffffffffffff1673ffffffffffffffffffffffffffffffffffffffff166342966c68826040518263ffffffff1660e01b81526004016105239190610ac5565b600060405180830381600087803b15801561053d57600080fd5b505af1158015610551573d6000803e3d6000fd5b505050505b61055f336101c3565b61059e576040517f08c379a000000000000000000000000000000000000000000000000000000000815260040161059590610cee565b60405180910390fd5b600854600260003373ffffffffffffffffffffffffffffffffffffffff1673ffffffffffffffffffffffffffffffffffffffff1681526020019081526020016000206000015410610624576040517f08c379a000000000000000000000000000000000000000000000000000000000815260040161061b90610d80565b60405180910390fd5b6001600260003373ffffffffffffffffffffffffffffffffffffffff1673ffffffffffffffffffffffffffffffffffffffff16815260200190815260200160002060000160008282546106779190610b67565b9250508190555042600260003373ffffffffffffffffffffffffffffffffffffffff1673ffffffffffffffffffffffffffffffffffffffff168152602001908152602001600020600101819055507ff910886e6fbbddd6ddfa09270d2dbe2cecfa6cdf2bb4f018b23e19cc0ef1fb61336040516106f49190610a42565b60405180910390a150565b60026020528060005260406000206000915090508060000154908060010154905082565b61072b6107a6565b600073ffffffffffffffffffffffffffffffffffffffff168173ffffffffffffffffffffffffffffffffffffffff160361079a576040517f08c379a000000000000000000000000000000000000000000000000000000000815260040161079190610e12565b60405180910390fd5b6107a381610824565b50565b6107ae6108e8565b73ffffffffffffffffffffffffffffffffffffffff166107cc610331565b73ffffffffffffffffffffffffffffffffffffffff1614610822576040517f08c379a000000000000000000000000000000000000000000000000000000000815260040161081990610e7e565b60405180910390fd5b565b60008060009054906101000a900473ffffffffffffffffffffffffffffffffffffffff169050816000806101000a81548173ffffffffffffffffffffffffffffffffffffffff021916908373ffffffffffffffffffffffffffffffffffffffff1602179055508173ffffffffffffffffffffffffffffffffffffffff168173ffffffffffffffffffffffffffffffffffffffff167f8be0079c531659141344cd1fd0a4f28419497f9722a3daafe3b4186f6b6457e060405160405180910390a35050565b600033905090565b604051806040016040528060008152602001600081525090565b600080fd5b600073ffffffffffffffffffffffffffffffffffffffff82169050919050565b600061093a8261090f565b9050919050565b61094a8161092f565b811461095557600080fd5b50565b60008135905061096781610941565b92915050565b6000602082840312156109835761098261090a565b5b600061099184828501610958565b91505092915050565b60008115159050919050565b6109af8161099a565b82525050565b60006020820190506109ca60008301846109a6565b92915050565b6000819050919050565b6109e3816109d0565b82525050565b6040820160008201516109ff60008501826109da565b506020820151610a1260208501826109da565b50505050565b6000604082019050610a2d60008301846109e9565b92915050565b610a3c8161092f565b82525050565b6000602082019050610a576000830184610a33565b92915050565b610a66816109d0565b8114610a7157600080fd5b50565b600081359050610a8381610a5d565b92915050565b600060208284031215610a9f57610a9e61090a565b5b6000610aad84828501610a74565b91505092915050565b610abf816109d0565b82525050565b6000602082019050610ada6000830184610ab6565b92915050565b6000604082019050610af56000830185610ab6565b610b026020830184610ab6565b9392505050565b7f4e487b7100000000000000000000000000000000000000000000000000000000600052603260045260246000fd5b7f4e487b7100000000000000000000000000000000000000000000000000000000600052601160045260246000fd5b6000610b72826109d0565b9150610b7d836109d0565b9250827fffffffffffffffffffffffffffffffffffffffffffffffffffffffffffffffff03821115610bb257610bb1610b38565b5b828201905092915050565b600081519050610bcc81610941565b92915050565b600060208284031215610be857610be761090a565b5b6000610bf684828501610bbd565b91505092915050565b600082825260208201905092915050565b7f596f7520646f6e2774206f776e2074686973206265616e210000000000000000600082015250565b6000610c46601883610bff565b9150610c5182610c10565b602082019050919050565b60006020820190508181036000830152610c7581610c39565b9050919050565b7f5468652063757272656e742067726f77696e67207068617365206f6620796f7560008201527f7220706c616e74206973206e6f742066696e6973686564207965742100000000602082015250565b6000610cd8603c83610bff565b9150610ce382610c7c565b604082019050919050565b60006020820190508181036000830152610d0781610ccb565b9050919050565b7f596f757220706c616e7420616c72656164792072656163686564206d6178696d60008201527f756d2067726f7774682100000000000000000000000000000000000000000000602082015250565b6000610d6a602a83610bff565b9150610d7582610d0e565b604082019050919050565b60006020820190508181036000830152610d9981610d5d565b9050919050565b7f4f776e61626c653a206e6577206f776e657220697320746865207a65726f206160008201527f6464726573730000000000000000000000000000000000000000000000000000602082015250565b6000610dfc602683610bff565b9150610e0782610da0565b604082019050919050565b60006020820190508181036000830152610e2b81610def565b9050919050565b7f4f776e61626c653a2063616c6c6572206973206e6f7420746865206f776e6572600082015250565b6000610e68602083610bff565b9150610e7382610e32565b602082019050919050565b60006020820190508181036000830152610e9781610e5b565b905091905056fea26469706673582212203c8352f9e0de278e6e3d5f819f4d85082b1f7e5a398375dfff842c2e3c640aa764736f6c634300080d0033",
  "linkReferences": {},
  "deployedLinkReferences": {}
}